:020000040800F2
:10000000600B0120A101000849470008D93400080D
:1000100045470008530F0008C97B00080000000096
:10002000000000000000000000000000F571000862
:100030005710000800000000430200084371000848
:10004000BB010008BB010008BB010008BB010008A0
:10005000BB010008BB010008BB010008BB01000890
:10006000BB010008BB010008BB010008BB01000880
:10007000BB010008BB010008590F0008BB010008C4
:10008000BB010008BB010008BB010008BB01000860
:10009000BB010008BB010008BB010008BB01000850
:1000A000BB010008BB010008BB010008BB01000840
:1000B000BB010008BB010008BB010008BB01000830
:1000C000BB010008BB010008BB010008BB01000820
:1000D000BB010008BB010008A97B0008B97B000830
:1000E000BB010008BB010008BB010008BB01000800
:1000F000BB010008BB010008BB010008BB010008F0
:10010000BB010008BB010008BB010008BB010008DF
:10011000BB010008BB010008BB01000861730008B7
:10012000BB010008BB010008BB010008BB010008BF
:10013000BB010008BB010008BB010008BB010008AF
:10014000BB010008BB010008BB010008BB0100089F
:10015000BB010008BB010008690F0008BB010008D3
:10016000BB010008BB010008BB010008BB0100087F
:10017000BB010008BB010008BB0100080000000033
:10018000BB010008BB010008DFF810D000F0E0FC64
:100190000048004769850008AFF30080600B01202C
:1001A0000648804706480047FEE7FEE7FEE7FEE711
:1001B000FEE7FEE7FEE7FEE7FEE7FEE74D73000819
:1001C00089010008394C3A4D25604FF0020080F358
:1001D000148838494868D0F800C0DFF8DC10096896
:1001E00001F47001B1F5700F0ED10CF1640CBCE894
:1001F000FF000CF1480C8CF309882DED010ABDECD1
:10020000010AAE4662B630470CF1240CBCE8FF0090
:100210008CF30988AE4662B63047EFF3108072B6B1
:100220007047EFF3108062B6704780F31088704714
:1002300022484FF080510160BFF34F8FBFF36F8FA3
:100240007047EFF3108C72B62DE90050DFF870C0E4
:10025000E047BDE800500028704602D18CF31088BA
:1002600070478646EFF3098020E9F01FDFF8483039
:100270001B6803F47003B3F5700F01D120ED108BF0
:100280000C4D2E68306068682860016803F47003C4
:10029000B3F5700F01D1B1EC108BB1E8F01F81F311
:1002A00009888CF31088704700BF000020ED00E043
:1002B0000000F0F0D000002088ED00E004ED00E048
:1002C000156900082DE9F05F0546002092469B461F
:1002D00088460646814640241BE02846414647465C
:1002E000224600F055FA53465A46C01A914110D39F
:1002F00011461846224600F03CFA2D1A67EB010819
:100300004F4622460120002100F033FA17EB000986
:100310004E41201EA4F10104DFDC484631462A4646
:100320004346BDE8F09F40EA01039B0703D009E084
:1003300008C9121F08C0042AFAD203E011F8013BD1
:1003400000F8013B521EF9D27047D2B201E000F82A
:10035000012B491EFBD270470022F6E710B5134669
:100360000A4604461946FFF7F0FF204610BD30B597
:1003700005462A460B4612F8010B13F8014B08B14B
:10038000A042F8D01CB1002802D06D1CF1E728462D
:1003900030BD10B5044604E00B7800F8013B03B112
:1003A000491C521EF8D2204610BD421C10F8011BF9
:1003B0000029FBD1801A704710B5002200E0521CC2
:1003C000835C8C5CA34201D1002BF8D1D8B2E1B29E
:1003D000401A10BD0FB400B58DB010A909900B9054
:1003E00000914FF0FF300A9000200C9005480690D5
:1003F000054807906A4609A80F9900F0EDF90DB07D
:100400005DF814FBF5070008130800082DE9FF5FED
:100410001D464FF0FF3BD5E9014691465F464FF040
:100420000008A9697F1C01988847296A8246884785
:100430000028F6D1BAF1FF3F0CD024F4C064002E9E
:1004400019DD600614D5BAF12B0F09D0BAF12D0FC2
:100450000ED103E0584604B0BDE8F09F44F4806438
:10046000A9697F1C01988847761E8246002E02DD0E
:10047000BAF1300F03D0B9F1000F26D032E0A969EC
:10048000761E44F400747F1C019888478246002E33
:1004900005DDBAF1780F06D0BAF1580F03D0B9F1E3
:1004A000000F10D01EE0B9F1000F02D0B9F1100F0B
:1004B00018D1A969761E24F400747F1C019888471E
:1004C0008246102002E0082000E00A20814609E070
:1004D00008FB0908A969761E44F400747F1C019882
:1004E00088478246002E05DD4946504600F060F9F7
:1004F0000028EDDAE96901988847A00502D46FF079
:100500000100A8E7E00725D1600613D5600502D5F4
:10051000C8F1000000E0404629680A1D2A60096809
:10052000220501D5087015E0220701D5088011E0E9
:1005300008600FE02868011D29600068210502D5C8
:1005400080F8008006E0210702D5A0F8008001E0D5
:10055000C0F8008038467EE72DE9FF5FD2E901A7A9
:100560004FF00008916999461446DDF838B04646C8
:1005700001988847054659EA0B0005D009E0A169B2
:10058000761C019888470546216A28468847002836
:10059000F5D1681C03D05FEACA7005D015E04FF0B2
:1005A000FF3004B0BDE8F09F2068011D2160D0F845
:1005B00000800AE05FEACA7001D108F8015BA16916
:1005C000761C7F1E019888470546002F1ADD681C9F
:1005D00018D0B9F1000F0DD0E81705EBD06042112B
:1005E00020F01F0059F822102A1A012090400142E1
:1005F000E0D107E0BBF1000FDCD1216A2846884733
:100600000028D7D0E16901988847BBF1000F07D1D6
:10061000002E05DD5FEACA7002D1002188F80010C3
:10062000A068B84203DDBBF1000F03D017B16FF033
:100630000100B6E73046B4E72DE9F04D81EA030446
:1006400004F0004B21F0004514464FF0000A23F05F
:10065000004150EA050220D054EA01021DD0C5F342
:100660000A570246C5F31303C1F31300C1F30A5638
:1006700040F4801543F48013A7EB0608101BD64600
:1006800008F2FD3873EB050002D308F1010801E020
:1006900092185B41B8F1000F03DA00200146BDE873
:1006A000F08D00204FF48011064684460EE0171BA3
:1006B00073EB050705D3121B63EB050306434CEAF6
:1006C000010C49084FEA300092185B4150EA0107DB
:1006D000EDD152EA030012D082EA040083EA050158
:1006E000084305D0101BAB4106D20122002306E0CF
:1006F00000224FF0004302E06FF0010253101AEBAA
:1007000006004CEB085110EB0A0041EB0B01BDE871
:10071000F04D00F08FB8C1F30A52C1F3130140F25B
:10072000FF3341F480119A4202DA002001467047FB
:1007300040F233439A42A2F2334202DC524200F0CA
:1007400027B800F016B830B50B460146002020222D
:10075000012409E021FA02F59D4205D303FA02F5CE
:10076000491B04FA02F52844151EA2F10102F1DC2E
:1007700030BD202A04DB203A00FA02F10020704745
:100780009140C2F1200320FA03F3194390407047CF
:10079000202A04DB203A21FA02F00021704721FAD6
:1007A00002F3D040C2F1200291400843194670473D
:1007B0003A2800D2303820F02002412A01D3A2F199
:1007C0003700884201D34FF0FF3070470268114470
:1007D0001378016018467047D1600449516104499B
:1007E000116200211161114600F0DCB9CD0700084B
:1007F000990B0008426842B1016811F8013B23B12E
:10080000521EC0E90012184670470121C160881EBF
:10081000704742685AB1C368016843B983688B4224
:1008200005D0491E521CC0E90012002070474FF04D
:10083000FF30704710B5141E73F1000408DA401C35
:1008400041F1000192185B411A4301D120F00100EF
:1008500010BD2DE9F04D92469B4611B1B1FA81F2DF
:1008600002E0B0FA80F220329046FFF782FF0446A1
:100870000F4640EA0A0041EA0B0153465A46084334
:1008800013D0114653EA010019D0C8F14002504676
:10089000FFF77EFF05460E46504659464246FFF793
:1008A00068FF084305D0012004E020463946BDE832
:1008B000F08D0020054346EAE0762C4337430A9842
:1008C0006305E40AA0EB08000022FD0A44EA47544D
:1008D0000A3002D500200146E9E7010510196941F7
:1008E000DDE9084500196941BDE8F04DA2E72DE9B1
:1008F000FE4F804681EA0300C00F0C46009021F0B5
:10090000004123F00045B8EB0200A94105D2404662
:10091000214690461C460B46024623F000401043F9
:1009200047D0270DC7F30A00C3F30A510290401ABB
:10093000019040286BDAC3F3130040F4801B009849
:10094000924620B10023D2EB030A63EB0B0B019814
:100950005946C0F140025046FFF70BFF06460D46D0
:1009600050465946019A00F005F910EB0800614124
:10097000002487EA115284EAE7731A4340D0009AB0
:1009800062B3019A012A4FEA075215DC001B61EBA2
:1009900002014FF0004202EA0752CDE90042001C7A
:1009A00041F5801132462B46FFF753FF03B0BDE8F7
:1009B000F08F40462146F9E7001B61EB0201001C65
:1009C00041F5801300185B412018A2F5001747EB92
:1009D000030140EAD570B6196D4111E06D084FEA88
:1009E000360645EAC0754FEA0752001B61EB02016B
:1009F000001C41F5801149084FEA300000195141AF
:100A000032462B4603B0BDE8F04FFFF713BF009806
:100A1000012240000023D0EB020263EBE073009858
:100A200021464FEAE074B8EB000061EB0401E9E70E
:100A300083F000435BE781F0004158E72DE9FE4F6A
:100A400081EA030404F0004421F0004100944FF0D7
:100A5000000B23F0004350EA01045ED052EA030485
:100A60005BD0C3F30A54C1F30A552C44A4F2F33407
:100A70000194A0FB0254C1F3130141F48011C3F3AC
:100A8000130343F4801301FB024400FB034E840A6A
:100A9000970A44EA815447EA8357A4FB0768029502
:100AA0008D0A05FB07854FEA932C04FB0C542705A0
:100AB000029D4FEA065847EA1637B5EB08056EEB7C
:100AC000070C870E920E47EA811742EA8312A7FBB2
:100AD0000201B6EB0B0164EB00042B0D43EA0C336F
:100AE0005E1844EB1C50DA465146E7FB0201C5F3A1
:100AF00013044FEA0B3343EA14534FEA0432019CC8
:100B000043EA0603A4F10C040294009CCDE900B46E
:100B1000FFF79FFE03B0BDE8F08F00200146F9E724
:100B200030B5041E71F1000404DB4FF00044404274
:100B300064EB0101141E73F1000405DB1C464FF049
:100B40000043524263EB0403994208BF904230BD18
:100B5000064C074D06E0E06840F0010394E807000A
:100B600098471034AC42F6D3FFF712FB24960008E6
:100B700044960008202A06DBCB17203A41FA02F0FF
:100B800043EAE07306E041FA02F3D040C2F12002EA
:100B90009140084319467047C0B24FF4F05100F03D
:100BA00099B900002DE9F34F8BB04FF0000801F127
:100BB0000C000C464FF0010B46460DF1080A01905F
:100BC0006269012101989047051E2DD0252D2CD05A
:100BD000216A8847C0B16269012101989047216A62
:100BE00088470028F7D1411E62690198904700E0CC
:100BF000761CA1690B988847216A88470028F7D19D
:100C0000E1690B988847DBE7A1690B98884707469D
:100C1000A84201D1761CD3E7E1690B9888477F1C75
:100C200002D1B8F1000F6FD047E1002762693D465D
:100C30003946019890472A2804D162690121019818
:100C400090470125DFF88892626901210198904759
:100C5000A0F130010A290AD24F45E5DC07EB8701F4
:100C600000EB4107303FDFD445F01005ECE7E90623
:100C700001D46FF000476C280AD04C2814D06828A3
:100C800015D06A280DD074281CD07A281AD01DE0FF
:100C900062690121019890476C2802D045F0040553
:100CA00014E045F002050DE045F020050AE0626918
:100CB000012101989047682802D045F0080505E019
:100CC00045F400656269012101989047C4E9015724
:100CD00065283DD019DC58287AD00CDC452837D05F
:100CE00004DC252826D0412831D131E046282FD0F8
:100CF00047282CD12CE05B2877D0612828D06328A6
:100D00007CD0642823D15AE0D1E06F2848D008DC99
:100D100066281DD067281BD0692821D06E2816D1DF
:100D200027E0702845D0732868D0752847D07828E8
:100D30000DD14DE0A1690B988847054625283FF461
:100D400069AFE1690B9888476D1C3FF46AAFB4E066
:100D500023466A466FF001000B99AFF300809FE0D5
:100D600045F040006060A80723464FF0000236D4EB
:100D70003EE0E8077FF447AF2068011D216000686E
:100D8000290501D506701BE7290701D5068017E75D
:100D9000A90703D5F117C0E9006111E706600FE765
:100DA00045F040006060A80723464FF0080216D4C3
:100DB0001EE040F60E0125EA0100606016E045F0F5
:100DC00040006060A80723464FF00A0207D40FE0F6
:100DD00045F040006060A80708D5234610226FF058
:100DE00001000B99AFF300805AE007E02346102280
:100DF0006FF001000B99FFF709FB51E04FF000097C
:100E00004F464B46632802D05B2807D041E020794B
:100E1000C00601D40120A06001273AE062690121E7
:100E2000019890475E2805D14FF001096269494653
:100E300001989047216939B900210A46534643F881
:100E40002120491C0829FADBB0B3216969B9C1170F
:100E500000EBD16253110AEB830122F01F02821AC8
:100E600001200B68904003430B60626901210198E7
:100E700090475D28E8D1B9F1000F09D00020514614
:100E800051F82020D24341F82020401C0828F7DBED
:100E900002AB224600976FF001000B99FFF75CFB55
:100EA00000280CDA401C08D1BBF1000F05D04FF030
:100EB000FF300DB0BDE8F08FFFE74046F9E7E907E6
:100EC00001D108F1010806444FF0000B78E600005C
:100ED000CCCCCC0C7F2801D9002208E0064A02EBDA
:100EE0005002C007127800D1120902F00F0201204F
:100EF00090400840704700008592000870B58C183B
:100F000010F8015B15F0070301D110F8013B2A111D
:100F100006D110F8012B03E010F8016B01F8016B0A
:100F20005B1EF9D12B0705D40023521E0DD401F806
:100F3000013BFAE710F8013BCB1A921C03E013F8CF
:100F4000015B01F8015B521EF9D5A142D8D3002004
:100F500070BD00BFFEE7000010B5024800F00AFBBC
:100F600010BD00002803002010B5024800F002FB6D
:100F700010BD0000C8020020014608781038182370
:100F8000B0FBF3F20848805CC865032A05D90868FD
:100F90006FF30900001D886503E008686FF309001E
:100FA0008865886D70470000949100080146002014
:100FB0008A6A8B69CBB932B1012A0DD0022A03D0DB
:100FC000032A10D10EE000BFCB6A03F08073B3F1A7
:100FD000807F00D1012007E0CB6AB3F1C07F00D150
:100FE000012001E000E000BF34E08B69B3F5005F51
:100FF0001AD132B1012A07D0022A03D0032A11D113
:101000000AE000BF01200EE0CB6A03F08073B3F169
:10101000807F00D1012006E0CB6AB3F1C07F00D110
:10102000012000E000BF15E032B1012A05D0022AFC
:1010300004D0032A0CD103E000BF00BF012008E068
:10104000CB6A03F08073B3F1807F00D1012000E010
:1010500000BF00BF7047704700B5C1B04FF4FA60E1
:1010600000F01EFC01226149614801F0F9FF0020F7
:10107000604908806049087060A006F0A7FD06E09E
:1010800064A006F0A3FD4FF47A7000F009FC4FF461
:101090007A726AA16AA007F0C9FB0028F0D06AA0A2
:1010A00006F094FD69A006F091FD4FF47A7263A1F9
:1010B0006CA007F0BBFB10B96EA006F087FD62A024
:1010C00006F084FD4FF47A7000F0EAFB73A006F09E
:1010D0007DFD06E077A006F079FD4FF47A7000F010
:1010E000DFFB41F2883255A17BA007F09FFB00286F
:1010F000F0D055A006F06AFD7BA006F067FD4FF426
:10110000807101A8FFF728F97D4843687DA1026836
:1011100001A806F085FD06E080A006F057FD4FF41B
:101120007A7000F0BDFB41F2883244A101A807F0BB
:101130007DFB0028F0D044A006F048FD81A006F019
:1011400045FD4FF4807101A8FFF706F96C4840692E
:1011500068B16B48806950B16948806900906848FF
:1011600043697EA1026901A806F05AFD05E06448C2
:1011700084A1026901A806F053FD06E08BA006F0E9
:1011800025FD40F6B83000F08BFB41F288322BA1F0
:1011900001A807F04BFB0028F0D02BA006F016FDAD
:1011A0008EA006F013FD4FF4807101A8FFF7D4F86C
:1011B000534883898FA1826801A806F031FD06E0BB
:1011C00093A006F003FD40F6B83000F069FB41F251
:1011D00088321AA101A807F029FB0028F0D01AA034
:1011E00006F0F4FC012041B000BD00007F010020AA
:1011F000800200207C0100207E010020313A5465ED
:10120000737420415420636F6D6D616E642E2E2EB9
:10121000202000004661696C656420746F2073654E
:101220006E6420415420636F6D6D616E642C20727A
:1012300065747279696E672E2E2E0A004F4B00007E
:1012400041540D0A000000004F4B0A00323A52454B
:1012500053544F52452E2E2E202020202020202077
:101260002020000041542B524553544F52450D0A43
:10127000000000004661696C656420746F20646939
:101280007361626C65206563686F2C20726574728F
:1012900079696E672E2E2E0A00000000333A5365DE
:1012A000742043574D4F44452E2E2E2020202020C1
:1012B000202000004661696C656420746F207365AE
:1012C000742043574D4F44452C20726574727969E0
:1012D0006E672E2E2E0A000041542B43574D4F446B
:1012E000453D310D0A000000343A436F6E6E656370
:1012F0007420746F20576946692E2E2E202000001E
:101300005C01002041542B43574A41503D22257334
:10131000222C222573220D0A000000004661696C10
:10132000656420746F20636F6E6E65637420746FE4
:1013300020576946692C207265747279696E672E30
:101340002E2E0A00353A4D51545420757365722083
:10135000636F6E6669672E2E2E20000041542B4D60
:10136000515454555345524346473D302C312C225D
:101370002573222C222573222C222573222C302C1B
:10138000300D0A0041542B4D51545455534552438E
:1013900046473D302C312C222573222C22222C2230
:1013A000222C302C302C22220D0A00004661696C60
:1013B000656420746F20736574204D5154542075FA
:1013C00073657220636F6E6669672C207265747234
:1013D00079696E672E2E2E0A00000000363A4D51B4
:1013E000545420436F6E6E6563742E2E2E20202081
:1013F0002020000041542B4D515454434F4E4E3D3C
:10140000302C222573222C25642C300D0A0000007C
:101410004661696C656420746F20636F6E6E6563EE
:101420007420746F204D5154542073657276657228
:101430002C207265747279696E672E2E2E0A000058
:1014400012490988B1F5FF7F02DD00210F4A1180A2
:101450000E490A880988491C0C4B19800C4988548C
:101460001946098802290FDB19460988891E084A8E
:10147000515C0D2908D119460988491E515C0A2979
:1014800002D10121034A1170704700007C01002045
:10149000E00401207E01002072B600BFFEE770B5B7
:1014A0000446A56D00F01AFB064694F835000228A4
:1014B00008D08020606500BF002084F8340000BFA1
:1014C000012070BD2068006820F0160021680860C7
:1014D0002068406920F0800021684861206C08B9CC
:1014E000A06C28B12068006820F00800216808601E
:1014F0002068006820F001002168086010E000F01A
:10150000EDFA801B05280BD920206065032084F8A4
:10151000350000BF002084F8340000BF0320D0E76E
:101520002068006800F001000028E8D194F85C1001
:101530003F208840A860012084F8350000BF0020CB
:1015400084F8340000BF00BFBBE7014691F83500C6
:10155000022803D08020486501207047052081F8CB
:1015600035000868006820F001000A68106000205B
:10157000F3E70000F8B50446002000908C480068AE
:101580004FF41651B0FBF1F7A56D2E6894F85C107E
:1015900008208840304098B12068006800F00400BE
:1015A00070B12068006820F004002168086094F899
:1015B0005C1008208840A860606D40F00100606504
:1015C00094F85C1001208840304068B12068406980
:1015D00000F0800040B194F85C1001208840A860C1
:1015E000606D40F00200606594F85C100420884053
:1015F000304068B12068006800F0020040B194F803
:101600005C1004208840A860606D40F004006065B4
:1016100094F85C1010208840304078B3206800684F
:1016200000F0080050B394F85C1010208840A860C7
:101630002068006800F4802080B12068006800F411
:10164000002028B9206CC8B12046216C884715E0DD
:10165000A06C98B12046A16C88470FE02068006814
:1016600000F4807028B92068006820F00800216824
:101670000860206C10B12046216C884794F85C10FB
:10168000202088403040002865D02068006800F0A5
:10169000100000285FD094F85C1020208840A860DB
:1016A00094F83500052828D12068006820F016003D
:1016B000216808602068406920F080002168486146
:1016C000206C08B9A06C28B12068006820F00800E0
:1016D0002168086094F85C103F208840A8600120D1
:1016E00084F8350000BF002084F8340000BF206D6E
:1016F00010B12046216D8847F8BD2068006800F4CD
:10170000802080B12068006800F4002028B9606C57
:1017100010B12046616C88471DE0E06BD8B12046CF
:10172000E16B884717E02068006800F4807068B9B2
:101730002068006820F0100021680860012084F80B
:10174000350000BF002084F8340000BFE06B10B10A
:101750002046E16B8847606D38B3606D00F0010092
:10176000F0B1052084F835002068006820F0010001
:101770002168086000BF0098401C0090B84200D962
:1017800005E02068006800F001000028F3D100BFE8
:10179000012084F8350000BF002084F8340000BF29
:1017A000E06C10B12046E16C884700BFA4E7000060
:1017B0003C0000202DE9F0410446002500F08EF9A0
:1017C000074614B90120BDE8F081606A00B100BF8E
:1017D000022084F8350000BF002084F8340000BFE8
:1017E0002068006820F00100216808600AE000F02D
:1017F00075F9C01B052805D920206065032084F8F1
:101800003500E0E72068006800F001000028EED114
:101810002068056821480540D4E901010843E168D2
:1018200008432169084361690843A1690843E169E4
:101830000843216A08430543606A042803D1D4E9B8
:101840000B0108430543206805602068456925F0C1
:101850000705606A0543606A04280DD1A06A054344
:10186000E06A48B12046FFF7A1FB28B1402060653F
:10187000012084F83500A6E7206845612046FFF77F
:101880007BFB064694F85C103F208840B060002047
:101890006065012084F83500002094E73F8010F057
:1018A00070B5044600F01AF906462546681C10B1CA
:1018B00004480078054400BF00F010F9801BA842DE
:1018C000FAD370BD38000020F8B502460B4600255B
:1018D000002400200021D6E0012606FA01F51E684A
:1018E00006EA0504AC4274D11E7906F00306012E07
:1018F00004D01E7906F00306022E13D190684F0023
:101900000326BE40B0434F00DE68BE4030439060C7
:10191000506801268E40B0431E79C6F300168E40F3
:10192000304350601E7906F00306032E09D0D068BC
:101930004F000326BE40B0434F009E68BE40304378
:10194000D0601E7906F00306022E13D1CF0802F1F3
:10195000200656F827004E07F70E0F26BE40B0436C
:101960004F07FF0E1E69BE403043CF0802F120062C
:1019700046F8270010684F000326BE40B0431E798A
:1019800006F003064F00BE40304310605E6806F468
:101990004036002E76D000BF002600963C4E3668BA
:1019A00046F480463A4F3E603E46366806F480462E
:1019B000009600BF00BF374E8F0856F827008E07ED
:1019C000370F0F26BE40B043334EB24202D100263D
:1019D00024E057E0314EB24201D101261EE0304EE4
:1019E000B24201D1022619E02E4EB24201D10326A5
:1019F00014E02D4EB24201D104260FE02B4EB2422C
:101A000001D105260AE02A4EB24201D1062605E0A0
:101A1000284EB24201D1072600E008268F073F0F6B
:101A2000BE4030431B4E8F0846F82700224E3068D8
:101A3000A0435E6806F4801606B120431E4E306057
:101A4000361D3068A0435E6806F4001606B12043D8
:101A5000194E361D3060184E361F3068A0435E6840
:101A600006F4003606B12043134E361F3060361F91
:101A70003068A0435E6806F4803606B120430E4EFF
:101A8000083E3060491C1029FFF426AFF8BD000065
:101A9000443802400838014000000240000402407F
:101AA00000080240000C02400010024000140240F6
:101AB00000180240001C0240083C014010B5426979
:101AC00021EA020302EA010443EA0443836110BDF0
:101AD0000AB1816101E00B0483617047014800682D
:101AE000704700003000002070B504460CB901209A
:101AF00070BD94F83D0028B9002084F83C002046D1
:101B000000F08CF9242084F83D002068006820F063
:101B10000100216808602068006840F400402168E6
:101B200008602068006820F400402168086000F028
:101B3000B1FB05465C496068884206D85B4885422F
:101B400001D2012007E0002005E05948854201D27A
:101B5000012000E00020012800D1C9E75548B5FB6D
:101B6000F0F62068406820F03F003043216848606C
:101B70004D496068884201D8701C07E04FF49670A8
:101B800070434FF47A71B0FBF1F0401C2168096A90
:101B900021F03F0108432168086243496068884298
:101BA00014D8681E61684900B0FBF1F0401CC0F316
:101BB0000B00042801D204203DE0681E6168490042
:101BC000B0FBF1F0401CC0F30B0034E0A06838B962
:101BD000681E616801EB4101B0FBF1F0401C0AE0B6
:101BE000681E616801EBC10202EB0111B0FBF1F06C
:101BF000401C40F48040C0F30B0008B901201AE0FB
:101C0000A06848B9681E616801EB4101B0FBF1F0C2
:101C1000401CC0F30B000CE0681E616801EBC102C0
:101C200002EB0111B0FBF1F0401CC0F30B0040F4DB
:101C3000804040F400402168C9694CF6FF7291432E
:101C400008432168C861D4E907010843216809688D
:101C500021F0C001084321680860D4E9031008435B
:101C60002168896848F2FF329143084321688860FF
:101C7000D4E9050108432168C96821F0FF01084340
:101C80002168C8602068006840F001002168086091
:101C900000202064202084F83D000020206384F888
:101CA0003E0000BF24E70000A086010080841E00E3
:101CB00000093D0040420F002DE9FC5F04460F463D
:101CC00090469946DDE90CAB0E9EFFF707FF0546EF
:101CD00094F83D0020287DD1192301224D4920464A
:101CE000009501F0BEFC10B10220BDE8FC9F00BFD2
:101CF00094F83C00012801D10220F6E7012084F885
:101D00003C0000BF2068006800F0010028B920688E
:101D1000006840F00100216808602068006820F435
:101D2000006021680860212084F83D00402084F88C
:101D30003E0000202064C4F824A0A4F82AB0608DDE
:101D400020853548E0624B46424639462046CDE97B
:101D5000006501F0E3FB08B10120C6E731E02A4647
:101D60003146204601F059FD50B1206C042805D1C0
:101D70002068006840F40070216808600120B4E722
:101D8000606A007821680861606A401C6062208D8A
:101D9000401E2085608D401E608520684069C0F32C
:101DA000800070B1208D60B1606A007821680861A0
:101DB000606A401C6062208D401E2085608D401E40
:101DC0006085208D0028CAD12A463146204601F080
:101DD00015FC00E01CE050B1206C042805D12068FF
:101DE000006840F400702168086001207DE72068E9
:101DF000006840F4007021680860202084F83D00ED
:101E0000002084F83E0000BF84F83C0000BF6CE76F
:101E100002206AE7020010000000FFFF10B586B044
:101E20000446142101A8FEF797FA1B49206888424E
:101E300030D100BF002000901848006840F0020038
:101E4000164908600846006800F00200009000BFD4
:101E500000BF4FF4407001901220029000200390C8
:101E6000022004900420059001A90D48FFF72CFDE5
:101E700000BF0020009009481030006840F40010B6
:101E80000649103108600846006800F40010009010
:101E900000BF00BF06B010BD005400403038024003
:101EA00000040240034800680349097808440149D6
:101EB00008607047300000203800002010B50D4841
:101EC000006840F400700B4908600846006840F460
:101ED000806008600846006840F480700860032055
:101EE00000F0DAF80F2000F007F800F05FF80020AB
:101EF00010BD0000003C02402DE9F04188B00446CE
:101F00000027B84600BF002001902348006840F039
:101F10002000214908600846006800F02000019078
:101F200000BF00BF02A903A800F08CF9069F1FB9EB
:101F300000F0B0F9054602E000F0ACF945001748A2
:101F4000B5FBF0F0A0F1010815481649086040F211
:101F5000E7311448C160C0F804800021016181604C
:101F6000816100F05FFC064696B90E4800F08EFCD9
:101F700006466EB9372000F03DF8102C07D200223B
:101F80002146372000F04AF80748046000E00126A7
:101F9000304608B0BDE8F0814038024040420F00B2
:101FA00000140040880300203400002008B500BF62
:101FB000002000900E48006840F480400C49086002
:101FC0000846006800F48040009000BF00BF00BFDA
:101FD00000200090081F006840F08050091F086032
:101FE0000846006800F08050009000BF00BF08BDA8
:101FF000443802400146084600280DDB00BF00BF00
:1020000000F01F0301229A4043099B0003F1E023E3
:10201000C3F8002100BF00BF00BF70472DE9F05F8B
:1020200080460D461646002705F00EFE0746394647
:102030002A46334601F00700C0F1070ABAF1040F3F
:1020400002D94FF0040A01E0C0F1070AD14600F1BD
:10205000040ABAF1070F02D24FF0000A01E0A0F122
:10206000030AD4464FF0010A0AFA09FAAAF1010A52
:102070000AEA020A0AFA0CFA4FF0010B0BFA0CFBFF
:10208000ABF1010B0BEA030B4AEA0B042146404675
:1020900005F0E2FDBDE8F09F00BF00F00702064B2F
:1020A00019684FF6FF031940044B0B4343EA022122
:1020B000014B196000BF70470CED00E00000FA050D
:1020C00070B504460D460CB9012070BD5848006833
:1020D00000F00700A84209D255490D700846006873
:1020E00000F00700A84201D00120EEE7207800F0C0
:1020F000020002281DD1207800F00400042805D138
:102100004C48006840F4E0504A490860207800F0EC
:102110000800082805D14748006840F46040454958
:1021200008604448006820F0F000A1680843414975
:102130000860207800F00100A8B36068012807D18A
:102140003C4808380068C0F34040B8B90120BCE7FB
:102150006068022802D06068032807D13548083833
:102160000068C0F3406048B90120AEE73148083844
:102170000068C0F3400008B90120A6E72D480068B8
:1021800020F00300616808432A490860FFF7A6FCB5
:10219000064609E0FFF7A2FC801B41F28831884225
:1021A00002D9032091E707E02248006800F00C0004
:1021B0006168B0EB810FEDD11D48006800F00700A9
:1021C000A84209D91A490D700846006800F00700B6
:1021D000A84201D0012078E7207800F0040004280C
:1021E00007D11448006820F4E050E1680843114921
:1021F0000860207800F00800082808D10D48006821
:1022000020F46040216940EAC1000A49086000F0FA
:1022100061F808490968C1F30311074A515CC840D5
:102220000649086006480068FFF766FE00204CE794
:10223000003C0240083802409C9100083C0000200D
:10224000340000200F2202600D4A126802F00302DF
:1022500042600B4A126802F0F0028260084A12687B
:1022600002F4E052C260064A126802F46042D208E8
:102270000261044A126802F007020A607047000017
:1022800008380240003C02400148006870470000E6
:102290003C00002000B5FFF7F7FF04490968C1F3CF
:1022A0008221034A515CC84000BD0000083802404A
:1022B000AC91000800B5FFF7E7FF04490968C1F3D6
:1022C0004231034A515CC84000BD0000083802405A
:1022D000AC9100082DE9F047002400250026A14616
:1022E0002548006800F00C0020B1042805D008281B
:1022F0003AD105E0DFF8849039E0DFF8849036E0E9
:102300001D48001F006800F03F041B48001F0068C4
:1023100000F4800078B11A481749091F0968C1F311
:102320008811A0FB01700146224600233846FDF7C4
:10233000C9FF05460EE011480F49091F0968C1F39E
:102340008811A0FB01700146224600233846FDF7A4
:10235000B9FF05460848001F0068C0F30140401C53
:102360004600B5FBF6F902E0DFF8109000BF00BFB1
:102370004846BDE8F0870000083802400024F40019
:1023800000127A00F8B504460CB90120F8BD207897
:1023900000F00100002874D0F948006800F00C003B
:1023A00004280DD0F648006800F00C00082813D16E
:1023B000F348001F006800F48000B0F5800F0BD1D7
:1023C000EF4808380068C0F34040002859D06068E2
:1023D000002856D10120D9E700BF6068B0F5803FE2
:1023E00008D1E7480838006840F48030E4490839EB
:1023F00008601EE06068B0F5A02F0DD1E0480838F5
:10240000006840F48020DE4908390860084600680A
:1024100040F4803008600CE0D9480838006820F4A7
:102420008030D749083908600846006820F48020C9
:10243000086000BF606890B1FFF750FB054606E0FA
:10244000FFF74CFB401B642801D903209EE7CC48D2
:1024500008380068C0F340400028F1D011E0FFF7D1
:102460003DFB054606E0FFF739FB401B642801D918
:1024700003208BE7C24808380068C0F340400028BA
:10248000F1D1207800F0020002285FD1BC4800683A
:1024900000F00C0058B1BA48006800F00C000828A1
:1024A0001CD1B748001F006800F48000B0B9B448E0
:1024B00008380068C0F3400020B1E068012801D06E
:1024C000012063E7AE480838006820F0F800216971
:1024D00040EAC100AA490839086037E0E06800B363
:1024E0000120A8490860FFF7F9FA054606E0FFF762
:1024F000F5FA401B022801D9032047E7A048083815
:102500000068C0F340000028F1D09D4808380068FA
:1025100020F0F800216940EAC100994908390860B3
:1025200014E0002097490860FFF7D8FA054606E056
:10253000FFF7D4FA401B022801D9032026E7904870
:1025400008380068C0F340000028F1D1207800F07E
:10255000080008282CD16069A8B101208A490860C8
:10256000FFF7BCFA054606E0FFF7B8FA401B022861
:1025700001D903200AE782486C300068C0F34000AC
:102580000028F1D014E000207F490860FFF7A6FA88
:10259000054606E0FFF7A2FA401B022801D90320F6
:1025A000F4E677486C300068C0F340000028F1D1B1
:1025B000207800F00400042870D1002770483830DB
:1025C000006800F0805090B900BF002000906C4877
:1025D0003830006840F0805069493831086008465A
:1025E000006800F08050009000BF00BF01276748DE
:1025F000006800F48070B0B96448006840F48070EE
:1026000062490860FFF76AFA054606E0FFF766FAD6
:10261000401B022801D90320B8E65C48006800F49A
:1026200080700028F2D000BFA068012808D154486B
:102630006830006840F001005149683108601DE0D1
:10264000A06805280DD14E486830006840F00400AD
:102650004B49683108600846006840F00100086096
:102660000CE047486830006820F0010044496831B8
:1026700008600846006820F00400086000BFA068F9
:10268000A8B1FFF72BFA054609E0FFF727FA401B30
:1026900041F28831884202D9032077E626E03848A3
:1026A00068300068C0F340000028EED013E0FFF768
:1026B00015FA054608E0FFF711FA401B41F2883190
:1026C000884201D9032061E62D4868300068C0F3D4
:1026D00040000028EFD1012F07D129483830006889
:1026E00020F0805026493831086000BFA0690028DA
:1026F00045D02348006800F00C0008285DD0A06990
:10270000022845D100201F490866FFF7E7F9054672
:1027100006E0FFF7E3F9401B022801D9032035E664
:10272000174808380068C0F340600028F1D1D4E9A8
:1027300007010843616A40EA81110122A06AC2EBE5
:10274000500041EA00412C20005D41EA00600C4944
:10275000091F086001200B490866FFF7BFF905460D
:1027600006E0FFF7BBF9401B022801D903200DE664
:10277000034808380068C0F340600028F1D049E001
:102780000838024000004742800E47420070004077
:10279000002021490866FFF7A1F9054606E0FFF78A
:1027A0009DF9401B022801D90320EFE51B48006872
:1027B000C0F340600028F2D12CE0A069012800D1CC
:1027C000E4E51648001D0668A069012820D006F43B
:1027D0008001E06981421BD106F03F01206A8142FD
:1027E00016D147F6C0703040616AB0EB811F0FD13F
:1027F00006F440310122A06AC2EB5000B1EB004F59
:1028000006D106F070612C20005DB1EB006F01D0A5
:102810000120BBE50020B9E5000047420038024036
:102820007047704710B504460CB9012010BD94F8EC
:102830003D0028B9002084F83C00204600F025F82F
:10284000022084F83D00211D206804F091FD012044
:1028500084F8460000BF84F83E0001213F20015566
:10286000402001554120015500BF00BF012084F8E0
:10287000420043200155442001554520015500BF29
:10288000012084F83D000020D0E77047014691F810
:102890003D00012801D001207047022081F83D0051
:1028A0000868C06840F001000B68D8601A4B0868DF
:1028B00098421BD00868B0F1804F17D0174B0868BA
:1028C000984213D0164B086898420FD0154B0868F1
:1028D00098420BD0144B0868984207D0134B0868F5
:1028E000984203D0124B086898420CD1086880685F
:1028F00000F00702062A0CD00868006840F00100CA
:102900000B68186005E00868006840F001000B687B
:1029100018600020C0E700000000014000040040F3
:1029200000080040000C004000040140004001404D
:1029300000180040704770B504462068C5682068DC
:10294000066906F00200022819D105F002000228EB
:1029500015D1401F21680861012020772068806917
:1029600000F0030018B12046FFF7E4FF05E0204621
:1029700000F097F8204600F095F80020207706F048
:102980000400042819D105F00400042815D1C0431F
:1029900021680861022020772068806900F4407077
:1029A00018B12046FFF7C6FF05E0204600F079F891
:1029B000204600F077F80020207706F0080008286D
:1029C00019D105F00800082815D1C0432168086115
:1029D000042020772068C06900F0030018B1204669
:1029E000FFF7A8FF05E0204600F05BF8204600F066
:1029F00059F80020207706F01000102819D105F0B2
:102A00001000102815D1C0432168086108202077E4
:102A10002068C06900F4407018B12046FFF78AFFB3
:102A200005E0204600F03DF8204600F03BF800208D
:102A3000207706F0010048B105F0010030B16FF0D9
:102A4000010021680861204600F02EF806F08000A1
:102A5000802809D105F08000802805D1C043216875
:102A600008612046FFF7DCFE06F04000402809D14F
:102A700005F04000402805D1C04321680861204688
:102A800000F01EF806F02000202809D105F02000F3
:102A9000202805D1C043216808612046FFF7C1FE08
:102AA00070BD70477047000010B5044603492068A8
:102AB000884201D1FFF7F6F910BD00000014004074
:102AC00070477047704700002DE9F84F04462068B2
:102AD00005682068C668206847694FF00009CA4643
:102AE00005F00F09B9F1000F0AD105F0200038B147
:102AF00006F0200020B1204604F02BFEBDE8F88F40
:102B0000B9F1000F7CD007F0010018B906F49070FD
:102B1000002875D005F0010030B106F4807018B1BE
:102B2000606C40F00100606405F0040030B107F013
:102B3000010018B1606C40F00200606405F0020012
:102B400030B107F0010018B1606C40F0040060641F
:102B500005F0080048B106F0200010B907F00100A8
:102B600018B1606C40F008006064606C002846D0CA
:102B700005F0200028B106F0200010B1204604F036
:102B8000E8FD20684069C0F3801A606C00F008001E
:102B900010B9BAF1000F2DD0204604F094FD206842
:102BA000406900F04000402820D100BF00BF2168EC
:102BB000143151E8001F21F040002168143141E830
:102BC0000002002AF3D100BFE06B50B17F48E16BF7
:102BD0000865E06BFEF7B9FC88B1E06B016D8847D2
:102BE0000DE02046FFF76EFF09E009E02046FFF701
:102BF00069FF04E02046FFF765FF002060647DE781
:102C0000206B012878D105F01000002874D006F060
:102C100010000028FAD000BF002000902068006853
:102C2000009020684068009000BF00BF20684069A5
:102C300000F04000402870D1E06B006840681FFA47
:102C400080F8B8F1000F58D0A08D404555DDA4F8AC
:102C50002E80E06BC069B0F5807F43D000BF00BF1D
:102C600021680C3151E8001F21F4807021680C317B
:102C700041E80002002AF3D100BF00BF00BF216875
:102C8000143151E8001F21F001002168143141E89E
:102C90000002002AF3D100BF00BF00BF2168143139
:102CA00051E8001F21F040002168143141E8000282
:102CB000002AF3D100BF202084F8420000202063C6
:102CC00000BF00BF21680C3151E8001F21F0100047
:102CD00021680C3141E80002002AF3D100BFE06B0B
:102CE000FEF7DDFB02206063A08DE28D801A81B2C9
:102CF0002046FFF7E6FE0EE052E0A08D40450AD1E7
:102D0000E06BC069B0F5807F05D102206063A18DC2
:102D10002046FFF7D6FEF1E6FFE7A08DE18D401AD1
:102D20001FFA80F8E08DD0B3B8F1000F37D000BFA4
:102D300000BF21680C3151E8001F21F49070216818
:102D40000C3141E80002002AF3D100BF00BF00BFF0
:102D50002168143151E8001F21F00100216814316D
:102D600041E80002002AF3D100BF202084F842008D
:102D70000020206300BF00BF21680C3151E8001F14
:102D800021F0100021680C3141E80002002AF3D143
:102D900000BF0220606341462046FFF792FEADE689
:102DA00005F0800030B106F0800018B1204604F034
:102DB00085FEA3E605F0400030B106F0400018B1F2
:102DC000204604F0B6FC99E600BF97E6B576000809
:102DD00010B504460CB9012010BDA06900B100E097
:102DE00000BF94F8410028B9002084F84000204634
:102DF00000F02AF8242084F841002068C06820F4FC
:102E000000502168C860204604F022FD2068006957
:102E100020F49040216808612068406920F02A0071
:102E2000216848612068C06840F400502168C8608B
:102E300000206064202084F8410084F842000020D3
:102E4000606300BFC8E7000010B586B004461421D7
:102E500001A8FDF781FA7849206888424ED100BF69
:102E6000002000907548006840F010007349086029
:102E70000846006800F01000009000BF00BF00BFCF
:102E8000002000906D481438006840F001006B4944
:102E9000143908600846006800F00100009000BF87
:102EA00000BF4FF4C0600190022002900020039008
:102EB000032004900720059001A96148FEF704FD56
:102EC0006048614908604FF00060486040215E48FA
:102ED00081600021C1604FF4806101610021416186
:102EE0008161C16101624162FEF764FC08B1FEF7D5
:102EF000D3FA00BF5448A06384639BE05349206821
:102F000088423AD100BF002000904C48001F006862
:102F100040F400304949091F08600846006800F481
:102F20000030009000BF00BF00BF00200090434869
:102F30001438006840F00100404914390860084620
:102F4000006800F00100009000BF00BF0C2001905D
:102F50000220029000200390032004900720059097
:102F600001A93748FEF7B0FC002211462620FFF7E2
:102F700055F82620FFF73EF85CE035492068884286
:102F800058D100BF002000902C48001F006840F47A
:102F900080202A49091F08600846006800F4802044
:102FA000009000BF00BF00BF0020009023481438ED
:102FB000006840F0020021491439086008460068A2
:102FC00000F00200009000BF00BF4FF4406001908D
:102FD0000220029000200390032004900720059017
:102FE00001A91C48FEF770FC1B481C4908604FF003
:102FF000006048604021194881600021C1604FF4A1
:1030000080610161002141618161C16101624162B0
:10301000FEF7D0FB08B1FEF73FFA00BF0F48A063F0
:10302000846300BF002211462720FEF7F7FF272008
:10303000FEF7E0FF06B010BD00100140443802402A
:1030400000000240B8640240C80200200044004072
:10305000004800400004024058600240280300205D
:1030600070B504460D46164694F8420020280BD150
:1030700005B10EB9012070BD0020206332462946FB
:10308000204604F0FBFCF6E70220F4E710B5044606
:103090000E4884420BD10E480078FEF7D1F900208B
:1030A0000B49087001220948FFF7DAFF0CE00949D3
:1030B0002068884208D10848007801F055FC0122B8
:1030C00005490648FFF7CCFF10BD00008002002034
:1030D0007F010020004400408101002038020020D0
:1030E0002DE9F84F04460E46174699464FF0000A60
:1030F00094F84100202850D106B117B90120BDE84D
:10310000F88F00206064212084F84100FEF7E6FC7F
:103110008246A784E784A068B0F5805F04D1206967
:1031200010B90025B04602E035464FF000081EE019
:103130005346002280212046CDF8009004F0EEFC9A
:1031400020B1202084F841000320D8E745B9B8F821
:103150000000C0F308002168486008F1020803E09D
:103160002878216848606D1CE08C401EE084E08C6B
:103170000028DDD15346002240212046CDF80090A2
:1031800004F0CCFC20B1202084F841000320B6E7F5
:10319000202084F841000020B1E70220AFE770470B
:1031A00010B500F039F8084800F09AF804464CB120
:1031B00000BF022001F0BAFF10B904A004F006FD20
:1031C00000BF10BD00BFFCE7437100085469636B8A
:1031D000207374617274206661696C6564210A00F1
:1031E000BFF34F8F30BFBFF36F8F0020704770B5B4
:1031F0000446FDF712F806464FF0E02040692060D3
:103200004FF0E02120688969451A3046FDF70DF836
:103210002846002170BD0000072002460E4B1968A9
:103220004FF6FF0319400D4B0B4343EA02210A4BB3
:10323000196000BF08481830006840F4E0200649D3
:103240001831086004480830006840F01000024956
:1032500008310860704700000CED00E00000FA053E
:103260000348006808B1012070470020FCE7000017
:103270001801002010B5FCF7D0FF03F015FAFCF799
:10328000A1FF002010BDFCF7C8FF00BFFEE7000053
:1032900030B502460B464FF0E020006920F00100F7
:1032A0004FF0E0210861501E48614FF00000886136
:1032B0004FF0FF30002807DB00F01F040121A14080
:1032C000064C450944F8251000BF4FF0E020006986
:1032D00040F001004FF0E021086130BD80E200E0E5
:1032E000F0B504461848194908601948194908609A
:1032F0004FF08071481EB0F1807F01D301201BE0A8
:10330000481E4FF0E022506150170F22002804DBC6
:1033100015072E0E104D2E5406E015072F0E0F4DDB
:1033200000F00F06361FAF5500BF00204FF0E0221F
:1033300090610720106100200346012B01D108484D
:10334000F0BD0020FCE70000007A030A0C01002019
:1033500080A219000801002000E400E018ED00E060
:10336000020400022DE9F04107460E4615460024EE
:103370003346CA223146284605F00DFA8046B8F198
:10338000000F04D05E22494949A004F01FFC4FF011
:10339000CC302860A819A0F1CC044C482060401C17
:1033A0006060401CA060401CE060401C2061401C2C
:1033B0006061401CA061401CE061401C2062401C18
:1033C0006062401CA062401CE062401C2063401C04
:1033D0006063401CA063401CE0634FF02A40C4F8C7
:1033E0008400401CC4F88800401CC4F88C00401CB9
:1033F000C4F89000401CC4F89400401CC4F8980025
:10340000401CC4F89C00401CC4F8A000401CC4F838
:10341000A400401CC4F8A800401CC4F8AC00401C28
:10342000C4F8B000401CC4F8B400401CC4F8B80094
:10343000401CC4F8BC00401CC4F8C0000020C4F804
:10344000C4002248401CC4F8C8004FF00430206477
:103450004FF0053060644FF00630A0644FF0073045
:10346000E0644FF0083020654FF0093060654FF0A0
:103470001030A0654FF01130E065002020666766CF
:103480004FF00130A0664000E0664FF00330206747
:103490004FF0123060670E48A0670E48E0674FF0AB
:1034A0008070C4F880002046BDE8F0817592000865
:1034B0006D656D7365745F73206973206661696CF7
:1034C00065643A25735B25645D0D0A00100000AA4F
:1034D00087320008716F000800BFFEE701460868E8
:1034E0004069C0F38020B0B16FF480600A68506119
:1034F00000200863202081F83D00002081F83E0074
:10350000086C40F00400086400BF002081F83C0013
:1035100000BF012070470020FCE700002DE9F843C0
:103520000446884615469946DDE908672068006824
:1035300040F4807021680860334600224FF001118A
:103540002046009700F08DF860B12068006800F414
:103550008070B0F5807F02D14FF4007020640320AA
:10356000BDE8F88308F0FE00216808613B4632465A
:103570002149204600F0D4F808B10120F0E700BF4F
:1035800000200090206840690090206880690090C9
:1035900000BF00BF3A463146204600F03EF950B128
:1035A000206C042805D12068006840F40070216870
:1035B00008600120D4E7B9F1010F03D1E8B2216816
:1035C000086117E0C5F30720216808613A463146D3
:1035D000204600F022F950B1206C042805D1206863
:1035E000006840F40070216808600120B8E7E8B284
:1035F000216808610020B3E70200010070B50446AD
:103600000D46164625E02046FFF768FF08B1012069
:1036100070BD681CE8B1FEF761FA801BA84200D8B3
:10362000BDB920684069C0F3800090B900202063D4
:10363000202084F83D00002084F83E00206C40F0FB
:103640002000206400BF002084F83C0000BF01205F
:10365000DEE720684069C0F380000028D3D0002056
:10366000D6E72DE9F04104460D4617461E46DDF823
:10367000188038E0701CA8B3FEF730FAA0EB080001
:10368000B04200D876BBC5F3074001280AD12068B4
:103690004069A9B20840A9B2884201D101200BE0DB
:1036A000002009E020688069A9B20840A9B28842D8
:1036B00001D1012000E00020B84214D10020206395
:1036C000202084F83D00002084F83E00206C40F06B
:1036D0002000206400BF002084F83C0000BF0120CF
:1036E000BDE8F081FFE7C5F3074001280AD1206853
:1036F0004069A9B20840A9B2884201D101200BE07B
:10370000002009E020688069A9B20840A9B2884277
:1037100001D1012000E00020B842ABD00020DFE75B
:103720002DE9F04104460D4616461F4658E0206834
:103730004069C0F38020E8B12068006840F4007060
:10374000216808606FF48060216848610020206370
:10375000202084F83D00002084F83E00206C40F0DA
:103760000400206400BF002084F83C0000BF01205A
:10377000BDE8F081701C90B3FEF7B0F9C01BB042F9
:1037800000D866BBC5F3074001280AD1206840690C
:10379000A9B20840A9B2884201D101200BE0002063
:1037A00009E020688069A9B20840A9B2884201D125
:1037B000012000E0002090B900202063202084F840
:1037C0003D00002084F83E00206C40F02000206482
:1037D00000BF002084F83C0000BF0120C8E7FFE7DD
:1037E000C5F3074001280AD120684069A9B2084002
:1037F000A9B2884201D101200BE0002009E0206835
:103800008069A9B20840A9B2884201D1012000E034
:10381000002000288BD00020AAE770B504460D4692
:10382000164625E02046FFF759FE08B1012070BD7D
:10383000681CE8B1FEF752F9801BA84200D8BDB958
:1038400020684069C0F3C01090B900202063202098
:1038500084F83D00002084F83E00206C40F02000F9
:10386000206400BF002084F83C0000BF0120DEE798
:1038700020684069C0F3C0100028D3D00020D6E7EC
:103880000246481E1044904201D9481E00E0002024
:1038900010444B1E984370470448006808B9044818
:1038A000704702480068006BFAE70000D000002073
:1038B0000702000270B504460CB90C4870BDFCF755
:1038C000ACFC0546201D00F0F9F828B92846FCF7A5
:1038D000ACFC0648801CF1E70021A160002060607C
:1038E0002846FCF7A2FC0020E8E70000061C0002C6
:1038F000014609B90448704700200860081D40606F
:10390000006000BF0020F6E7061C000210B500BFF3
:10391000012001F00BFC10B92CA004F057F900BFF6
:1039200002F0AEFD02F0CAFA04465CB100BF02200C
:1039300001F0FCFB18B921462BA004F047F900BFA9
:10394000204610BDFFF72CFC03F03EFB044654B1AB
:1039500000BF022001F0EAFB10B92AA004F036F9FA
:1039600000BF2046EDE703F041F904460CB12046C4
:10397000E7E702F0E1FA04460CB12046E1E702F085
:1039800001FC044654B100BF022001F0CFFB10B986
:1039900021A004F01BF900BF2046D2E703F068F92C
:1039A000044654B100BF022001F0C0FB10B91FA0B3
:1039B00004F00CF900BF2046C3E701F085FB044684
:1039C0000CB12046BDE70020BBE70000656E7465C2
:1039D00072696E67206B65726E656C20696E6974C2
:1039E0002E2E2E0A000000004F734D656D53797323
:1039F00074656D496E6974206572726F72202564FA
:103A00000A0000004F735461736B496E697420653E
:103A100072726F720A0000004F73517565756549C7
:103A20006E6974206572726F720A00004F7353776B
:103A3000746D72496E6974206572726F720A00004B
:103A400042684A600860426811604160704742689D
:103A50004A600860426811604160704742684A608D
:103A60000860426811604160704742684A600860BF
:103A7000426811604160704742684A60086042686D
:103A800011604160704742684A6008604268116096
:103A900041607047D0E900121160D0E90021516007
:103AA0000021416001607047D0E900121160D0E947
:103AB0000021516000214160016070470146486863
:103AC000884201D1012070470020FCE70146486888
:103AD000884201D1012070470020FCE70146486878
:103AE000884201D1012070470020FCE70146486868
:103AF000884201D1012070470020FCE70146486858
:103B0000884201D1012070470020FCE70146486847
:103B1000884201D1012070470020FCE7406000602E
:103B200070474060006070474060006070474060D0
:103B30000060704770B504460D4629462068FFF7BF
:103B40008DFF70BD70B504460D4629462068FFF70D
:103B50009AFF70BD70B50446601C10B94FF0FF307D
:103B600070BD6420A4FB005001464FF47A7200231C
:103B70002846FCF7A7FBF3E72DE9F04106460C4683
:103B800006B114B90020BDE8F081082C00D2082449
:103B900035464FF00008002700BF287A00F00200E9
:103BA00010B9FCF73AFB074600BF00BF04F0004025
:103BB00010B904F0804000B106E03A46214628469C
:103BC00001F020FB804600BF00BF00BF287A00F054
:103BD000020010B93846FCF728FB00BF4046D2E788
:103BE0002DE9FC5F81460E461446B9F1000F07D05F
:103BF00036B12CB1601E204010B904F0030010B1A2
:103C00000020BDE8FC9F082E00D20826201FC6F128
:103C1000FF31884201D90020F3E73019A0F10408F0
:103C200008F0004010B908F0804008B10020E8E733
:103C3000CA46002000900025002700BF9AF808001F
:103C400000F0020010B9FCF7E8FA009000BF00BFD6
:103C500041464846009A01F0D5FA05462819401E0B
:103C6000611E20EA0107BD4200D112E0781B0190DD
:103C7000A5F1080BDBF8040040F08040CBF804000D
:103C8000019840F080400190019847F8040C3D46AF
:103C900000BF00BF00BF9AF8080000F0020010B992
:103CA0000098FCF7C2FA00BF2846AAE72DE9F047C2
:103CB00005460C4635B12CB105F0030010B904F0EF
:103CC000030010B10120BDE8F08701272E464FF018
:103CD00000084FF0000900BF307A00F0020010B970
:103CE000FCF79BFA814600BF00BF2146284601F041
:103CF00023F9044604B907E0A4F108084146304618
:103D000001F002FC074600BF00BF00BF307A00F0A0
:103D1000020010B94846FCF788FA00BF3846D2E7DF
:103D20002DE9F04106460C46354600275CB900BF38
:103D3000022001F0FBF910B91CA003F047FF00BFFF
:103D40000120BDE8F08116B12868B0420DD000BF57
:103D5000022001F0EBF928B940F2627229461CA05A
:103D600003F034FF00BF0120EBE7182300221946BF
:103D7000204604F010FD22461E49304600F02AFF7E
:103D800000BF287A00F0020010B9FCF746FA074697
:103D900000BFE868606100BF287A00F0020010B937
:103DA0003846FCF742FA00BF0020CAE763616E277D
:103DB0007420757365204E554C4C206164647220EC
:103DC000746F207361766520696E666F0A0000006B
:103DD00077726F6E67206D656D20706F6F6C2061FC
:103DE0006464723A20307825782C206C696E653ACC
:103DF00025640A00315B000870B504460D4614B115
:103E0000B5F56E7F02D84FF0FF3070BD04F00300AF
:103E100010B905F0030070B100BF022001F086F96F
:103E200028B904232A4621460D4803F0CFFE00BFDF
:103E30004FF0FF30E9E72946204601F0AFFF10B10F
:103E40004FF0FF30E1E72946204601F07BFE28B124
:103E5000204601F0D3FE4FF0FF30D6E70020D4E734
:103E6000BC9300087CB506460EB901207CBD3446E3
:103E7000002001900090002500BF207A00F0020091
:103E800010B9FCF7CAF9054600BF6A4601A92046E9
:103E900001F0AEFC00B10AE000BF207A00F00200A1
:103EA00010B92846FCF7C1F900BF0020DEE72B4619
:103EB0002046DDE9002101F0C7FC0146002209B9D6
:103EC00001207047486802441046FAE770B505467D
:103ED000FFF7C6F900B170BD0DB9002405E0284612
:103EE000FFF738FE044604B90124204600F0A4F987
:103EF00000BFF0E70FB408B503A8009000BF022090
:103F000001F014F918B90099029803F05FFE00BFA0
:103F100000200090FFF7B7F92DE9F05F0E46174635
:103F2000DDF8288000240025A14617B93048BDE8F7
:103F3000F09F4FF6FB70804502D92D480938F6E70F
:103F400016B1B8F1000F02D12948401CEFE708F183
:103F500004001FFA80FA06FB0AF126480068FFF702
:103F60000BFE8146B9F1000F02D121480A38DEE785
:103F7000FCF753F983462048FFF7A8FD50B1584697
:103F8000FCF753F949461B480068FFF78FFE1848B5
:103F90000838CCE71848456800BFD5E9000108603B
:103FA000D5E90010486000206860286000BFA5F1D6
:103FB0001C04E680A4F808A0C4F800900120A080AA
:103FC000002020826682A081E08104F11400FFF7C6
:103FD000A8FD04F11C00FFF7A4FD04F12400FFF785
:103FE000A0FD5846FCF721F96089386000209EE763
:103FF0000C06000210010020500000202DE9F843BB
:1040000081460C4615461E4633462A4621464846FA
:1040100002F0B2F9074617B13846BDE8F8834FF011
:1040200000082B46224641464846009602F0E6F834
:10403000F3E72DE9FF4182B080460C461D462B4632
:1040400004AA2146404602F0B7F906461EB13046A2
:1040500006B0BDE8F081032704AB2246394640464E
:10406000009502F0CBF8F3E770B500241F48006814
:1040700000B970BDFCF7D1F8054600F08FFE1C4A70
:1040800003C21C480068401C98B91B480088401CAB
:10409000194908801948006818B118480068804715
:1040A000044602F039FA044313480088401E1249BE
:1040B00008806FF001014810114AC2E900102CB1CC
:1040C0001048008810B9FCF7B3F80AE00E490868F8
:1040D00007490CC903F03CF80122054903C902F065
:1040E0002BFD2846FCF7A1F800BFC2E7F80000202E
:1040F00070000020640000206800002058000020AC
:1041000078000020D8000020D000002010B504481E
:10411000006820B10348008808B9FCF789F810BD91
:10412000F8000020D800002010B5FFF7A3F810BD5C
:104130002DE9F04104460E4600273146204600F0A6
:104140001FF8054615B12846BDE8F0810A492068E8
:10415000096801EBC017FCF760F88046384602F0AA
:104160002BFB4046FCF761F80448006808B1FFF7F4
:10417000CDFF0020E8E70000CC000020F800002080
:104180002DE9F04705460E464FF00008002715B907
:104190002548BDE8F087304602F07CFF04460CB1AC
:1041A0002046F6E702F040F9FCF737F881461F4851
:1041B000FFF7ACFC18B11C4C0A3400BF2EE01B48C2
:1041C0004068A0F1480719494868FFF76DFC484668
:1041D000FCF72BF808221648F1680068FFF700FD8D
:1041E0008046B8F1000F0CD1FCF717F8814607F1B3
:1041F00048010E48FFF747FC4846FCF716F80D4803
:10420000C7E742463146384601F0C8FE04460CB1C5
:104210002046BEE7386B28602046BAE74846FCF7E0
:1042200004F82046B5E7000007020002E80000207D
:10423000100100200002000370B50446FFF710F8DB
:1042400008B10D4870BD0D48008808B10C48F9E769
:1042500014B900F0CDF8F5E7FBF7DFFF0546094993
:104260000868214602F012F92846FBF7DEFFFFF747
:104270004DFF0020E6E700000D020003D8000020FB
:104280000E020002D0000020F8B505460020009084
:104290000024284600F006FD06460EB13046F8BD63
:1042A0003E48006800EBC514FBF7B7FF07462079CE
:1042B00000F0010020B13846FBF7B7FF3848EEE7C1
:1042C000A08800F4807028B13846FBF7AEFF344870
:1042D0001D30E4E7207900F0100070B1314800880B
:1042E00058B100BF042000F021FF10B92EA003F048
:1042F0006DFC00BF00202B490880204602F0E6FA42
:10430000204602F007FF04F16400FFF7D3FA4FF0F4
:10431000FF30606600202067207900F0100060B355
:10432000A08800F4807008BB0120A08000BF04F1C9
:1043300048012B48FFF706FC18480068294909681E
:1043400000EBC11028490860084600680563A08892
:1043500040F01000096888802349E06A0968C86253
:104360002149606C0968486400BF00BF3846FBF70C
:104370005CFFFFF7CBFE002091E7FFF78DFA206688
:104380006946204602F038F83846FBF74EFF1748DA
:1043900000990068FFF78AFC002080E7CC0000202D
:1043A0000A020002D8000020496E20636173652074
:1043B0006F66207461736B206C6F636B2C2074616B
:1043C000736B2064656C6574696F6E206973206E11
:1043D0006F74207265636F6D6D656E6465640A004D
:1043E000F0000020DC000020D000002010010020A0
:1043F00010B5FBF712FF044602F0F0FB2046FBF776
:1044000014FFFFF783FE002010BD000070B500BF51
:104410000C48D0E900104FF0FF3359405840014399
:1044200007D000F0EBFC074B0CCB801A61EB0301CB
:1044300001E0002001460446034A0023FBF742FF47
:1044400070BD00008800002080A2190010B5E4B003
:1044500013480078002821D000201249124A1288FF
:10446000885412A10F48FBF782FF044684B102A8CA
:1044700062A942AB63AACDE9001010A12046FBF768
:10448000A9FF042803D102A942A804F09FF900BFA4
:104490000020034908700449088000BF64B010BDC3
:1044A0007E010020E00401207C0100202B4D5154AE
:1044B00054535542524543563A0000002B4D515437
:1044C00054535542524543563A25642C255B5E2C85
:1044D0005D2C25642C255B5E0D0A5D0030B5C1B0F6
:1044E00004460D46234607A24FF4807101A80095AB
:1044F00003F07CFB40F6B83208A101A804F096F95D
:1045000041B030BD41542B4D5154545355423D3070
:104510002C222573222C25640D0A00004F4B00002D
:1045200008B500BF002000901648006840F48000E5
:10453000144908600846006800F48000009000BF3D
:1045400000BF00BF002000900846006840F4001043
:1045500008600846006800F40010009000BF00BF2B
:10456000002211460E20FDF759FD0E20FDF742FDF9
:10457000002211464620FDF751FD4620FDF73AFD89
:1045800008BD00003038024000B587B0142102A8F1
:10459000FBF7E2FE00BF002001902E48006840F0CB
:1045A00004002C4908600846006800F004000190EF
:1045B00000BF00BF00BF002001900846006840F027
:1045C000800008600846006800F08000019000BF8D
:1045D00000BF00BF002001900846006840F00100C5
:1045E00008600846006800F00100019000BF00BFAD
:1045F00000BF002001900846006840F002000860FB
:104600000846006800F00200019000BF00BF0122D0
:1046100003211148FDF75CFA002203210F48FDF742
:1046200057FA032002900120039004900020059087
:1046300002A90948FDF748F90320029001200390E0
:1046400000200490059002A90448FDF73DF907B049
:1046500000BD000030380240000802400000024067
:1046600010B50B480B4908600B4848600021094809
:104670008160C1604FF4804101610021416181612D
:10468000C1610162FDF730FA08B1FCF705FF10BD0A
:10469000005400409C010020A086010010B50B488A
:1046A0000B4908604FF4E130486000210848816000
:1046B000C16001610C21416100218161C161FEF78E
:1046C00087FB08B1FCF7E8FE10BD000000100140B8
:1046D000F001002010B50B480B4908604FF4E130A1
:1046E0004860002108488160C16001610C2141617E
:1046F00000218161C161FEF76BFB08B1FCF7CCFEC4
:1047000010BD0000004400403802002010B50B48E6
:104710000B4908604FF4E13048600021084881608F
:10472000C16001610C21416100218161C161FEF71D
:104730004FFB08B1FCF7B0FE10BD00000048004080
:104740008002002000BFFEE700BFFEE770B5002436
:1047500015E004F1B001C8B200F0DEF8002000F06E
:10476000DBF8102000F0D8F8002504E0002000F06D
:10477000E7F8681CC5B2802DF8DB601CC4B2082CB9
:10478000E7DB70BD10B5C820FDF78AF8002400BF34
:1047900005E00449085D00F0BFF8601CC4B2172CA6
:1047A000F7DB10BD0000002070B504460D4605F192
:1047B000B001C8B200F0B0F8102141EA141000F0C6
:1047C000ABF804F00F0000F0A7F870BD2DE9F0473A
:1047D00080460E4691469A46089F00250024A9F17E
:1047E0002000C5B2B8F17F0F02DDA046B01CC6B2F2
:1047F000BAF1100F37D131464046FFF7D5FF0024FC
:1048000011E047B104EB0511274A515CC943C8B216
:1048100000F096F805E004EB0511234A505C00F027
:104820008FF8601CC4B2082CEBDB701CC1B2404690
:10483000FFF7BAFF002413E04FB104EB0511083174
:10484000194A515CC943C8B200F07AF806E004EB9B
:1048500005110831144A505C00F072F8601CC4B2B3
:10486000082CE9DB1DE031464046FFF79DFF0024A0
:1048700015E057B105EB45010C4A02EB4101095D1A
:10488000C943C8B200F05CF807E005EB4501074AF0
:1048900002EB4101085D00F053F8601CC4B2062C25
:1048A000E7DBBDE8F0870000F48A0008CC88000848
:1048B0002DE9F84304460E4617461D46DDF82090C4
:1048C0004FF0000822E0CDF8009017F808202B46A2
:1048D00031462046FFF77AFF0C2D02D1A01DC4B24D
:1048E00002E004F10800C4B27A2C04DD0C2D02D1E0
:1048F0000024701CC6B2782C04DD102D02D10024D7
:10490000701CC6B208F1010000F0FF0817F808009B
:104910000028D8D1BDE8F88301B584B04FF4807089
:10492000012104AA0B46CDE9002102900022782142
:104930000248FDF7C1F905B000BD00009C01002050
:1049400001B584B04FF48070012104AA0B46CDE973
:1049500000210290402278210248FDF7ADF905B010
:1049600000BD00009C01002030B50146524A12787B
:1049700072B92C290CD101224F4B1A704F4A14786E
:104980001278521C4D4D2A704D4A22F8141092E0B4
:10499000494A1278012A0ED112290CD10222464B23
:1049A0001A70464A14781278521C444D2A70444AB0
:1049B00022F814107FE0404A1278022A4AD13F4A76
:1049C00014781278521C3D4D2A703D4A22F814107A
:1049D0002A4612780A2A01DA5B296CD10322364B67
:1049E0001A70364A1278121F354B13F81220354BC5
:1049F0001A70324A1278D21E314B13F81220324B01
:104A00001A702E4A1278921E2D4B13F812202F4B3B
:104A10001A702C4A12782E4B1A602B4A12782D4BA2
:104A20001A602A4A12782C4B1A602A4A1268502AB5
:104A300005DD284A1268A2F58072264B1A60264AC4
:104A40001268282A37DD244A1268A2F58072224BA8
:104A50001A6030E0184A1278032A1DD1174A1278DA
:104A6000521E174B33F812205B2A05D10022134B3C
:104A70001A70114B1A701EE000220F4B1A700F4B68
:104A80001A70002005E000220D4B23F81020421C74
:104A9000D0B20A28F7DB0EE00022074B1A70074B52
:104AA0001A70002005E00022054B23F81020421C5C
:104AB000D0B20A28F7DB30BD2D0000202C000020EA
:104AC0008801002018000020190000201A00002092
:104AD0001C00002020000020240000202DE9F047C9
:104AE000044616461F46DDE908854FF00009012DF2
:104AF00002D1DFF83C9008E0022D02D1DFF83490BB
:104B000003E029460CA0FFF7F5F9FBF786FB824688
:104B10001048A8FB001089197841C4E90210214609
:104B2000484600F019F85046FBF77FFBBDE8F087D8
:104B3000AC000020B4000020536F7274206C696ECA
:104B40006B2074797065206572726F72203A20252F
:104B5000750A000080A219002DE9F04180460C463C
:104B600045462846FEF7C2FF28B121462846FEF7F3
:104B700083FFBDE8F08168680646D4E90230D6E9D3
:104B80000212591A904104D221462846FEF774FFBA
:104B9000EFE7D6E90210D4E902235140584001431F
:104BA00004D121466868FEF767FFE2E72F6800BF7F
:104BB0003E46D4E90230D6E90212591A904104D394
:104BC00021463846FEF758FF01E03F68F0E700BF96
:104BD00000BFCEE72DE9F04704460F469046264633
:104BE0000025A946AA4654B900BF012000F09EFA4C
:104BF00010B91EA002F0EAFF00BFBDE8F087204612
:104C0000FFF730F948B100BF012000F08FFA10B96A
:104C10001CA002F0DBFF00BFEFE700BF307A00F01E
:104C2000020010B9FBF7F9FA824600BF7068204411
:104C3000A0F1080904F56C7509E04D4500D108E0C4
:104C400041462846B847686820F0404005444D4535
:104C5000F3D900BF00BF307A00F0020010B950460F
:104C6000FBF7E3FA00BF00BFC7E70000696E70758D
:104C70007420706172616D206973204E554C4C0A2E
:104C8000000000004C4F535F4D656D496E746567C1
:104C900072697479436865636B206572726F720A1A
:104CA0000000000001460020094A1268914201D12B
:104CB00008480CE0084A1268914202D105480D30BC
:104CC00005E0064A1268914201D302480D38704748
:104CD000E000002014020002E4000020DC000020BC
:104CE00000BFD1E900231A60D1E900325A600022E6
:104CF0004A600A6000BF531E8B60CB6070470000A3
:104D00002DE9F04104460D460026012D01D1114E3A
:104D100007E0022D01D1104E03E029460FA0FFF756
:104D2000E9F8FBF77AFA07464FF0FF33D4E90201BE
:104D300058405940084308D0D4E90221104601F0F8
:104D4000DBFB21463046FFF7CBFF3846FBF76DFA19
:104D5000BDE8F081AC000020B4000020536F7274F5
:104D6000206C696E6B2074797065206572726F7249
:104D7000203A2025750A000070B50446FBF74DFA6D
:104D800005460548006818B1204603490968884768
:104D90002846FBF74AFA70BD5401002010B50A48B6
:104DA000D0E900104FF0FF3359405840014307D07D
:104DB00000F024F8044B0CCB801A61EB030110BD0A
:104DC00000200146FBE700008800002010B50A48DB
:104DD000D0E900104FF0FF3359405840014307D04D
:104DE00000F00CF8044B0CCB801A61EB030110BDF2
:104DF00000200146FBE70000880000202DE9F84371
:104E000000200090FBF709FA80466846FEF7EFF9AC
:104E100006460F462148D0E900108C1940EB0705E3
:104E20001F4903C9201A75EB01000ED21B48D0E9B7
:104E300000310098181841F10001184A03C21748C0
:104E4000D0E900108C1940EB070500BF144903C9D5
:104E5000201A75EB010001D3012000E0002090B979
:104E60000120FFF789FFFBF7D8F900BF022000F00F
:104E70005DF928B90B4B81220BA112A002F0A6FE0E
:104E800000BF00BFFEE700BF054830C04046FBF74B
:104E9000CCF920462946BDE8F883000090000020A8
:104EA00098000020DF9100082E2E5C4C6974654F3D
:104EB000535F4D5C7372635C6C6F735F73636865A3
:104EC000642E6300415353455254204552524F5271
:104ED000212025732C2025642C2025730A00000036
:104EE0002DE9F84F04460D46DFF844A0DFF844B042
:104EF000FBF793F9009022462B46504600F090F8BD
:104F000006460F4622462B46584600F089F8804652
:104F100089460098FBF789F9B6EB080077EB0900A2
:104F200003D230463946BDE8F88F40464946FAE795
:104F3000AC000020B40000202DE9F04106460D46EB
:104F40002F4655F8044C04F0804090B104F0004026
:104F500078B100BF022000F0E9F830B9234640F2F2
:104F60000B52134913A002F031FE00BF0020BDE830
:104F7000F08104F08040C8B124F0804404F00300C4
:104F800020B9A5F10800801BA0420ED200BF02206C
:104F900000F0CCF830B9234640F21352044905A082
:104FA00002F014FE00BF0020E1E72F1B3846DEE7C9
:104FB000259200085B25733A25645D67617053692B
:104FC0007A653A30782578206572726F720A00002F
:104FD00010B50446012C01D1084810BD022C01D1A6
:104FE0000748FAE700BF022000F0A0F810B905A0BA
:104FF00002F0ECFD00BF0020EFE70000AC00002055
:10500000B4000020496E76616C696420736F72741D
:10501000206C696E6B2074797065210A00000000B5
:105020002DE9F047064614461D46B046D8F80490D0
:105030004046FEF75BFD18B10A484114BDE8F08711
:105040004F460949611845F10000D7E90223891A42
:10505000984104D30449601845F10001EEE7D7E90F
:105060000201EBE7CE13FEFF30EC010000200A4AFC
:10507000126852B1084A1268B2FA82F1074A02EB8A
:10508000C1025268A2F1480005E0054A1268054BCA
:105090001B6802EBC310704760000020D0030020A3
:1050A000CC000020E00000200AE001F0BDF9054836
:1050B000006818B103480068804701E0FEF790F8E7
:1050C000F3E70000FC00002010B586B01823002292
:1050D0001946684603F05FFB0E4800904FF4C0701D
:1050E00003900DA004901F20ADF8040069460D4800
:1050F000FFF746F8044614B1204606B010BD0A4931
:105100000968084A126801EBC21001F055FA002044
:10511000F3E70000A950000849646C65436F7265AD
:1051200030303000E0000020CC00002010B50446F4
:10513000022C01DD012010BD012C0FD0002C0DDD53
:10514000052C0BDC00BF0120FFF7F0FF28B9044855
:1051500050F8241003A002F039FD00BF0020EAE758
:105160003C0100205B25735D00000000024653688F
:1051700002F56C70884204D8D018884201D9012009
:1051800070470020FCE7000070B505460C4620681B
:105190008068A8B1206881682846FFF7E7FF78B9E2
:1051A00000BF0220FFF7C2FF38B9206840F20A6250
:1051B00011498368114802F009FD00BF012070BD4C
:1051C0002068C068A8B12068C1682846FFF7CEFFF4
:1051D00078B900BF0220FFF7A9FF38B920684FF463
:1051E000C2620549C368064802F0F0FC00BF012016
:1051F000E5E70020E3E7000032920008B0940008E1
:105200001C9400082DE9FC5F054688469146002461
:1052100008F10B0020F003062F46B24601976A46BC
:105220005146384600F0D8F88346BBF1000F01D153
:10523000002005E05A46DDE9001000F095FB5846D5
:105240000446002C34D100BF0220FFF76FFF10B9D5
:10525000244802F0BBFC00BF00BF287A00F0020027
:1052600010B94846FAF7E1FF00BF284600F07CFA83
:1052700000BF287A00F0020010B9FAF7CEFF81468D
:1052800000BF00BF0220FFF751FF20B93246164988
:1052900016A002F09BFC00BF00BF0220FFF746FFF4
:1052A00010B9104802F092FC00BF0020BDE8FC9F3E
:1052B00006F110006168814204D332462146284637
:1052C00000F0D6FD606840F000406060606820F04B
:1052D0004041284600F026FE00BF204600F10801AC
:1052E0000846E3E74C9300081A9200085B25735DBB
:1052F000204E6F207375697461626C6520667265FB
:105300006520626C6F636B2C2072657175697265C4
:105310002066726565206E6F64652073697A653AF0
:1053200020307825780A00002DE9F04705460C4624
:1053300005F56C7668682844A0F108090027B8468E
:1053400000BF00BF2B464A463146204600F0F0FA27
:1053500000B92BE0606800F0004000B926E060680A
:1053600020F0404007192B464A463146384600F0A7
:10537000DFFA00B91AE0002020B900BF3868A04267
:1053800000D013E0B4420ED02B464A463146206886
:1053900000F0CEFA30B12068416821F04041084465
:1053A000A04200D002E04FF0010800BF00BFB8F1FA
:1053B000000F02D10120BDE8F087B8F1000FC0D086
:1053C0000020F8E70146C843401C0140B1FA81F0D3
:1053D000C0F11F0080B270472DE9F74F84B08946B5
:1053E0009246049D484600F07BF80646DF2700BF42
:1053F0001F2E01D234460BE03146484600F004FD32
:105400008346A6F11F010BEBC10000F11F077C1CB6
:10541000A046019544464FEA5811019D05F114003C
:1054200050F82100009008F01F0101208840411E23
:10543000009888430090009840B10098FFF7C2FFA1
:1054400028F01F0100EB0108404600E0DF20039038
:105450000398DF2801D0039C3BE0601C20214A1EFA
:105460000244824201D94A1E00E0002202444B1E3F
:105470009A4314460DE0610905F1140050F821002B
:105480000290029820B10298FFF79CFF044420E0AC
:105490002034DF2CEFD300BFDF2F03D1002007B073
:1054A000BDE8F08FCAF8007029463A464B46002006
:1054B00001F1300C5CF8220006E0D0F804C09C45F5
:1054C00001D3844603E0C0680028F6D184466046D4
:1054D000E5E7CAF8004005F1300050F82400DEE7A7
:1054E0000146802903D20120C0EB91007047084695
:1054F00030B100BFB0FA80F2C2F11F0292B200E0F8
:10550000002202F11800F1E72DE9F04107460C46B0
:1055100021463846FFF708FF8046B8F1000F0BD050
:1055200000BF0220FFF702FE10B91AA002F04EFBE6
:1055300000BF4046BDE8F0813869616821F0404114
:10554000401A3861606820F04040606025685DB1B5
:10555000686800F0004038B92946384600F0BAF8CB
:10556000204600F02EFA2C46606820F040400619D4
:1055700056B1706800F0004030B93146384600F04E
:10558000A9F8304600F01DFA2146384600F054F8DC
:105590004046CFE74F734D656D4672656520636881
:1055A00065636B206572726F72210A0070B50646E2
:1055B0003046FFF795FF04461F2C01D2204670BDF0
:1055C0002146304600F020FC0546A4F11F001F21B3
:1055D00001EBC0002844F2E770B505460C462146B1
:1055E0002846FFF7C3FD90B1A06820B12846A16806
:1055F000FFF7BCFD58B1E06820B12846E168FFF72D
:10560000B5FD20B128462168FFF7B0FD08B901209B
:1056100070BD04F0030058B9207A00F0030038B9D7
:10562000207B00F0030018B9207800F0030008B1D7
:105630000120EDE70020EBE72DE9F04105460E469D
:105640007068FFF7B3FF0446DF2C03D3214615A093
:10565000FEF750FC29462046324601F1300757F844
:10566000203003B19A6000279760D36001F13007C2
:1056700047F8202000BF4FEA501C1C3F57F82C7001
:1056800000F01F084FF0010C0CFA08FC47EA0C0769
:105690004FEA501801F1140C4CF8287000BF00BFFD
:1056A000BDE8F08154686520696E646578206F6696
:1056B0002066726565206C69737473206973206558
:1056C00072726F722C20696E646578203D2025759A
:1056D0000A00000070B505460C466068FFF766FFDB
:1056E000064622463146284600F03EF970BDF0B528
:1056F000024600230024002500270026D2F804C01B
:105700000CF0004CBCF1000F09D1D2F804C02CF011
:1057100040407F1C0444864207D2064605E0D2F88A
:1057200004C02CF040406D1C0344D1F800C09C44E0
:10573000C1F800C0D1F804C0A444C1F804C0D1F835
:1057400008C0B44502D9D1F808C000E0B446C1F899
:1057500008C0D1F80CC0AC44C1F80CC0D1F810C0DE
:10576000BC44C1F810C0F0BD70B58CB004462546ED
:10577000182106A8FAF7F0FD06A92046FEF7D0FA90
:10578000012801D10CB070BD00BF0120FFF7CEFC95
:1057900010B9144802F01AFA00BF00BF0120FFF749
:1057A000C5FC10B9104802F011FA00BF00BF01207B
:1057B000FFF7BCFC98B92046FEF77FFB0646DDE903
:1057C0000823DDE90A10CDE90123CDE9031007988C
:1057D0000090069B32460548296802F0F7F900BFA1
:1057E00000BFCFE7FC940008C89200088495000829
:1057F0002DE9F04105460C46164668682844A0F19C
:105800000807284600F004FA05F56C70306000BF08
:105810003068206010E03A462946204600F05CF8E7
:10582000012801D1BDE8F08120683060206841681E
:1058300021F04041084420602068B842EBD300BF0B
:1058400000BF0020EEE7000006460D4614461F4646
:105850002146284600F0C4F800BF08232246194616
:105860000C4802F071FF08232A46194609480830FF
:1058700002F06AFF00BF00BF307A00F0020010B9EA
:105880003846FAF7D2FC00BF2246294602A0FEF7AE
:1058900031FB0000D00401204D656D6F72792069E5
:1058A0006E7465677269747920636865636B2065DF
:1058B00072726F722C20637572206E6F64653A206D
:1058C000307825782C20707265206E6F64653A20E0
:1058D000307825780A00000070B504460D4616465B
:1058E000206801682846FFF741FC78B900BF022014
:1058F000FFF71CFC38B9206840F221620A490368AE
:105900000A4802F063F900BF012070BD20684068BA
:1059100000F0004030B921462846FFF735FC08B1B9
:105920000120F2E70020F0E74B920008689400089D
:105930002DE9F04104460D4616461F46A54201D802
:10594000B44202D90020BDE8F081606800F0004058
:1059500008B10120F7E738462168FFF707FC08B9CE
:105960000020F0E70120EEE730B500F1300353F8F6
:10597000213093421CD100F13003D46843F8214018
:10598000D3688BB900BF4C0900F1140353F82430DD
:1059900001F01F050124AC40A3434D0900F114049C
:1059A00044F8253000BF0BE00023D468A36007E073
:1059B000D2E90243E360D36813B1D2E90234A360B1
:1059C00030BD00210268526843681A4403685A6077
:1059D00042681118002212B900BF02680A607047BD
:1059E000F8B505460E4600270024B54208D100BF91
:1059F0000120FFF79BFB10B921A002F0E7F800BFE0
:105A0000686800F0004058B12F4600BF0120FFF742
:105A10008DFB20B924A0D7E9001202F0D7F80EE0E0
:105A20002C4600BF0120FFF781FB38B96068009069
:105A300025A0D4E90232216802F0C8F800BF7068DE
:105A400000F0004058B1374600BF0120FFF76EFB61
:105A500020B927A0D7E9001202F0B8F80EE03446CA
:105A600000BF0120FFF762FB38B96068009027A0F3
:105A7000D4E90232216802F0A9F800BFF8BD0000A5
:105A80000A207468652062726F6B656E206E6F64A9
:105A90006520697320746865206669727374206E6E
:105AA0006F64650A000000000A2062726F6B656E09
:105AB000206E6F646520686561643A20257020203F
:105AC000307825782C2000000A2062726F6B656E9A
:105AD000206E6F646520686561643A20257020201F
