:020000040800F2
:1000000040070120A1010008CD2F0008091F0008AA
:10001000C92F0008A3080008A15E00080000000026
:10002000000000000000000000000000055900086A
:10003000A708000800000000430200085358000809
:10004000BB010008BB010008BB010008BB010008A0
:10005000BB010008BB010008BB010008BB01000890
:10006000BB010008BB010008BB010008BB01000880
:10007000BB010008BB010008BB010008BB01000870
:10008000BB010008BB010008BB010008BB01000860
:10009000BB010008BB010008BB010008BB01000850
:1000A000BB010008BB010008BB010008BB01000840
:1000B000BB010008BB010008BB010008BB01000830
:1000C000BB010008BB010008BB010008BB01000820
:1000D000BB010008BB010008BB010008BB01000810
:1000E000BB010008BB010008BB010008BB01000800
:1000F000BB010008BB010008BB010008BB010008F0
:10010000BB010008BB010008BB010008BB010008DF
:10011000BB010008BB010008BB010008715A0008C0
:10012000BB010008BB010008BB010008BB010008BF
:10013000BB010008BB010008BB010008BB010008AF
:10014000BB010008BB010008BB010008BB0100089F
:10015000BB010008BB010008BB010008BB0100088F
:10016000BB010008BB010008BB010008BB0100087F
:10017000BB010008BB010008BB0100080000000033
:10018000BB010008BB010008DFF810D000F03AFB0B
:1001900000480047C5670008AFF300804007012012
:1001A0000648804706480047FEE7FEE7FEE7FEE711
:1001B000FEE7FEE7FEE7FEE7FEE7FEE75D5A000822
:1001C00089010008394C3A4D25604FF0020080F358
:1001D000148838494868D0F800C0DFF8DC10096896
:1001E00001F47001B1F5700F0ED10CF1640CBCE894
:1001F000FF000CF1480C8CF309882DED010ABDECD1
:10020000010AAE4662B630470CF1240CBCE8FF0090
:100210008CF30988AE4662B63047EFF3108072B6B1
:100220007047EFF3108062B6704780F31088704714
:1002300022484FF080510160BFF34F8FBFF36F8FA3
:100240007047EFF3108C72B62DE90050DFF870C0E4
:10025000E047BDE800500028704602D18CF31088BA
:1002600070478646EFF3098020E9F01FDFF8483039
:100270001B6803F47003B3F5700F01D120ED108BF0
:100280000C4D2E68306068682860016803F47003C4
:10029000B3F5700F01D1B1EC108BB1E8F01F81F311
:1002A00009888CF31088704700BF000020ED00E043
:1002B0000000F0F0B800002088ED00E004ED00E060
:1002C000255000082DE9F05F0546002092469B4628
:1002D00088460646814640241BE02846414647465C
:1002E000224600F0F0F853465A46C01A914110D306
:1002F00011461846224600F0D7F82D1A67EB010880
:100300004F4622460120002100F0CEF817EB0009ED
:100310004E41201EA4F10104DFDC484631462A4646
:100320004346BDE8F09F40EA01039B0703D009E084
:1003300008C9121F08C0042AFAD203E011F8013BD1
:1003400000F8013B521EF9D27047D2B201E000F82A
:10035000012B491EFBD270470022F6E710B5134669
:100360000A4604461946FFF7F0FF204610BD2DE966
:10037000F04D81EA030404F0004B21F000451446DF
:100380004FF0000A23F0004150EA050220D054EA61
:1003900001021DD0C5F30A570246C5F31303C1F38A
:1003A0001300C1F30A5640F4801543F48013A7EB01
:1003B0000608101BD64608F2FD3873EB050002D381
:1003C00008F1010801E092185B41B8F1000F03DA6F
:1003D00000200146BDE8F08D00204FF48011064654
:1003E00084460EE0171B73EB050705D3121B63EB66
:1003F000050306434CEA010C49084FEA3000921805
:100400005B4150EA0107EDD152EA030012D082EAC3
:10041000040083EA0501084305D0101BAB4106D256
:100420000122002306E000224FF0004302E06FF0BB
:10043000010253101AEB06004CEB085110EB0A00B6
:1004400041EB0B01BDE8F04D00F04DB8C1F30A528D
:10045000C1F3130140F2FF3341F480119A4202DAF2
:1004600000200146704740F233439A42A2F23342E1
:1004700002DC524200F027B800F016B830B50B4647
:10048000014600202022012409E021FA02F59D42C4
:1004900005D303FA02F5491B04FA02F52844151E98
:1004A000A2F10102F1DC30BD202A04DB203A00FA7F
:1004B00002F1002070479140C2F1200320FA03F3BB
:1004C000194390407047202A04DB203A21FA02F0B9
:1004D0000021704721FA02F3D040C2F1200291407E
:1004E00008431946704710B5141E73F1000408DA6A
:1004F000401C41F1000192185B411A4301D120F0E8
:10050000010010BD2DE9F04D92469B4611B1B1FAA4
:1005100081F202E0B0FA80F220329046FFF7C4FF89
:1005200004460F4640EA0A0041EA0B0153465A4688
:10053000084313D0114653EA010019D0C8F1400214
:100540005046FFF7C0FF05460E4650465946424604
:10055000FFF7AAFF084305D0012004E020463946F2
:10056000BDE8F08D0020054346EAE0762C43374392
:100570000A986305E40AA0EB08000022FD0A44EA99
:1005800047540A3002D500200146E9E70105101959
:100590006941DDE9084500196941BDE8F04DA2E770
:1005A0002DE9FE4F804681EA0300C00F0C46009003
:1005B00021F0004123F00045B8EB0200A94105D22B
:1005C0004046214690461C460B46024623F000401A
:1005D000104347D0270DC7F30A00C3F30A51029016
:1005E000401A019040286BDAC3F3130040F4801BDB
:1005F0000098924620B10023D2EB030A63EB0B0B69
:1006000001985946C0F140025046FFF74DFF06469B
:100610000D4650465946019A00F006F910EB0800C5
:100620006141002487EA115284EAE7731A4340D0FB
:10063000009A62B3019A012A4FEA075215DC001BA7
:1006400061EB02014FF0004202EA0752CDE900429D
:10065000001C41F5801132462B46FFF753FF03B0D3
:10066000BDE8F08F40462146F9E7001B61EB02012F
:10067000001C41F5801300185B412018A2F50017FB
:1006800047EB030140EAD570B6196D4111E06D08E2
:100690004FEA360645EAC0754FEA0752001B61EB88
:1006A0000201001C41F5801149084FEA3000001991
:1006B000514132462B4603B0BDE8F04FFFF713BF60
:1006C0000098012240000023D0EB020263EBE073AC
:1006D000009821464FEAE074B8EB000061EB04019A
:1006E000E9E783F000435BE781F0004158E72DE93B
:1006F000FE4F81EA030404F0004421F0004100941D
:100700004FF0000B23F0004350EA01045ED052EAA0
:1007100003045BD0C3F30A54C1F30A552C44A4F27A
:10072000F3340194A0FB0254C1F3130141F480118E
:10073000C3F3130343F4801301FB024400FB034E95
:10074000840A970A44EA815447EA8357A4FB07685E
:1007500002958D0A05FB07854FEA932C04FB0C5488
:100760002705029D4FEA065847EA1637B5EB0805FC
:100770006EEB070C870E920E47EA811742EA83124E
:10078000A7FB0201B6EB0B0164EB00042B0D43EA5F
:100790000C335E1844EB1C50DA465146E7FB02016D
:1007A000C5F313044FEA0B3343EA14534FEA043200
:1007B000019C43EA0603A4F10C040294009CCDE9D9
:1007C00000B4FFF79FFE03B0BDE8F08F00200146A4
:1007D000F9E7000030B5041E71F1000404DB4FF0AE
:1007E0000044404264EB0101141E73F1000405DB78
:1007F0001C464FF00043524263EB0403994208BF8A
:10080000904230BD064C074D06E0E06840F0010321
:1008100094E8070098471034AC42F6D3FFF7B8FCD1
:100820004076000860760008202A06DBCB17203AC5
:1008300041FA02F043EAE07306E041FA02F3D040E5
:10084000C2F12002914008431946704770B58C18D8
:1008500010F8015B15F0070301D110F8013B2A11D4
:1008600006D110F8012B03E010F8016B01F8016BC1
:100870005B1EF9D12B0705D40023521E0DD401F8BD
:10088000013BFAE710F8013BCB1A921C03E013F886
:10089000015B01F8015B521EF9D5A142D8D30020BB
:1008A00070BD00BFFEE7704772B600BFFEE70000F4
:1008B00070B5044600F01AF906462546681C10B1CA
:1008C00004480078054400BF00F010F9801BA842DE
:1008D000FAD370BD20000020F8B502460B46002573
:1008E000002400200021D6E0012606FA01F51E684A
:1008F00006EA0504AC4274D11E7906F00306012E07
:1009000004D01E7906F00306022E13D190684F0022
:100910000326BE40B0434F00DE68BE4030439060C7
:10092000506801268E40B0431E79C6F300168E40F3
:10093000304350601E7906F00306032E09D0D068BC
:100940004F000326BE40B0434F009E68BE40304378
:10095000D0601E7906F00306022E13D1CF0802F1F3
:10096000200656F827004E07F70E0F26BE40B0436C
:100970004F07FF0E1E69BE403043CF0802F120062C
:1009800046F8270010684F000326BE40B0431E798A
:1009900006F003064F00BE40304310605E6806F468
:1009A0004036002E76D000BF002600963C4E3668BA
:1009B00046F480463A4F3E603E46366806F480462E
:1009C000009600BF00BF374E8F0856F827008E07ED
:1009D000370F0F26BE40B043334EB24202D100263D
:1009E00024E057E0314EB24201D101261EE0304EE4
:1009F000B24201D1022619E02E4EB24201D10326A5
:100A000014E02D4EB24201D104260FE02B4EB2422B
:100A100001D105260AE02A4EB24201D1062605E0A0
:100A2000284EB24201D1072600E008268F073F0F6B
:100A3000BE4030431B4E8F0846F82700224E3068D8
:100A4000A0435E6806F4801606B120431E4E306057
:100A5000361D3068A0435E6806F4001606B12043D8
:100A6000194E361D3060184E361F3068A0435E6840
:100A700006F4003606B12043134E361F3060361F91
:100A80003068A0435E6806F4803606B120430E4EFF
:100A9000083E3060491C1029FFF426AFF8BD000065
:100AA000443802400838014000000240000402407F
:100AB00000080240000C02400010024000140240F6
:100AC00000180240001C0240083C014010B5426979
:100AD00021EA020302EA010443EA0443836110BDF0
:100AE0000AB1816101E00B0483617047014800682D
:100AF000704700001800002070B504460CB90120B2
:100B000070BD94F83D0028B9002084F83C002046D0
:100B100000F08CF9242084F83D002068006820F063
:100B20000100216808602068006840F400402168E6
:100B300008602068006820F400402168086000F028
:100B4000B1FB05465C496068884206D85B4885422F
:100B500001D2012007E0002005E05948854201D27A
:100B6000012000E00020012800D1C9E75548B5FB6D
:100B7000F0F62068406820F03F003043216848606C
:100B80004D496068884201D8701C07E04FF49670A8
:100B900070434FF47A71B0FBF1F0401C2168096A90
:100BA00021F03F0108432168086243496068884298
:100BB00014D8681E61684900B0FBF1F0401CC0F316
:100BC0000B00042801D204203DE0681E6168490042
:100BD000B0FBF1F0401CC0F30B0034E0A06838B962
:100BE000681E616801EB4101B0FBF1F0401C0AE0B6
:100BF000681E616801EBC10202EB0111B0FBF1F06C
:100C0000401C40F48040C0F30B0008B901201AE0FA
:100C1000A06848B9681E616801EB4101B0FBF1F0C2
:100C2000401CC0F30B000CE0681E616801EBC102C0
:100C300002EB0111B0FBF1F0401CC0F30B0040F4DB
:100C4000804040F400402168C9694CF6FF7291432E
:100C500008432168C861D4E907010843216809688D
:100C600021F0C001084321680860D4E9031008435B
:100C70002168896848F2FF329143084321688860FF
:100C8000D4E9050108432168C96821F0FF01084340
:100C90002168C8602068006840F001002168086091
:100CA00000202064202084F83D000020206384F888
:100CB0003E0000BF24E70000A086010080841E00E3
:100CC00000093D0040420F002DE9FC5F04460F463D
:100CD00090469946DDE90CAB0E9EFFF707FF0546EF
:100CE00094F83D0020287DD1192301224D4920464A
:100CF000009501F0CEF910B10220BDE8FC9F00BFC5
:100D000094F83C00012801D10220F6E7012084F884
:100D10003C0000BF2068006800F0010028B920688E
:100D2000006840F00100216808602068006820F435
:100D3000006021680860212084F83D00402084F88C
:100D40003E0000202064C4F824A0A4F82AB0608DDE
:100D500020853548E0624B46424639462046CDE97B
:100D6000006501F0F3F808B10120C6E731E02A463A
:100D70003146204601F069FA50B1206C042805D1B3
:100D80002068006840F40070216808600120B4E722
:100D9000606A007821680861606A401C6062208D8A
:100DA000401E2085608D401E608520684069C0F32C
:100DB000800070B1208D60B1606A007821680861A0
:100DC000606A401C6062208D401E2085608D401E40
:100DD0006085208D0028CAD12A463146204601F080
:100DE00025F900E01CE050B1206C042805D12068F2
:100DF000006840F400702168086001207DE72068E9
:100E0000006840F4007021680860202084F83D00EC
:100E1000002084F83E0000BF84F83C0000BF6CE76F
:100E200002206AE7020010000000FFFF10B586B044
:100E30000446142101A8FFF78FFA1B492068884255
:100E400030D100BF002000901848006840F0020038
:100E5000164908600846006800F00200009000BFD4
:100E600000BF4FF4407001901220029000200390C8
:100E7000022004900420059001A90D48FFF72CFDE5
:100E800000BF0020009009481030006840F40010B6
:100E90000649103108600846006800F40010009010
:100EA00000BF00BF06B010BD005400403038024003
:100EB00000040240034800680349097808440149D6
:100EC00008607047180000202000002010B50D4871
:100ED000006840F400700B4908600846006840F460
:100EE000806008600846006840F480700860032055
:100EF00000F0DAF80F2000F007F800F05FF80020AB
:100F000010BD0000003C02402DE9F04188B00446CD
:100F10000027B84600BF002001902348006840F039
:100F20002000214908600846006800F02000019078
:100F300000BF00BF02A903A800F08CF9069F1FB9EB
:100F400000F0B0F9054602E000F0ACF945001748A2
:100F5000B5FBF0F0A0F1010815481649086040F211
:100F6000E7311448C160C0F804800021016181604C
:100F7000816100F05FFC064696B90E4800F08EFCD9
:100F800006466EB9372000F03DF8102C07D200223B
:100F90002146372000F04AF80748046000E00126A7
:100FA000304608B0BDE8F0814038024040420F00B2
:100FB00000140040E40100201C00002008B500BF20
:100FC000002000900E48006840F480400C49086002
:100FD0000846006800F48040009000BF00BF00BFDA
:100FE00000200090081F006840F08050091F086032
:100FF0000846006800F08050009000BF00BF08BDA8
:10100000443802400146084600280DDB00BF00BFFF
:1010100000F01F0301229A4043099B0003F1E023E3
:10102000C3F8002100BF00BF00BF70472DE9F05F8B
:1010300080460D461646002704F044FF0746394611
:101040002A46334601F00700C0F1070ABAF1040F3F
:1010500002D94FF0040A01E0C0F1070AD14600F1BD
:10106000040ABAF1070F02D24FF0000A01E0A0F122
:10107000030AD4464FF0010A0AFA09FAAAF1010A52
:101080000AEA020A0AFA0CFA4FF0010B0BFA0CFBFF
:10109000ABF1010B0BEA030B4AEA0B042146404675
:1010A00004F018FFBDE8F09F00BF00F00702064BF8
:1010B00019684FF6FF031940044B0B4343EA022122
:1010C000014B196000BF70470CED00E00000FA050D
:1010D00070B504460D460CB9012070BD5848006833
:1010E00000F00700A84209D255490D700846006873
:1010F00000F00700A84201D00120EEE7207800F0C0
:10110000020002281DD1207800F00400042805D137
:101110004C48006840F4E0504A490860207800F0EC
:101120000800082805D14748006840F46040454958
:1011300008604448006820F0F000A1680843414975
:101140000860207800F00100A8B36068012807D18A
:101150003C4808380068C0F34040B8B90120BCE7FB
:101160006068022802D06068032807D13548083833
:101170000068C0F3406048B90120AEE73148083844
:101180000068C0F3400008B90120A6E72D480068B8
:1011900020F00300616808432A490860FFF7A6FCB5
:1011A000064609E0FFF7A2FC801B41F28831884225
:1011B00002D9032091E707E02248006800F00C0004
:1011C0006168B0EB810FEDD11D48006800F00700A9
:1011D000A84209D91A490D700846006800F00700B6
:1011E000A84201D0012078E7207800F0040004280C
:1011F00007D11448006820F4E050E1680843114921
:101200000860207800F00800082808D10D48006820
:1012100020F46040216940EAC1000A49086000F0FA
:1012200061F808490968C1F30311074A515CC840D5
:101230000649086006480068FFF766FE00204CE794
:10124000003C0240083802402072000824000020C0
:101250001C0000200F2202600D4A126802F00302F7
:1012600042600B4A126802F0F0028260084A12687B
:1012700002F4E052C260064A126802F46042D208E8
:101280000261044A126802F007020A607047000017
:1012900008380240003C02400148006870470000E6
:1012A0002400002000B5FFF7F7FF04490968C1F3E7
:1012B0008221034A515CC84000BD0000083802404A
:1012C0003072000800B5FFF7E7FF04490968C1F371
:1012D0004231034A515CC84000BD0000083802405A
:1012E000307200082DE9F047002400250026A146B1
:1012F0002548006800F00C0020B1042805D008281B
:101300003AD105E0DFF8849039E0DFF8849036E0E8
:101310001D48001F006800F03F041B48001F0068C4
:1013200000F4800078B11A481749091F0968C1F311
:101330008811A0FB01700146224600233846FEF7C3
:10134000C1FF05460EE011480F49091F0968C1F3A6
:101350008811A0FB01700146224600233846FEF7A3
:10136000B1FF05460848001F0068C0F30140401C5B
:101370004600B5FBF6F902E0DFF8109000BF00BFB1
:101380004846BDE8F0870000083802400024F40019
:1013900000127A00F8B504460CB90120F8BD207897
:1013A00000F00100002874D0F948006800F00C003B
:1013B00004280DD0F648006800F00C00082813D16E
:1013C000F348001F006800F48000B0F5800F0BD1D7
:1013D000EF4808380068C0F34040002859D06068E2
:1013E000002856D10120D9E700BF6068B0F5803FE2
:1013F00008D1E7480838006840F48030E4490839EB
:1014000008601EE06068B0F5A02F0DD1E0480838F4
:10141000006840F48020DE4908390860084600680A
:1014200040F4803008600CE0D9480838006820F4A7
:101430008030D749083908600846006820F48020C9
:10144000086000BF606890B1FFF750FB054606E0FA
:10145000FFF74CFB401B642801D903209EE7CC48D2
:1014600008380068C0F340400028F1D011E0FFF7D1
:101470003DFB054606E0FFF739FB401B642801D918
:1014800003208BE7C24808380068C0F340400028BA
:10149000F1D1207800F0020002285FD1BC4800683A
:1014A00000F00C0058B1BA48006800F00C000828A1
:1014B0001CD1B748001F006800F48000B0B9B448E0
:1014C00008380068C0F3400020B1E068012801D06E
:1014D000012063E7AE480838006820F0F800216971
:1014E00040EAC100AA490839086037E0E06800B363
:1014F0000120A8490860FFF7F9FA054606E0FFF762
:10150000F5FA401B022801D9032047E7A048083814
:101510000068C0F340000028F1D09D4808380068FA
:1015200020F0F800216940EAC100994908390860B3
:1015300014E0002097490860FFF7D8FA054606E056
:10154000FFF7D4FA401B022801D9032026E7904870
:1015500008380068C0F340000028F1D1207800F07E
:10156000080008282CD16069A8B101208A490860C8
:10157000FFF7BCFA054606E0FFF7B8FA401B022861
:1015800001D903200AE782486C300068C0F34000AC
:101590000028F1D014E000207F490860FFF7A6FA88
:1015A000054606E0FFF7A2FA401B022801D90320F6
:1015B000F4E677486C300068C0F340000028F1D1B1
:1015C000207800F00400042870D1002770483830DB
:1015D000006800F0805090B900BF002000906C4877
:1015E0003830006840F0805069493831086008465A
:1015F000006800F08050009000BF00BF01276748DE
:10160000006800F48070B0B96448006840F48070ED
:1016100062490860FFF76AFA054606E0FFF766FAD6
:10162000401B022801D90320B8E65C48006800F49A
:1016300080700028F2D000BFA068012808D154486B
:101640006830006840F001005149683108601DE0D1
:10165000A06805280DD14E486830006840F00400AD
:101660004B49683108600846006840F00100086096
:101670000CE047486830006820F0010044496831B8
:1016800008600846006820F00400086000BFA068F9
:10169000A8B1FFF72BFA054609E0FFF727FA401B30
:1016A00041F28831884202D9032077E626E03848A3
:1016B00068300068C0F340000028EED013E0FFF768
:1016C00015FA054608E0FFF711FA401B41F2883190
:1016D000884201D9032061E62D4868300068C0F3D4
:1016E00040000028EFD1012F07D129483830006889
:1016F00020F0805026493831086000BFA0690028DA
:1017000045D02348006800F00C0008285DD0A0698F
:10171000022845D100201F490866FFF7E7F9054672
:1017200006E0FFF7E3F9401B022801D9032035E664
:10173000174808380068C0F340600028F1D1D4E9A8
:1017400007010843616A40EA81110122A06AC2EBE5
:10175000500041EA00412C20005D41EA00600C4944
:10176000091F086001200B490866FFF7BFF905460D
:1017700006E0FFF7BBF9401B022801D903200DE664
:10178000034808380068C0F340600028F1D049E001
:101790000838024000004742800E47420070004077
:1017A000002021490866FFF7A1F9054606E0FFF78A
:1017B0009DF9401B022801D90320EFE51B48006872
:1017C000C0F340600028F2D12CE0A069012800D1CC
:1017D000E4E51648001D0668A069012820D006F43B
:1017E0008001E06981421BD106F03F01206A8142FD
:1017F00016D147F6C0703040616AB0EB811F0FD13F
:1018000006F440310122A06AC2EB5000B1EB004F58
:1018100006D106F070612C20005DB1EB006F01D0A5
:101820000120BBE50020B9E5000047420038024036
:101830007047704710B504460CB9012010BD94F8EC
:101840003D0028B9002084F83C00204600F025F82F
:10185000022084F83D00211D206804F011F90120C8
:1018600084F8460000BF84F83E0001213F20015566
:10187000402001554120015500BF00BF012084F8E0
:10188000420043200155442001554520015500BF29
:10189000012084F83D000020D0E77047014691F810
:1018A0003D00012801D001207047022081F83D0051
:1018B0000868C06840F001000B68D8601A4B0868DF
:1018C00098421BD00868B0F1804F17D0174B0868BA
:1018D000984213D0164B086898420FD0154B0868F1
:1018E00098420BD0144B0868984207D0134B0868F5
:1018F000984203D0124B086898420CD1086880685F
:1019000000F00702062A0CD00868006840F00100C9
:101910000B68186005E00868006840F001000B687B
:1019200018600020C0E700000000014000040040F3
:1019300000080040000C004000040140004001404D
:1019400000180040704770B504462068C5682068DC
:10195000066906F00200022819D105F002000228EB
:1019600015D1401F21680861012020772068806917
:1019700000F0030018B12046FFF7E4FF05E0204621
:1019800000F097F8204600F095F80020207706F048
:101990000400042819D105F00400042815D1C0431F
:1019A00021680861022020772068806900F4407077
:1019B00018B12046FFF7C6FF05E0204600F079F891
:1019C000204600F077F80020207706F0080008286D
:1019D00019D105F00800082815D1C0432168086115
:1019E000042020772068C06900F0030018B1204669
:1019F000FFF7A8FF05E0204600F05BF8204600F066
:101A000059F80020207706F01000102819D105F0B1
:101A10001000102815D1C0432168086108202077E4
:101A20002068C06900F4407018B12046FFF78AFFB3
:101A300005E0204600F03DF8204600F03BF800208D
:101A4000207706F0010048B105F0010030B16FF0D9
:101A5000010021680861204600F02EF806F08000A1
:101A6000802809D105F08000802805D1C043216875
:101A700008612046FFF7DCFE06F04000402809D14F
:101A800005F04000402805D1C04321680861204688
:101A900000F01EF806F02000202809D105F02000F3
:101AA000202805D1C043216808612046FFF7C1FE08
:101AB00070BD70477047000010B5044603492068A8
:101AC000884201D1FFF7F6F910BD00000014004074
:101AD000704710B504460CB9012010BDA06900B1D3
:101AE00000E000BF94F8410028B9002084F84000CD
:101AF000204600F029F8242084F841002068C068BE
:101B000020F400502168C860204604F0B3F8206833
:101B1000006920F49040216808612068406920F045
:101B20002A00216848612068C06840F4005021689C
:101B3000C86000206064202084F8410084F84200DE
:101B40000020606300BFC8E710B586B004461421CA
:101B500001A8FEF701FC1B492068884230D100BF74
:101B6000002000901848006840F0100016490860F6
:101B70000846006800F01000009000BF00BF00BFE2
:101B80000020009010481438006840F001000E4911
:101B9000143908600846006800F00100009000BF9A
:101BA00000BF4FF4C060019002200290002003901B
:101BB000032004900720059001A90448FEF78CFE3D
:101BC00006B010BD00100140443802400000024041
:101BD00010B500F039F8084800F09AF804464CB106
:101BE00000BF022001F02AFE10B904A004F05AF947
:101BF00000BF10BD00BFFCE7535800085469636B79
:101C0000207374617274206661696C6564210A00D6
:101C1000BFF34F8F30BFBFF36F8F0020704770B599
:101C20000446FEF7FAFA06464FF0E02040692060CD
:101C30004FF0E02120688969451A3046FEF7F5FA31
:101C40002846002170BD0000072002460E4B19688F
:101C50004FF6FF0319400D4B0B4343EA02210A4B99
:101C6000196000BF08481830006840F4E0200649B9
:101C70001831086004480830006840F0100002493C
:101C800008310860704700000CED00E00000FA0524
:101C90000348006808B1012070470020FCE70000FD
:101CA0000001002010B5FEF7B8FA03F085F8FEF742
:101CB00089FA002010BDFEF7B0FA00BFFEE7000071
:101CC00030B502460B464FF0E020006920F00100DD
:101CD0004FF0E0210861501E48614FF0000088611C
:101CE0004FF0FF30002807DB00F01F040121A14066
:101CF000064C450944F8251000BF4FF0E02000696C
:101D000040F001004FF0E021086130BD80E200E0CA
:101D1000F0B504461848194908601948194908607F
:101D20004FF08071481EB0F1807F01D301201BE08D
:101D3000481E4FF0E022506150170F22002804DBAC
:101D400015072E0E104D2E5406E015072F0E0F4DC1
:101D500000F00F06361FAF5500BF00204FF0E02205
:101D600090610720106100200346012B01D1084833
:101D7000F0BD0020FCE70000007A030AF400002018
:101D800080A21900F000002000E400E018ED00E05F
:101D9000020400022DE9F04107460E4615460024D4
:101DA0003346CA223146284604F0BBFD8046B8F1CE
:101DB000000F04D05E22494949A004F073F84FF0A7
:101DC000CC302860A819A0F1CC044C482060401CFD
:101DD0006060401CA060401CE060401C2061401C12
:101DE0006061401CA061401CE061401C2062401CFE
:101DF0006062401CA062401CE062401C2063401CEA
:101E00006063401CA063401CE0634FF02A40C4F8AC
:101E10008400401CC4F88800401CC4F88C00401C9E
:101E2000C4F89000401CC4F89400401CC4F898000A
:101E3000401CC4F89C00401CC4F8A000401CC4F81E
:101E4000A400401CC4F8A800401CC4F8AC00401C0E
:101E5000C4F8B000401CC4F8B400401CC4F8B8007A
:101E6000401CC4F8BC00401CC4F8C0000020C4F8EA
:101E7000C4002248401CC4F8C8004FF0043020645D
:101E80004FF0053060644FF00630A0644FF007302B
:101E9000E0644FF0083020654FF0093060654FF086
:101EA0001030A0654FF01130E065002020666766B5
:101EB0004FF00130A0664000E0664FF0033020672D
:101EC0004FF0123060670E48A0670E48E0674FF091
:101ED0008070C4F880002046BDE8F081F9720008E7
:101EE0006D656D7365745F73206973206661696CDD
:101EF00065643A25735B25645D0D0A00100000AA35
:101F0000B71C00088156000800BFFEE701460868BC
:101F10004069C0F38020B0B16FF480600A685061FE
:101F200000200863202081F83D00002081F83E0059
:101F3000086C40F00400086400BF002081F83C00F9
:101F400000BF012070470020FCE700002DE9F843A6
:101F50000446884615469946DDE90867206800680A
:101F600040F4807021680860334600224FF0011170
:101F70002046009700F08DF860B12068006800F4FA
:101F80008070B0F5807F02D14FF400702064032090
:101F9000BDE8F88308F0FE00216808613B46324640
:101FA0002149204600F0D4F808B10120F0E700BF35
:101FB00000200090206840690090206880690090AF
:101FC00000BF00BF3A463146204600F03EF950B10E
:101FD000206C042805D12068006840F40070216856
:101FE00008600120D4E7B9F1010F03D1E8B22168FC
:101FF000086117E0C5F30720216808613A463146B9
:10200000204600F022F950B1206C042805D1206848
:10201000006840F40070216808600120B8E7E8B269
:10202000216808610020B3E70200010070B5044692
:102030000D46164625E02046FFF768FF08B101204F
:1020400070BD681CE8B1FEF751FD801BA84200D8A6
:10205000BDB920684069C0F3800090B900202063BA
:10206000202084F83D00002084F83E00206C40F0E1
:102070002000206400BF002084F83C0000BF012045
:10208000DEE720684069C0F380000028D3D000203C
:10209000D6E72DE9F04104460D4617461E46DDF809
:1020A000188038E0701CA8B3FEF720FDA0EB0800F4
:1020B000B04200D876BBC5F3074001280AD120689A
:1020C0004069A9B20840A9B2884201D101200BE0C1
:1020D000002009E020688069A9B20840A9B28842BE
:1020E00001D1012000E00020B84214D1002020637B
:1020F000202084F83D00002084F83E00206C40F051
:102100002000206400BF002084F83C0000BF0120B4
:10211000BDE8F081FFE7C5F3074001280AD1206838
:102120004069A9B20840A9B2884201D101200BE060
:10213000002009E020688069A9B20840A9B288425D
:1021400001D1012000E00020B842ABD00020DFE741
:102150002DE9F04104460D4616461F4658E020681A
:102160004069C0F38020E8B12068006840F4007046
:10217000216808606FF48060216848610020206356
:10218000202084F83D00002084F83E00206C40F0C0
:102190000400206400BF002084F83C0000BF012040
:1021A000BDE8F081701C90B3FEF7A0FCC01BB042EC
:1021B00000D866BBC5F3074001280AD120684069F2
:1021C000A9B20840A9B2884201D101200BE0002049
:1021D00009E020688069A9B20840A9B2884201D10B
:1021E000012000E0002090B900202063202084F826
:1021F0003D00002084F83E00206C40F02000206468
:1022000000BF002084F83C0000BF0120C8E7FFE7C2
:10221000C5F3074001280AD120684069A9B20840E7
:10222000A9B2884201D101200BE0002009E020681A
:102230008069A9B20840A9B2884201D1012000E01A
:10224000002000288BD00020AAE770B504460D4678
:10225000164625E02046FFF759FE08B1012070BD63
:10226000681CE8B1FEF742FC801BA84200D8BDB94B
:1022700020684069C0F3C01090B90020206320207E
:1022800084F83D00002084F83E00206C40F02000DF
:10229000206400BF002084F83C0000BF0120DEE77E
:1022A00020684069C0F3C0100028D3D00020D6E7D2
:1022B0000246481E1044904201D9481E00E000200A
:1022C00010444B1E984370470448006808B90448FE
:1022D000704702480068006BFAE70000B800002071
:1022E0000702000270B504460CB90C4870BDFDF73A
:1022F00094FF0546201D00F0F9F828B92846FDF79F
:1023000094FF0648801CF1E70021A1600020606076
:102310002846FDF78AFF0020E8E70000061C0002BF
:10232000014609B90448704700200860081D406054
:10233000006000BF0020F6E7061C000210B500BFD9
:10234000012001F07BFA10B92CA003F0ABFD00BF17
:1023500002F01EFC02F03AF904465CB100BF022014
:1023600001F06CFA18B921462BA003F09BFD00BFC9
:10237000204610BDFFF72CFC03F0AEF9044654B123
:1023800000BF022001F05AFA10B92AA003F08AFD1A
:1023900000BF2046EDE702F0B1FF04460CB1204635
:1023A000E7E702F051F904460CB12046E1E702F0FC
:1023B00071FA044654B100BF022001F03FFA10B98F
:1023C00021A003F06FFD00BF2046D2E702F0D8FF46
:1023D000044654B100BF022001F030FA10B91FA02A
:1023E00003F060FD00BF2046C3E701F0F5F90446A5
:1023F0000CB12046BDE70020BBE70000656E7465A8
:1024000072696E67206B65726E656C20696E6974A7
:102410002E2E2E0A000000004F734D656D53797308
:1024200074656D496E6974206572726F72202564DF
:102430000A0000004F735461736B496E6974206524
:1024400072726F720A0000004F73517565756549AD
:102450006E6974206572726F720A00004F73537751
:10246000746D72496E6974206572726F720A000031
:1024700042684A6008604268116041607047426883
:102480004A600860426811604160704742684A6073
:102490000860426811604160704742684A600860A5
:1024A000426811604160704742684A600860426853
:1024B00011604160704742684A600860426811607C
:1024C00041607047D0E900121160D0E900215160ED
:1024D0000021416001607047D0E900121160D0E92D
:1024E0000021516000214160016070470146486849
:1024F000884201D1012070470020FCE7014648686E
:10250000884201D1012070470020FCE7014648685D
:10251000884201D1012070470020FCE7014648684D
:10252000884201D1012070470020FCE7014648683D
:10253000884201D1012070470020FCE7014648682D
:10254000884201D1012070470020FCE74060006014
:1025500070474060006070474060006070474060B6
:102560000060704770B504460D4629462068FFF7A5
:102570008DFF70BD70B504460D4629462068FFF7F3
:102580009AFF70BD70B50446601C10B94FF0FF3063
:1025900070BD6420A4FB005001464FF47A72002302
:1025A0002846FDF78FFEF3E72DE9F04106460C467D
:1025B00006B114B90020BDE8F081082C00D208242F
:1025C00035464FF00008002700BF287A00F00200CF
:1025D00010B9FDF722FE074600BF00BF04F000401F
:1025E00010B904F0804000B106E03A462146284682
:1025F00001F090F9804600BF00BF00BF287A00F0CC
:10260000020010B93846FDF710FE00BF4046D2E781
:102610002DE9FC5F81460E461446B9F1000F07D044
:1026200036B12CB1601E204010B904F0030010B187
:102630000020BDE8FC9F082E00D20826201FC6F10E
:10264000FF31884201D90020F3E73019A0F10408D6
:1026500008F0004010B908F0804008B10020E8E719
:10266000CA46002000900025002700BF9AF8080005
:1026700000F0020010B9FDF7D0FD009000BF00BFD0
:1026800041464846009A01F045F905462819401E82
:10269000611E20EA0107BD4200D112E0781B0190C3
:1026A000A5F1080BDBF8040040F08040CBF80400F3
:1026B000019840F080400190019847F8040C3D4695
:1026C00000BF00BF00BF9AF8080000F0020010B978
:1026D0000098FDF7AAFD00BF2846AAE72DE9F047BC
:1026E00005460C4635B12CB105F0030010B904F0D5
:1026F000030010B10120BDE8F08701272E464FF0FE
:1027000000084FF0000900BF307A00F0020010B955
:10271000FDF783FD814600BF00BF2146284600F03B
:1027200093FF044604B907E0A4F108084146304687
:1027300001F072FA074600BF00BF00BF307A00F018
:10274000020010B94846FDF770FD00BF3846D2E7D9
:102750002DE9F04106460C46354600275CB900BF1E
:10276000022001F06BF810B91CA003F09BFB00BF26
:102770000120BDE8F08116B12868B0420DD000BF3D
:10278000022001F05BF828B940F2627229461CA0D1
:1027900003F088FB00BF0120EBE718230022194655
:1027A000204604F0BEF822461E49304600F09AFD4D
:1027B00000BF287A00F0020010B9FDF72EFD074691
:1027C00000BFE868606100BF287A00F0020010B91D
:1027D0003846FDF72AFD00BF0020CAE763616E2777
:1027E0007420757365204E554C4C206164647220D2
:1027F000746F207361766520696E666F0A00000051
:1028000077726F6E67206D656D20706F6F6C2061E1
:102810006464723A20307825782C206C696E653AB1
:1028200025640A004142000870B504460D4614B103
:10283000B5F56E7F02D84FF0FF3070BD04F0030095
:1028400010B905F0030070B100BF022000F0F6FFE0
:1028500028B904232A4621460D4803F023FB00BF74
:102860004FF0FF30E9E72946204601F01FFE10B186
:102870004FF0FF30E1E72946204601F0EBFC28B19C
:10288000204601F043FD4FF0FF30D6E70020D4E7AB
:10289000007400087CB506460EB901207CBD3446A4
:1028A000002001900090002500BF207A00F0020077
:1028B00010B9FDF7B2FC054600BF6A4601A92046E3
:1028C00001F01EFB00B10AE000BF207A00F0020018
:1028D00010B92846FDF7A9FC00BF0020DEE72B4613
:1028E0002046DDE9002101F037FB0146002209B94D
:1028F00001207047486802441046FAE770B5054663
:10290000FFF7C6F900B170BD0DB9002405E02846F7
:10291000FFF738FE044604B90124204600F0A4F96C
:1029200000BFF0E70FB408B503A8009000BF022075
:1029300000F084FF18B90099029803F0B3FA00BFC1
:1029400000200090FFF7B7F92DE9F05F0E4617461B
:10295000DDF8288000240025A14617B93048BDE8DD
:10296000F09F4FF6FB70804502D92D480938F6E7F5
:1029700016B1B8F1000F02D12948401CEFE708F169
:1029800004001FFA80FA06FB0AF126480068FFF7E8
:102990000BFE8146B9F1000F02D121480A38DEE76B
:1029A000FDF73BFC83462048FFF7A8FD50B1584691
:1029B000FDF73BFC49461B480068FFF78FFE1848AF
:1029C0000838CCE71848456800BFD5E90001086021
:1029D000D5E90010486000206860286000BFA5F1BC
:1029E0001C04E680A4F808A0C4F800900120A08090
:1029F000002020826682A081E08104F11400FFF7AC
:102A0000A8FD04F11C00FFF7A4FD04F12400FFF76A
:102A1000A0FD5846FDF709FC6089386000209EE75C
:102A20000C060002F8000020380000202DE9F843D1
:102A300081460C4615461E4633462A4621464846E0
:102A400002F022F8074617B13846BDE8F8834FF088
:102A500000082B46224641464846009601F056FFA4
:102A6000F3E72DE9FF4182B080460C461D462B4618
:102A700004AA2146404602F027F806461EB1304619
:102A800006B0BDE8F081032704AB22463946404634
:102A9000009501F03BFFF3E770B500241F48006884
:102AA00000B970BDFDF7B9FB054600F0FFFC1C4AFC
:102AB00003C21C480068401C98B91B480088401C91
:102AC000194908801948006818B1184800688047FB
:102AD000044602F0A9F8044313480088401E124936
:102AE00008806FF001014810114AC2E900102CB1B2
:102AF0001048008810B9FDF79BFB0AE00E490868F2
:102B000007490CC902F0ACFE0122054903C902F0D5
:102B10009BFB2846FDF789FB00BFC2E7E0000020D1
:102B2000580000204C0000205000002040000020F1
:102B300060000020C0000020B800002010B504484C
:102B4000006820B10348008808B9FDF771FB10BD8B
:102B5000E0000020C000002010B5FFF7A3F810BD72
:102B60002DE9F04104460E4600273146204600F08C
:102B70001FF8054615B12846BDE8F0810A492068CE
:102B8000096801EBC017FDF748FB8046384602F0A4
:102B90009BF94046FDF749FB0448006808B1FFF780
:102BA000CDFF0020E8E70000B4000020E000002096
:102BB0002DE9F04705460E464FF00008002715B9ED
:102BC0002548BDE8F087304602F0ECFD04460CB124
:102BD0002046F6E701F0B0FFFDF71FFB81461F48D6
:102BE000FFF7ACFC18B11C4C0A3400BF2EE01B48A8
:102BF0004068A0F1480719494868FFF76DFC48464E
:102C0000FDF713FB08221648F1680068FFF700FD86
:102C10008046B8F1000F0CD1FDF7FFFA814607F1AD
:102C200048010E48FFF747FC4846FDF7FEFA0D48FD
:102C3000C7E742463146384601F038FD04460CB13C
:102C40002046BEE7386B28602046BAE74846FDF7C5
:102C5000ECFA2046B5E7000007020002D000002091
:102C6000F80000200002000370B50446FFF710F8DA
:102C700008B10D4870BD0D48008808B10C48F9E74F
:102C800014B900F0CDF8F5E7FDF7C7FA0546094994
:102C90000868214601F082FF2846FDF7C6FAFFF7D3
:102CA0004DFF0020E6E700000D020003C0000020F9
:102CB0000E020002B8000020F8B505460020009082
:102CC0000024284600F076FB06460EB13046F8BDDB
:102CD0003E48006800EBC514FDF79FFA07462079CF
:102CE00000F0010020B13846FDF79FFA3848EEE7C2
:102CF000A08800F4807028B13846FDF796FA344871
:102D00001D30E4E7207900F0100070B131480088F0
:102D100058B100BF042000F091FD10B92EA003F0BF
:102D2000C1F800BF00202B490880204602F056F968
:102D3000204602F077FD04F16400FFF7D3FA4FF06C
:102D4000FF30606600202067207900F0100060B33B
:102D5000A08800F4807008BB0120A08000BF04F1AF
:102D600048012B48FFF706FC184800682949096804
:102D700000EBC11028490860084600680563A08878
:102D800040F01000096888802349E06A0968C86239
:102D90002149606C0968486400BF00BF3846FDF7F0
:102DA00044FAFFF7CBFE002091E7FFF78DFA20668B
:102DB0006946204601F0A8FE3846FDF736FA174866
:102DC00000990068FFF78AFC002080E7B40000202B
:102DD0000A020002C0000020496E20636173652072
:102DE0006F66207461736B206C6F636B2C20746151
:102DF000736B2064656C6574696F6E206973206EF7
:102E00006F74207265636F6D6D656E6465640A0032
:102E1000D8000020C4000020B8000020F8000020E6
:102E200010B5FDF7FAF9044602F060FA2046FDF706
:102E3000FCF9FFF783FE002010BD000070B500BF55
:102E40000C48D0E900104FF0FF335940584001437F
:102E500007D000F05BFB074B0CCB801A61EB030142
:102E600001E0002001460446034A0023FDF72AFA48
:102E700070BD00007000002080A2190000B587B06E
:102E8000142102A8FDF768FA00BF002001902E4827
:102E9000006840F004002C4908600846006800F013
:102EA0000400019000BF00BF00BF00200190084651
:102EB000006840F0800008600846006800F080006C
:102EC000019000BF00BF00BF0020019008460068CD
:102ED00040F0010008600846006800F00100019021
:102EE00000BF00BF00BF002001900846006840F00E
:102EF000020008600846006800F00200019000BF70
:102F000000BF012203211148FDF7EAFD0022032141
:102F10000F48FDF7E5FD0320029001200390049087
:102F20000020059002A90948FDF7D6FC0320029075
:102F30000120039000200490059002A90448FDF7A9
:102F4000CBFC07B000BD0000303802400008024052
:102F50000000024010B50B480B4908600B48486060
:102F6000002109488160C1604FF480410161002166
:102F700041618161C1610162FDF7BEFD08B1FDF7EC
:102F800093FC10BD0054004048010020A0860100C1
:102F900010B50B480B4908604FF4E1304860002140
:102FA00008488160C16001610C214161002181619B
:102FB000C161FEF78EFD08B1FDF776FC10BD000083
:102FC000001001409C01002000BFFEE700BFFEE7AB
:102FD00070B5002415E004F1B001C8B200F0DEF8CD
:102FE000002000F0DBF8102000F0D8F8002504E005
:102FF000002000F0E7F8681CC5B2802DF8DB601CEB
:10300000C4B2082CE7DB70BD10B5C820FDF750FC3A
:10301000002400BF05E00449085D00F0BFF8601C13
:10302000C4B2172CF7DB10BD0000002070B50446B9
:103030000D4605F1B001C8B200F0B0F8102141EA28
:10304000141000F0ABF804F00F0000F0A7F870BD0A
:103050002DE9F04780460E4691469A46089F002586
:103060000024A9F12000C5B2B8F17F0F02DDA0460F
:10307000B01CC6B2BAF1100F37D131464046FFF747
:10308000D5FF002411E047B104EB0511274A515C3C
:10309000C943C8B200F096F805E004EB0511234AD5
:1030A000505C00F08FF8601CC4B2082CEBDB701C85
:1030B000C1B24046FFF7BAFF002413E04FB104EB62
:1030C00005110831194A515CC943C8B200F07AF8B9
:1030D00006E004EB05110831144A505C00F072F868
:1030E000601CC4B2082CE9DB1DE031464046FFF706
:1030F0009DFF002415E057B105EB45010C4A02EB9A
:103100004101095DC943C8B200F05CF807E005EB76
:103110004501074A02EB4101085D00F053F8601CCD
:10312000C4B2062CE7DBBDE8F0870000806B000826
:10313000586900082DE9F84304460E4617461D4617
:10314000DDF820904FF0000822E0CDF8009017F84D
:1031500008202B4631462046FFF77AFF0C2D02D17E
:10316000A01DC4B202E004F10800C4B27A2C04DD50
:103170000C2D02D10024701CC6B2782C04DD102D59
:1031800002D10024701CC6B208F1010000F0FF0853
:1031900017F808000028D8D1BDE8F88301B584B03D
:1031A0004FF48070012104AA0B46CDE90021029062
:1031B000002278210248FDF787FD05B000BD000020
:1031C0004801002001B584B04FF48070012104AAA9
:1031D0000B46CDE900210290402278210248FDF7FC
:1031E00073FD05B000BD0000480100202DE9F04747
:1031F000044616461F46DDE908854FF00009012DFB
:1032000002D1DFF83C9008E0022D02D1DFF83490C3
:1032100003E029460CA0FFF785FBFCF7FEFF824682
:103220001048A8FB001089197841C4E90210214612
:10323000484600F019F85046FCF7F7FFBDE8F08764
:10324000940000209C000020536F7274206C696E03
:103250006B2074797065206572726F72203A202538
:10326000750A000080A219002DE9F04180460C4645
:1032700045462846FFF752F928B121462846FFF770
:1032800013F9BDE8F08168680646D4E90230D6E952
:103290000212591A904104D221462846FFF704F938
:1032A000EFE7D6E90210D4E9022351405840014328
:1032B00004D121466868FFF7F7F8E2E72F6800BFFE
:1032C0003E46D4E90230D6E90212591A904104D39D
:1032D00021463846FFF7E8F801E03F68F0E700BF15
:1032E00000BFCEE72DE9F04704460F46904626463C
:1032F0000025A946AA4654B900BF012000F09EFA55
:1033000010B91EA002F0CEFD00BFBDE8F087204638
:10331000FFF7C0FA48B100BF012000F08FFA10B9E2
:103320001CA002F0BFFD00BFEFE700BF307A00F045
:10333000020010B9FCF771FF824600BF706820449C
:10334000A0F1080904F56C7509E04D4500D108E0CD
:1033500041462846B847686820F0404005444D453E
:10336000F3D900BF00BF307A00F0020010B9504618
:10337000FCF75BFF00BF00BFC7E70000696E707518
:103380007420706172616D206973204E554C4C0A37
:10339000000000004C4F535F4D656D496E746567CA
:1033A00072697479436865636B206572726F720A23
:1033B0000000000001460020094A1268914201D134
:1033C00008480CE0084A1268914202D105480D30C5
:1033D00005E0064A1268914201D302480D38704751
:1033E000C800002014020002CC000020C40000200D
:1033F00000BFD1E900231A60D1E900325A600022EF
:103400004A600A6000BF531E8B60CB6070470000AB
:103410002DE9F04104460D460026012D01D1114E43
:1034200007E0022D01D1104E03E029460FA0FFF75F
:1034300079FAFCF7F2FE07464FF0FF33D4E90201B8
:1034400058405940084308D0D4E90221104601F001
:10345000DBFB21463046FFF7CBFF3846FCF7E5FEA5
:10346000BDE8F081940000209C000020536F72742E
:10347000206C696E6B2074797065206572726F7252
:10348000203A2025750A000070B50446FCF7C5FEF9
:1034900005460548006818B1204603490968884771
:1034A0002846FCF7C2FE70BD3C01002010B50A485A
:1034B000D0E900104FF0FF3359405840014307D086
:1034C00000F024F8044B0CCB801A61EB030110BD13
:1034D00000200146FBE700007000002010B50A48FC
:1034E000D0E900104FF0FF3359405840014307D056
:1034F00000F00CF8044B0CCB801A61EB030110BDFB
:1035000000200146FBE70000700000202DE9F84391
:1035100000200090FCF781FE80466846FEF77FFBA6
:1035200006460F462148D0E900108C1940EB0705EC
:103530001F4903C9201A75EB01000ED21B48D0E9C0
:1035400000310098181841F10001184A03C21748C9
:10355000D0E900108C1940EB070500BF144903C9DE
:10356000201A75EB010001D3012000E0002090B982
:103570000120FFF789FFFCF750FE00BF022000F09A
:103580005DF928B90B4B81220BA112A002F08AFC35
:1035900000BF00BFFEE700BF054830C04046FCF753
:1035A00044FE20462946BDE8F8830000780000204C
:1035B00080000020637200082E2E5C4C6974654FF9
:1035C000535F4D5C7372635C6C6F735F73636865AC
:1035D000642E6300415353455254204552524F527A
:1035E000212025732C2025642C2025730A0000003F
:1035F0002DE9F84F04460D46DFF844A0DFF844B04B
:10360000FCF70BFE009022462B46504600F090F847
:1036100006460F4622462B46584600F089F880465B
:1036200089460098FCF701FEB6EB080077EB09002D
:1036300003D230463946BDE8F88F40464946FAE79E
:10364000940000209C0000202DE9F04106460D4624
:103650002F4655F8044C04F0804090B104F000402F
:1036600078B100BF022000F0E9F830B9234640F2FB
:103670000B52134913A002F015FC00BF0020BDE857
:10368000F08104F08040C8B124F0804404F00300CD
:1036900020B9A5F10800801BA0420ED200BF022075
:1036A00000F0CCF830B9234640F21352044905A08B
:1036B00002F0F8FB00BF0020E1E72F1B3846DEE7F1
:1036C000A97200085B25733A25645D6761705369D0
:1036D0007A653A30782578206572726F720A000038
:1036E00010B50446012C01D1084810BD022C01D1AF
:1036F0000748FAE700BF022000F0A0F810B905A0C3
:1037000002F0D0FB00BF0020EFE700009400002093
:103710009C000020496E76616C696420736F72743E
:10372000206C696E6B2074797065210A00000000BE
:103730002DE9F047064614461D46B046D8F80490D9
:103740004046FEF7EBFE18B10A484114BDE8F08789
:103750004F460949611845F10000D7E90223891A4B
:10376000984104D30449601845F10001EEE7D7E918
:103770000201EBE7CE13FEFF30EC010000200A4A05
:10378000126852B1084A1268B2FA82F1074A02EB93
:10379000C1025268A2F1480005E0054A1268054BD3
:1037A0001B6802EBC3107047480000202C02002069
:1037B000B4000020C80000200AE001F0BDF905486F
:1037C000006818B103480068804701E0FEF720FA5E
:1037D000F3E70000E400002010B586B018230022B3
:1037E0001946684603F09DF80E4800904FF4C070EB
:1037F00003900DA004901F20ADF8040069460D4809
:10380000FFF7D6F9044614B1204606B010BD0A49A8
:103810000968084A126801EBC21001F055FA00204D
:10382000F3E70000B937000849646C65436F7265BF
:1038300030303000C8000020B400002010B504462D
:10384000022C01DD012010BD012C0FD0002C0DDD5C
:10385000052C0BDC00BF0120FFF7F0FF28B904485E
:1038600050F8241003A002F01DFB00BF0020EAE77F
:10387000240100205B25735D0000000002465368B0
:1038800002F56C70884204D8D018884201D9012012
:1038900070470020FCE7000070B505460C46206824
:1038A0008068A8B1206881682846FFF7E7FF78B9EB
:1038B00000BF0220FFF7C2FF38B9206840F20A6259
:1038C00011498368114802F0EDFA00BF012070BD74
:1038D0002068C068A8B12068C1682846FFF7CEFFFD
:1038E00078B900BF0220FFF7A9FF38B920684FF46C
:1038F000C2620549C368064802F0D4FA00BF01203D
:10390000E5E70020E3E70000B6720008F474000861
:10391000607400082DE9FC5F054688469146002446
:1039200008F10B0020F003062F46B24601976A46C5
:103930005146384600F0D8F88346BBF1000F01D15C
:10394000002005E05A46DDE9001000F095FB5846DE
:103950000446002C34D100BF0220FFF76FFF10B9DE
:10396000244802F09FFA00BF00BF287A00F002004E
:1039700010B94846FCF759FC00BF284600F07CFA15
:1039800000BF287A00F0020010B9FCF746FC81461F
:1039900000BF00BF0220FFF751FF20B93246164991
:1039A00016A002F07FFA00BF00BF0220FFF746FF1B
:1039B00010B9104802F076FA00BF0020BDE8FC9F65
:1039C00006F110006168814204D332462146284640
:1039D00000F0D6FD606840F000406060606820F054
:1039E0004041284600F026FE00BF204600F10801B5
:1039F0000846E3E7907300089E7200085B25735D3C
:103A0000204E6F207375697461626C652066726503
:103A10006520626C6F636B2C2072657175697265CD
:103A20002066726565206E6F64652073697A653AF9
:103A300020307825780A00002DE9F04705460C462D
:103A400005F56C7668682844A0F108090027B84697
:103A500000BF00BF2B464A463146204600F0F0FA30
:103A600000B92BE0606800F0004000B926E0606813
:103A700020F0404007192B464A463146384600F0B0
:103A8000DFFA00B91AE0002020B900BF3868A04270
:103A900000D013E0B4420ED02B464A46314620688F
:103AA00000F0CEFA30B12068416821F0404108446E
:103AB000A04200D002E04FF0010800BF00BFB8F103
:103AC000000F02D10120BDE8F087B8F1000FC0D08F
:103AD0000020F8E70146C843401C0140B1FA81F0DC
:103AE000C0F11F0080B270472DE9F74F84B08946BE
:103AF0009246049D484600F07BF80646DF2700BF4B
:103B00001F2E01D234460BE03146484600F004FD3A
:103B10008346A6F11F010BEBC10000F11F077C1CBF
:103B2000A046019544464FEA5811019D05F1140045
:103B300050F82100009008F01F0101208840411E2C
:103B4000009888430090009840B10098FFF7C2FFAA
:103B500028F01F0100EB0108404600E0DF20039041
:103B60000398DF2801D0039C3BE0601C20214A1E03
:103B70000244824201D94A1E00E0002202444B1E48
:103B80009A4314460DE0610905F1140050F8210034
:103B90000290029820B10298FFF79CFF044420E0B5
:103BA0002034DF2CEFD300BFDF2F03D1002007B07C
:103BB000BDE8F08FCAF8007029463A464B4600200F
:103BC00001F1300C5CF8220006E0D0F804C09C45FE
:103BD00001D3844603E0C0680028F6D184466046DD
:103BE000E5E7CAF8004005F1300050F82400DEE7B0
:103BF0000146802903D20120C0EB9100704708469E
:103C000030B100BFB0FA80F2C2F11F0292B200E000
:103C1000002202F11800F1E72DE9F04107460C46B9
:103C200021463846FFF708FF8046B8F1000F0BD059
:103C300000BF0220FFF702FE10B91AA002F032F90D
:103C400000BF4046BDE8F0813869616821F040411D
:103C5000401A3861606820F04040606025685DB1BE
:103C6000686800F0004038B92946384600F0BAF8D4
:103C7000204600F02EFA2C46606820F040400619DD
:103C800056B1706800F0004030B93146384600F057
:103C9000A9F8304600F01DFA2146384600F054F8E5
:103CA0004046CFE74F734D656D467265652063688A
:103CB00065636B206572726F72210A0070B50646EB
:103CC0003046FFF795FF04461F2C01D2204670BDF9
:103CD0002146304600F020FC0546A4F11F001F21BC
:103CE00001EBC0002844F2E770B505460C462146BA
:103CF0002846FFF7C3FD90B1A06820B12846A1680F
:103D0000FFF7BCFD58B1E06820B12846E168FFF735
:103D1000B5FD20B128462168FFF7B0FD08B90120A4
:103D200070BD04F0030058B9207A00F0030038B9E0
:103D3000207B00F0030018B9207800F0030008B1E0
:103D40000120EDE70020EBE72DE9F04105460E46A6
:103D50007068FFF7B3FF0446DF2C03D3214615A09C
:103D6000FEF7E0FD29462046324601F1300757F8BC
:103D7000203003B19A6000279760D36001F13007CB
:103D800047F8202000BF4FEA501C1C3F57F82C700A
:103D900000F01F084FF0010C0CFA08FC47EA0C0772
:103DA0004FEA501801F1140C4CF8287000BF00BF06
:103DB000BDE8F08154686520696E646578206F669F
:103DC0002066726565206C69737473206973206561
:103DD00072726F722C20696E646578203D202575A3
:103DE0000A00000070B505460C466068FFF766FFE4
:103DF000064622463146284600F03EF970BDF0B531
:103E0000024600230024002500270026D2F804C023
:103E10000CF0004CBCF1000F09D1D2F804C02CF01A
:103E200040407F1C0444864207D2064605E0D2F893
:103E300004C02CF040406D1C0344D1F800C09C44E9
:103E4000C1F800C0D1F804C0A444C1F804C0D1F83E
:103E500008C0B44502D9D1F808C000E0B446C1F8A2
:103E600008C0D1F80CC0AC44C1F80CC0D1F810C0E7
:103E7000BC44C1F810C0F0BD70B58CB004462546F6
:103E8000182106A8FCF768FA06A92046FEF760FC90
:103E9000012801D10CB070BD00BF0120FFF7CEFC9E
:103EA00010B9144801F0FEFF00BF00BF0120FFF76A
:103EB000C5FC10B9104801F0F5FF00BF00BF01209C
:103EC000FFF7BCFC98B92046FEF70FFD0646DDE97A
:103ED0000823DDE90A10CDE90123CDE90310079895
:103EE0000090069B32460548296801F0DBFF00BFC1
:103EF00000BFCFE7407500080C730008C8750008C4
:103F00002DE9F04105460C46164668682844A0F1A4
:103F10000807284600F004FA05F56C70306000BF11
:103F20003068206010E03A462946204600F05CF8F0
:103F3000012801D1BDE8F081206830602068416827
:103F400021F04041084420602068B842EBD300BF14
:103F500000BF0020EEE7000006460D4614461F464F
:103F60002146284600F0C4F800BF0823224619461F
:103F70000C4802F0AFFC08232A46194609480830CD
:103F800002F0A8FC00BF00BF307A00F0020010B9B8
:103F90003846FCF74AF900BF2246294602A0FEF740
:103FA000C1FC00002C0301204D656D6F7279206902
:103FB0006E7465677269747920636865636B2065E8
:103FC00072726F722C20637572206E6F64653A2076
:103FD000307825782C20707265206E6F64653A20E9
:103FE000307825780A00000070B504460D46164664
:103FF000206801682846FFF741FC78B900BF02201D
:10400000FFF71CFC38B9206840F221620A490368B6
:104010000A4801F047FF00BF012070BD20684068DA
:1040200000F0004030B921462846FFF735FC08B1C2
:104030000120F2E70020F0E7CF720008AC7400081E
:104040002DE9F04104460D4616461F46A54201D80B
:10405000B44202D90020BDE8F081606800F0004061
:1040600008B10120F7E738462168FFF707FC08B9D7
:104070000020F0E70120EEE730B500F1300353F8FF
:10408000213093421CD100F13003D46843F8214021
:10409000D3688BB900BF4C0900F1140353F82430E6
:1040A00001F01F050124AC40A3434D0900F11404A5
:1040B00044F8253000BF0BE00023D468A36007E07C
:1040C000D2E90243E360D36813B1D2E90234A360BA
:1040D00030BD00210268526843681A4403685A6080
:1040E00042681118002212B900BF02680A607047C6
:1040F000F8B505460E4600270024B54208D100BF9A
:104100000120FFF79BFB10B921A001F0CBFE00BFFF
:10411000686800F0004058B12F4600BF0120FFF74B
:104120008DFB20B924A0D7E9001201F0BBFE0EE000
:104130002C4600BF0120FFF781FB38B96068009072
:1041400025A0D4E90232216801F0ACFE00BF7068FE
:1041500000F0004058B1374600BF0120FFF76EFB6A
:1041600020B927A0D7E9001201F09CFE0EE03446EA
:1041700000BF0120FFF762FB38B96068009027A0FC
:10418000D4E90232216801F08DFE00BFF8BD0000C5
:104190000A207468652062726F6B656E206E6F64B2
:1041A0006520697320746865206669727374206E77
:1041B0006F64650A000000000A2062726F6B656E12
:1041C000206E6F646520686561643A202570202048
:1041D000307825782C2000000A2062726F6B656EA3
:1041E000206E6F646520686561643A202570202028
:1041F0002570202025702020307825782C20000084
:1042000070726576206E6F646520686561643A201F
:1042100025702020307825780A00000070726576BD
:10422000206E6F646520686561643A2025702020E7
:104230002570202025702020307825782C20000043
:1042400070B505460C46264631462846FFF7D7FD91
:1042500070BD00002DE9F84304460E461D48056870
:10426000D0F8008026E02846FEF73FFB4719AC4215
:1042700002D8A019A84204D8BC4218D2A019B8424A
:1042800015D300BF0220FFF7D9FA60B92846FEF720
:104290002CFB00EB0509A2192B4621460EA0CDF8F8
:1042A000009001F0FFFD00BF0120BDE8F883A846A3
:1042B000D5F8AC53002DD6D10648006810B9054892
:1042C000046001E0C8F8AC430020C4F8AC0300BFB0
:1042D000EBE70000FC000020706F6F6C205B307813
:1042E00025782C20307825782920636F6E666C69DC
:1042F0006374207769746820706F6F6C205B30780E
:1043000025782C2030782578290A000010B504463D
:104310004FF46C7300221946204602F002FB10BDD8
:104320002DE9FC410446002500272068A04202D167
:1043300004F0030070B100BF0220FFF77FFA30B92C
:1043400040F24B63224A214622A001F0ABFD00BFA0
:10435000BDE8FC8100261EE004F1300050F8265034
:1043600016E029462046FFF7BFFC80B1012700BFB9
:104370000220FFF763FA48B9D5E90201CDE900014F
:104380002A4631461FA02B6801F08CFD00BFED6866
:10439000002DE6D1761CDF2EDED3002F15D000BF16
:1043A0000120FFF74BFA20B9214625A0626801F0F1
:1043B00079FD00BF00BF0120FFF740FA20B92CA013
:1043C000D4E9031201F06EFD00BF00BFC0E700009A
:1043D000E672000877726F6E67206D656D20706FF2
:1043E0006F6C20616464723A2025702C2066756EB3
:1043F000633A2025732C206C696E653A2025640A87
:1044000000000000467265654C697374496E64650E
:10441000783A2025752C206E6F64653A2025702C23
:1044200020624E6F64653A2025702C20707265768C
:104430003A25702C206E6578743A2025700A0000A9
:104440006D656D20706F6F6C20696E666F3A2070BD
:104450006F6F6C416464723A2025702C20706F6F0E
:104460006C53697A653A20307825780A000000009C
:104470006D656D20706F6F6C20696E666F3A20708D
:104480006F6F6C57617465724C696E653A20307855
:1044900025782C20706F6F6C43757255736564536B
:1044A000697A653A20307825780A00002DE9F041D4
:1044B00004460E4625460027B8464FF46C7300228A
:1044C0001946284602F02DFA2C606E60A86820F08C
:1044D0000300A86004F56C77A6F56E707860A019EB
:1044E0000838386039462046FFF72EFCA019A0F1A5
:1044F00008080020C8F80400C8F80070D8F80400C4
:1045000040F00040C8F804004FF46E70286128693C
:10451000E8600020BDE8F08170B504460D461F2D0F
:1045200001D3802C0CD200BF0220FFF787F920B9FD
:104530002246294606A001F0B5FC00BF002070BD50
:10454000E100A5F1180021FA00F6A6F10800F6E74F
:10455000666C206F722073697A6520697320746FAE
:104560006F20736D616C6C2C20666C203D2025756E
:104570002C2073697A65203D2025750A0000000013
:104580002DE9F04180460D46164600240027AC195F
:1045900025606868801B60606E60606820F0404045
:1045A0000719002060B900BF3C60786800F0004047
:1045B00030B939464046FFF715FC3846FFF789FD0C
:1045C00021464046FFF7C0FBBDE8F08110B50C481E
:1045D0000C4908604FF480310A480068FEF724F95E
:1045E000044600BF0420FFF729F930B94FF48032A8
:1045F0000448016804A001F055FC00BF204610BD2E
:104600002C030020F80000204C6974654F5320688B
:10461000656170206D656D6F72792061646472658B
:1046200073733A25702C2073697A653A3078256C5B
:10463000780A000002690A440261D0E903329A4212
:1046400001D90269C260704770B500251348FDF7B3
:104650007DFF902112480068FDF7A6FF1149086010
:104660000846006808B9104870BD002411E004EB4A
:1046700044000C49096801EBC0056C6000202870FB
:1046800005F10806054908683146FDF7F1FE00BF4F
:10469000641C062CEBD30020E6E700002C00002071
:1046A000F800002028000020001D000270B504461C
:1046B0000D461646A8682064E662E868A0620020FD
:1046C000A063E0630220A080A888E0800020A060B2
:1046D000E060286860634FF0FF306066002020676C
:1046E000286960640020A067E9683246206BFDF706
:1046F00051FB20604FF0FF32A261E26104F16400DF
:10470000FDF70EFE686900F0004038B1A08840F463
:104710000040A08004F15800FDF721FF002070BD8B
:104720002DE9F05F04460F4691469846002507F0B4
:10473000030020B1012810D0032828D119E0B4F8D3
:104740000CA0A089401CE188884202D10020A081F1
:1047500002E0A089401CA08124E0A08918B9E0886B
:10476000401EA08102E0A089401EA081B4F80CA0E8
:1047700018E0B4F80EA0E089401CE188884202D11C
:104780000020E08102E0E089401CE0810AE000BFF7
:104790000220FFF753F810B92BA001F083FB00BFF4
:1047A000BDE8F09F00BF218920680AFB010507F0E2
:1047B000040050B107F0010018B92868C9F80000DA
:1047C0003FE0D9F8000028603BE007F00100E0B9C5
:1047D0002089284450F804BC5B462A464846D8F84D
:1047E000001002F077F8064666B100BF0220FFF71E
:1047F00025F828B93346F6221B491CA001F052FBCC
:1048000000BFCDE7C8F800B01BE021892944D8F8E3
:10481000000041F8040C21894A462846D8F80030A7
:1048200002F058F8064666B100BF0220FFF706F80E
:1048300028B93346FF220C490CA001F033FB00BF1E
:10484000AEE700BFACE70000696E76616C6964207A
:104850007175657565206F70657261746520747916
:104860007065210A000000003872000825735B257E
:10487000645D206D656D637079206661696C656447
:104880002C206572726F722074797065203D20252E
:10489000750A000070B500254FF484711748006850
:1048A000FDF782FE164908600846006808B91548F9
:1048B00070BD4FF48473002219461148006802F05D
:1048C00030F81148FDF745FE002412E004EB4400E7
:1048D00000EBC4000A49096801EB80056C8105F111
:1048E0001C06094908683146FDF7C9FD00BF601C78
:1048F00084B2062CEADB0020DAE70000F800002092
:104900003400002001060002380000202DE9FF4F8E
:1049100083B082460E469946DDF840B000BF0020C5
:10492000029006F001050DB9012000E000200746C5
:10493000FBF773FC00900AEB4A0000EBCA004E49FB
:10494000096801EB80043046A18809B94B4918E099
:1049500000F0010141B92189091FD9F800208A42DC
:1049600002D2464915310CE000F0010141B1218924
:10497000091FD9F800208A4202D940490B3100E0D2
:1049800000210191019800B170E004F1100030F8AD
:104990001500A0BBBBF1000F09D106F0010010B952
:1049A0003648133001E035480C3001905EE0344861
:1049B000008818B13148001F019057E03148D0F805
:1049C000008004F1140101EBC500594600F0A0FB82
:1049D0000098FBF72AFCFEF7B1F8FBF71EFC0090ED
:1049E00098F8040000F0400050B1B8F8040020F03E
:1049F0004000A8F804002148C01E019036E000E005
:104A000009E004F1100030F81500401E81B204F1F5
:104A1000100020F815104B4631462046059AFFF746
:104A20007FFE04F1140101EBC700FDF767FD90B9AB
:104A300004F1140000EBC700406848380290029867
:104A400000F07EFB0098FBF7F0FBFEF777F8002004
:104A500007B0BDE8F08F04F1100030F81700401CDB
:104A600081B204F1100020F8171000BF0098FBF786
:104A7000DCFB0198ECE70000340000200A0600028D
:104A8000C0000020B80000202DE9F04105460E4688
:104A900014461F46062D02D30A48BDE8F08106B130
:104AA00014B90848401CF8E7206810B90548801C74
:104AB000F3E72FB1FDF7ECF810B102480A30ECE74C
:104AC0000020EAE70E0600022DE9F04104460D46FB
:104AD00016461F46062C02D30A48BDE8F08115B9D8
:104AE0000848001DF9E7306810B90648401DF4E792
:104AF0002FB1FDF7CDF810B10248401FEDE70020BF
:104B0000EBE700000E06000270B504460D46A088D3
:104B100000F4807030B904F148010648FDF7CBFC81
:104B20000120A080E06A18B1E06A28600020E062FD
:104B300070BD0000D000002038B50024FBF76DFBED
:104B4000054618E010484068A0F148040E4948683E
:104B5000FDF7C2FC0020009069462046FFF7D4FF15
:104B60002846FBF762FB094800990068FDF7B6FD8F
:104B7000FBF753FB05460448FDF7E0FC0028E1D0B5
:104B80002846FBF752FB38BDD8000020F800002073
:104B90000620014908607047C4000020828842F066
:104BA00020028280C160704710B50020044608E0F2
:104BB000114901EBC4004060006000BF601C80B27E
:104BC0000446202CF4DB00200C4908600120FEF78D
:104BD00087FD0B4908600846006808B9012010BD30
:104BE0000748006800F0BAFB6FF001014810054A61
:104BF000C2E900100020F2E72C020020480000204B
:104C0000440000206000002010B5064AD2E90032BE
:104C10001B1A8A4105D36FF001035A10014CC4E9F5
:104C2000003210BD600000202DE9F05F4FF0000B56
:104C3000244807683846FDF769FC10B15846BDE8BE
:104C4000F09F78688046FEF731FC05460E4630E05E
:104C5000A8F1100909F110011A480068FEF7C8FB15
:104C60004C46B4F804A00AF02800C8B1A08820F08F
:104C7000A800A0800AF0080050B1A08840F04000D1
:104C8000A08004F14800FDF71DFC0020E063A06354
:104C90000AF0020020B9204600F016F94FF0010B8F
:104CA00000BF3846FDF732FC00B108E07868804666
:104CB00000BFD8E90210691A76EB0000C8D200BF25
:104CC0005846BCE74400002010B50446204600F0DA
:104CD000FBF810BD2DE9FF5F82B082468B46DDE90F
:104CE000108900BF0020019050465946FEF780FC15
:104CF00004460D46B8EB040079EB05000CD2B4EB8A
:104D0000080265EB0900244B00219A1A814103D265
:104D100044464D4601200190204903C9201A75EBF5
:104D2000010028D21D48D0E90010091B60EB0500E6
:104D30001B4BC91A70F100001DD3B4EB0A0665EBDA
:104D40000B074FF080710020891BB8410AD215482B
:104D5000006820B130463946124A126890474FF039
:104D6000807600270F48006860B1002001460D4A98
:104D70001268904706E000210B4A1160516006B0AE
:104D8000BDE8F09F1298009030463946019B049A86
:104D900000F0FAF900BFF2E7409002006000002046
:104DA00030EC01006800002058000020014A03C2D6
:104DB0007047000070000020FEB5FBF72EFAFEF7EA
:104DC000DDFC0446A08840F01000A0801A48446032
:104DD000406819490860012018490860FEF796FBF1
:104DE0000546FFF7E3FFFEF761FBC4E90801204633
:104DF00000F03EF86FF001004110114A03C240106C
:104E00001049086001200290A068C217D4E9083157
:104E100018185141CDE90001D4E908512846226B08
:104E2000FFF758FF00BF0120FEF708FD10B906A0EC
:104E300001F038F800BFFEBDB8000020E0000020FF
:104E4000600000204C000020456E746572696E673A
:104E5000207363686564756C65720A00014609B960
:104E600001207047014801600020FAE7400000205F
:104E700070B50446207900F00400F0B10F49206BB2
:104E80000968884215D004F14806E5883046FDF7E8
:104E900019FB0B4901EBC500FDF738FB38B14FF0AA
:104EA0000040E8400749096881430648016000BFA7
:104EB00000BFA08820F00400A08070BDC8000020C2
:104EC0002C0200204800002070B5044600BFA088D6
:104ED000012121EA900098B90120FEF7D5FAFBF7ED
:104EE0009CF900BF0220FEF7A9FC30B9284B4FF413
:104EF000A67228A12EA000F0D5FF00BF00BFFEE7DC
:104F000000BF3249206B0968884238D042F21071E4
:104F1000A068884218DD04F14806E5882C4901EBB9
:104F2000C500FDF7F3FA38B14FF00040E8402949D9
:104F30000968084327490860254901EBC500314647
:104F4000FDF7A4FA00BF1AE02348A06004F1480668
:104F5000E5881F4901EBC500FDF7D8FA38B14FF0DD
:104F60000040E8401B49096808431A49086018498D
:104F700001EBC5003146FDF7F5FA00BF00BFA08880
:104F800020F0AA00A080A08840F00400A08070BD9E
:104F90008B7200082E2E5C4C6974654F535F4D5C1C
:104FA0007372635C6C6F735F73636865642E630018
:104FB000415353455254204552524F52212025739C
:104FC0002C2025642C2025730A000000C800002036
:104FD0002C0200204800002000093D0010B50446C6
:104FE000207900F0040018B12046FFF741FF0BE0E4
:104FF000207900F0080038B104F14800FDF762FAAA
:10500000A08820F00800A080207900F0A00040B126
:10501000012104F11000FEF7FBF9A08820F0A000A8
:10502000A08010BD2DE9FE4F4FF0000A3348D0F8A4
:105030000090FEF73BFA07463A460B46484600F01A
:105040000FFC99F8040000F0A00060B10121D9F82C
:105050000C00CDE90001D9E908733A4609F11000C6
:10506000FEF7C4F808E0B9F8040040F20B1108405C
:1050700010B94846FFF728FFFEF780FB04461F499A
:105080004C60A1450FD0B9F8040020F01000A9F839
:105090000400A08840F01000A080D9E90801C4E90C
:1050A00008014FF0010A2046FFF7E2FE1449206B89
:1050B0000968884206D0D4E90831A0681D1841EB80
:1050C000E07601E00F4D6E140F49D9F83000096801
:1050D000884205D16FF0010148100C4AC2E9001066
:1050E0000120CDE900560290D4E908713846226BC0
:1050F000FFF7F0FD5046BDE8FE8F0000B80000202D
:10510000C8000020CE13FEFF4C00002060000020ED
:1051100070B506460D4609480468A08840F00800AE
:10512000A08004F148013046FDF71CFA681C20B14C
:10513000A08840F08000A080E56070BDB80000202D
:1051400010B5044604F14800FDF7BCF9A08820F032
:105150000800A080207900F0800040B1012104F116
:105160001000FEF755F9A08820F08000A08020797B
:1051700000F0020030B9207900F0100010B920468C
:10518000FFF7A2FE10BD00002DE9FF5F04460D46AB
:105190009346FEF78BF9804689462648D0E90010F1
:1051A000002359405840014308D022480068B8EB1A
:1051B000000A19461F4A1160516001E04FF0000AD1
:1051C0000020BAEB0401A8410DD2B4EB0A0265F14C
:1051D0000000194B00219A1A814104D2B4EB0A0451
:1051E00065F1000501E0144C002518EB040649EBBD
:1051F0000507124903C9301A77EB010001D3BDE856
:10520000FF9F0E9818B1FEF781F90D4A03C203986B
:1052100018B10C48C0F800B003E04FF0FF30094966
:1052200008600648C0C020462946FCF749FD00BF7B
:10523000E5E700005800002030EC0100600000208D
:10524000780000204C0000202DE9FE4F07468846DC
:1052500091464FF0000A154806681548006810B1DD
:105260001448008808B1BDE8FE8F1349306B096807
:1052700088420FD0BAF1000F0CD142F21072B1681F
:10528000914201DC0D4900E0B16808463C1848EB4A
:10529000E07501E00A4C65148DE83002384641465D
:1052A000326BFFF717FD00BFDDE70000B8000020FC
:1052B000E000002050000020C800002000093D0050
:1052C000CE13FEFF08B5002000906846FCF7A7FC4F
:1052D0000548D0E900300099591840F10000024A11
:1052E000C2E9001008BD00007800002002490868EB
:1052F0000021816070470000B800002070B50025D3
:105300001248FDF729F9602111480068FDF74CF9B2
:10531000104908600846006808B90F4870BD0024AD
:1053200010E00C48006800EB0415EC800020288099
:1053300005F10806054908683146FDF7AEF800BFDB
:10534000601C84B2062CECDB0020E7E7880000201C
:10535000F80000209000002000070002014600BF76
:105360004960096000BF00207047000003490968D8
:10537000016002490860002101717047AC00002003
:105380002DE9F8434FF0F008414634480068FDF736
:105390000BF9044614B93248BDE8F88343460022AD
:1053A0004146204601F0BDFA2E4804602E480460B4
:1053B0000020A06025463034012705E0A7602C605E
:1053C0002546781C87B23034052FF7DB08200023F0
:1053D000264A052100901846FDF7B6FA06463EB16A
:1053E00021461E480068FDF779F91D48001DD3E7E6
:1053F00000F0ECF806463EB1214618480068FDF77B
:105400006DF91748401DC7E70220FEF769F91849F2
:1054100008600846006830B9214610480068FDF76A
:105420005DF90120B8E712480068FFF797FF0646CC
:1054300036B1214609480068FDF750F90120ABE775
:105440000C48FFF70BFD064636B1214603480068BD
:10545000FDF744F901209FE700209DE7F8000020B8
:1054600007030002A8000020AC000020A4000020D8
:10547000B0000020795400082DE9F0474FF00009F2
:10548000194807683846FDF751F810B14846BDE89D
:10549000F08778680446FEF721F805460E4619E0C5
:1054A000A4F11808D4E90201C8E90A0121460E480E
:1054B0000068FDF79DFF42462846314600F0AAF8F5
:1054C0004FF001093846FDF731F800B108E078687F
:1054D000044600BFD4E90201281A76EB0100DFD2AE
:1054E00000BF4846D3E70000B00000202DE9FC4192
:1054F00005460E461446022020710221E068CDE9DF
:105500000001D4E90A733A4604F11800FDF76EFE73
:10551000012228463146FFF797FEBDE8FC810000D6
:105520000EB500BF082000904FF0FF336A4601A976
:105530001B480068FDF77AFA0646002E2FD1009826
:1055400008282CD1019800B9ECE7FDF777FC044658
:105550000D46DDE901108847FDF770FC041B61EB87
:105560000505A11E75F1000019D300BF0320FEF749
:1055700065F998B94FF47A710020A4FB017305FB1B
:10558000013104FB0011642203463846FAF79AFE03
:1055900081464A4603A0019900F084FC00BFC1E7A0
:1055A000A400002074696D65725F68616E646C654B
:1055B000722825702920636F737420746F6F206DBB
:1055C000616E79206D73282564290A0010B586B0B4
:1055D000182300221946684601F0A3F908480090F4
:1055E0004FF48060039007A004900020ADF8040001
:1055F00069460748FDF7B4FA0446204606B010BDD8
:10560000215500085377745F5461736B00000000EC
:10561000CC0000207CB505460E461446606900901B
:105620002069019000230822694614480068FDF7AC
:1056300018FA607990B92046FFF798FEA06810F13B
:10564000060F03D2A068401DA06015E00521A068E8
:10565000B0FBF1F201FB1200A0600DE060790128BF
:1056600005D1224628463146FFF740FF04E0607925
:10567000022801D1012020717CBD0000A40000207F
:1056800070B505460B48006800EBC514616B206CD3
:1056900088472066206BFDF70FFB06464EB100BF22
:1056A0000220FEF7CBF818B903A0216B00F0FAFB3B
:1056B00000BF70BDB400002044656C657465205463
:1056C00061736B5B5449443A2025645D20466169EF
:1056D0006C6564210A00000070B52A480068401C0F
:1056E000C501294628480068FCF75EFF2749086085
:1056F0000846006808B9264870BD2B460022294696
:105700002248006801F00DF92248FCF728FF2248E2
:10571000FCF725FF002414E001201C49096801EB77
:10572000C41188801948006800EBC410046317484E
:10573000006800EBC41000F148011648FCF71AFF9E
:10574000641C052CE8D9082300221946134801F0EF
:10575000E8F80E4800680B49096800EBC1100F49D2
:1057600008600846006804631120096888802020CA
:105770000A490968C8804FF0FF3009490860FFF7FF
:1057800013FAB9E7C4000020F8000020B40000209C
:1057900000020003D0000020D8000020B800002044
:1057A000C800002010B504460CB91C4810BD206983
:1057B00010B91A48001DF9E7206810B91748C01C35
:1057C000F4E7A0881F2802DD1448801CEEE7A088BB
:1057D0001F2806D112492068884202D00F48801C39
:1057E000E4E7E068B0F5803F02D90C481F30DDE700
:1057F000E06810B94FF48060E0600821E068FCF7D1
:1058000057FDE06004218020FCF752FDE1688842EA
:1058100002D90248401DC9E70020C7E70102000283
:10582000B937000870B504460025A08800F4004090
:1058300070B104F15800FCF781FE28B9E06DA0F1C9
:1058400048052846FFF77CFCA08840F48070A080C3
:1058500070BD10B5FFF736FDFDF71EF910BD000055
:105860002DE9F041044615461E4600BFD4E9080163
:10587000281A76EB010001D3012000E0002090B946
:105880000120FDF701FEFAF7C8FC00BF0220FDF77A
:10589000D5FF28B90B4B8B220BA112A000F002FB05
:1058A00000BF00BFFEE700BF206A2F1A1449206B1B
:1058B0000968884202D0A068C01BA060C4E90856ED
:1058C000BDE8F081797200082E2E5C4C6974654F3A
:1058D000535F4D5C7372635C6C6F735F7363686579
:1058E000642E6300415353455254204552524F5247
:1058F000212025732C2025642C2025730A0000000C
:10590000C800002070472DE9F04104460E461546B8
:105910001F4616B1B6F1004F02D30220BDE8F08158
:1059200004B145B92CB131462046FAF715FD962051
:10593000F4E70520F2E7B74205D931462046FAF7E9
:105940000BFDA220EAE7AC4201D10020E6E7AC4221
:1059500002D9E819A04204D8A54208D9E019A84202
:1059600005D931462046FAF7F7FCB620D6E70020E5
:10597000D4E72DE9F04105460C4617461E4614B102
:10598000B4F1004F02D30220BDE8F0810DB905202B
:10599000FAE7A64206D93A4621462846FAF7D5FC48
:1059A000A220F1E70020EFE700B593B0302107A86F
:1059B000FAF7D2FC142102A8FAF7CEFC00BF0020AF
:1059C00001902448006840F0805022490860084651
:1059D000006800F08050019000BF00BF00BF0020B1
:1059E00001901D48006840F480401B49086008464B
:1059F000006800F48040019000BF00BF01200790C4
:105A00000004089002200D9041050E9104210F9191
:105A1000A8211091022111910421129107A8FBF7EE
:105A2000B9FC08B1FAF740FF0F2002900220039062
:105A3000002004904FF4A05005904FF48050069041
:105A4000052102A8FBF744FB08B1FAF72DFF13B0BC
:105A500000BD00004038024000700040034800686C
:105A600040F47000014908607047000088ED00E0D4
:105A700010B50248FBF767FF10BD0000E4010020ED
:105A800010B502682B4B98420ED0B0F1804F0BD06E
:105A9000294B984208D0294B984205D0284B984270
:105AA00002D0284B984203D122F070024B681A436F
:105AB000204B984220D0B0F1804F1DD01E4B984211
:105AC0001AD01E4B984217D01D4B984214D01D4B34
:105AD000984211D01C4B98420ED01C4B98420BD0D0
