:020000040800F2
:10000000D839012059020008A54F0008E540000832
:10001000C1470008313600085F6E0008000000008C
:10002000000000000000000000000000A101000826
:10003000DD3A000800000000F50100081D5D000821
:1000400073020008730200087302000873020008BC
:1000500073020008730200087302000873020008AC
:10006000730200087302000873020008730200089C
:10007000730200087302000873020008730200088C
:10008000730200087302000873020008730200087C
:100090003536000873020008730200087302000876
:1000A000730200087302000873020008730200085C
:1000B000730200087302000873020008730200084C
:1000C000730200087302000873020008730200083C
:1000D00073020008C16A0008356B0008596B0008FC
:1000E000730200087302000873020008730200081C
:1000F000730200087302000873020008730200080C
:1001000073020008730200087302000873020008FB
:1001100061690008516A000873020008B95E0008AE
:1001200073020008730200087302000873020008DB
:1001300073020008730200087302000873020008CB
:1001400073020008730200087302000873020008BB
:1001500073020008730200087302000873020008AB
:10016000730200087302000873020008730200089B
:10017000730200087302000873020008730200088B
:100180007302000873020008DFF810D000F0A8FC2A
:100190000048004739780008AFF30080D8390120C3
:1001A0002A4B19680868B0E8F04F80F30988BFF35C
:1001B0006F8F4FF0000080F311887047000000003F
:1001C00006480068006880F3088862B661B6BFF32D
:1001D0004F8FBFF36F8F00DF00BF00BF08ED00E05F
:1001E000DFF80C00016841F470010160704700BF46
:1001F00088ED00E0EFF30980BFF36F8F134B1A68AF
:100200001EF0100F08BF20ED108A20E9F04F10609B
:1002100008B44FF0500080F31188BFF34F8FBFF345
:100220006F8F08F011FF4FF0000080F3118808BCB9
:1002300019680868B0E8F04F1EF0100F08BFB0EC66
:10024000108A80F30988BFF36F8F7047EC0000209D
:10025000EFF30580704700000648804706480047D6
:10026000FEE7FEE7FEE7FEE7FEE7FEE7FEE7FEE766
:10027000FEE7FEE72D5D00088901000840EA010362
:100280009B0703D009E008C9121F08C0042AFAD24C
:1002900003E011F8013B00F8013B521EF9D2704710
:1002A000D2B201E000F8012B491EFBD270470022B8
:1002B000F6E710B513460A4604461946FFF7F0FF65
:1002C000204610BD30B505462A460B4612F8010BF4
:1002D00013F8014B08B1A042F8D01CB1002802D09D
:1002E0006D1CF1E7284630BDCAB2401E10F8011F50
:1002F0008A4202D00029F9D100207047421C10F830
:10030000011B0029FBD1801A704730B5054600203B
:10031000034600E05B1C934205D2EC5CC85C201AEB
:1003200001D1002CF6D130BD70B5064606F0D8FDDF
:10033000046805460A220021304600F0D5FA2C60F8
:1003400070BD2DE9FE4F804681EA0300C00F0C46C8
:10035000009021F0004123F00045B8EB0200A941D4
:1003600005D24046214690461C460B46024623F0E5
:100370000040104347D0270DC7F30A00C3F30A51CA
:100380000290401A019040286BDAC3F3130040F446
:10039000801B0098924620B10023D2EB030A63EB46
:1003A0000B0B01985946C0F14002504600F01DFA6F
:1003B00006460D4650465946019A00F035FA10EBB4
:1003C00008006141002487EA115284EAE7731A4366
:1003D00040D0009A62B3019A012A4FEA075215DC15
:1003E000001B61EB02014FF0004202EA0752CDE927
:1003F0000042001C41F5801132462B4600F0F2FA13
:1004000003B0BDE8F08F40462146F9E7001B61EBE1
:100410000201001C41F5801300185B412018A2F571
:10042000001747EB030140EAD570B6196D4111E0A2
:100430006D084FEA360645EAC0754FEA0752001BC1
:1004400061EB0201001C41F5801149084FEA3000C0
:100450000019514132462B4603B0BDE8F04F00F081
:10046000B2BA0098012240000023D0EB020263EBF5
:10047000E073009821464FEAE074B8EB000061EBAE
:100480000401E9E783F000435BE781F0004158E7AE
:100490002DE9FE4F81EA030404F0004421F00041FD
:1004A00000944FF0000B23F0004350EA01045ED0AB
:1004B00052EA03045BD0C3F30A54C1F30A552C4437
:1004C000A4F2F3340194A0FB0254C1F3130141F4EC
:1004D0008011C3F3130343F4801301FB024400FBB8
:1004E000034E840A970A44EA815447EA8357A4FBDF
:1004F000076802958D0A05FB07854FEA932C04FBDC
:100500000C542705029D4FEA065847EA1637B5EB0B
:1005100008056EEB070C870E920E47EA811742EA38
:100520008312A7FB0201B6EB0B0164EB00042B0D59
:1005300043EA0C335E1844EB1C50DA465146E7FBA5
:100540000201C5F313044FEA0B3343EA14534FEA95
:100550000432019C43EA0603A4F10C040294009CBB
:10056000CDE900B400F03EFA03B0BDE8F08F002002
:100570000146F9E72DE9F04D81EA030404F0004B50
:1005800021F0004514464FF0000A23F0004150EAE4
:10059000050220D054EA01021DD0C5F30A570246D5
:1005A000C5F31303C1F31300C1F30A5640F48015D9
:1005B00043F48013A7EB0608101BD64608F2FD385B
:1005C00073EB050002D308F1010801E092185B41CA
:1005D000B8F1000F03DA00200146BDE8F08D0020DD
:1005E0004FF48011064684460EE0171B73EB050797
:1005F00005D3121B63EB050306434CEA010C4908C3
:100600004FEA300092185B4150EA0107EDD152EAFF
:10061000030012D082EA040083EA0501084305D0F2
:10062000101BAB4106D20122002306E000224FF04E
:10063000004302E06FF0010253101AEB06004CEB8E
:10064000085110EB0A0041EB0B01BDE8F04D00F042
:10065000BAB90EB5C10F80EAE0700844CA0700219C
:1006600040F233438DE80E000A460B4600F0BAF91B
:1006700003B000BD0EB540F2334102910021CDE937
:1006800000110A460B4600F0ADF903B000BD70B58D
:10069000C1F30A5201F000450024C1F3130140F2F6
:1006A000FF3341F480119A4201DA002070BD40F21C
:1006B00033439A42A2F2334203DC524200F0A4F8E0
:1006C00000E090402C43F1D0404270BDC1F30A528B
:1006D00010B5C1F3130140F2FF3341F480119A4287
:1006E00001DA002010BD40F233439A42A2F23342B5
:1006F00003DC524200F088F810BD904010BD00F0BD
:10070000004230F000400AD0C10D01F56071C0F325
:10071000160042EA0151C208400711437047002009
:100720000146704701F0004330B421F0004150EA27
:10073000010206D00A0DA2F56072C1F31301002A6E
:1007400002DC30BC00207047440F44EAC104C10001
:10075000E01830BC00EBC25000F0FEB830B50B46DC
:10076000014600202022012409E021FA02F59D42E1
:1007700005D303FA02F5491B04FA02F52844151EB5
:10078000A2F10102F1DC30BD2DE9F05F0546002049
:1007900092469B4688460646814640241BE02846F2
:1007A00041464746224600F02FF853465A46C01AA3
:1007B000914110D311461846224600F016F82D1A22
:1007C00067EB01084F4622460120002100F00DF89A
:1007D00017EB00094E41201EA4F10104DFDC48465E
:1007E00031462A464346BDE8F09F202A04DB203AE2
:1007F00000FA02F1002070479140C2F1200320FA74
:1008000003F3194390407047202A04DB203A21FA71
:1008100002F00021704721FA02F3D040C2F1200219
:100820009140084319467047202A06DBCB17203A2F
:1008300041FA02F043EAE07306E041FA02F3D040E5
:10084000C2F1200291400843194670470FB40023BB
:1008500000B589B00CA900910B996FF00042CB60F4
:100860001E4B06931E4B07930423CDE901321D4A0C
:10087000089202466B46002000F0E6F909B05DF8E8
:1008800014FB70B586B006464FF0FF300091CDE9FD
:100890000101002015460C4604903246694604A822
:1008A000FFF7D4FF02460498211825B108B1084685
:1008B00000E020462860049800280DD0002A02DDC0
:1008C0000098884208D0081B0094CDE90104324604
:1008D000694604A8FFF7BAFF06B070BD810E000894
:1008E0009F0E00080D0B00082DE9F04791460F46BA
:1008F00080460446002614F8015B2DB100F002F991
:100900000068405DC007F6D12B2D02D02D2D18D0E8
:10091000641E4A463946204600F0D2FA27B13968AB
:10092000A14201D1C7F8008071054FF002040BD538
:100930004042002803DD06F0D3FA0460A007BDE8BA
:10094000F08746F48066E4E70028F8DA06F0C8FA93
:1009500004606FF00040F2E70029A8BF7047401C18
:10096000490008BF20F00100704710B4B0FA80FCC5
:1009700000FA0CF050EA010404BF10BC704749B102
:10098000CCF1200421FA04F411FA0CF118BF012172
:1009900021430843A3EB0C01CB1D4FEA00614FEA52
:1009A000102042BF002010BC704700EBC350104421
:1009B0000029A4BF10BC7047401C490008BF20F0AC
:1009C000010010BC704710B5141E73F1000408DA62
:1009D000401C41F1000192185B411A4301D120F003
:1009E000010010BD2DE9F04D92469B4611B1B1FAC0
:1009F00081F202E0B0FA80F220329046FFF7F5FE75
:100A000004460F4640EA0A0041EA0B0153465A46A3
:100A1000084313D0114653EA010019D0C8F140022F
:100A20005046FFF7F1FE05460E46504659464246EF
:100A3000FFF7DBFE084305D0012004E020463946DD
:100A4000BDE8F08D0020054346EAE0762C433743AD
:100A50000A986305E40AA0EB08000022FD0A44EAB4
:100A600047540A3002D500200146E9E70105101974
:100A70006941DDE9084500196941BDE8F04DA2E78B
:100A8000C1F30A52C1F3130140F2FF3341F4801164
:100A90009A4202DA00200146704740F233439A42FC
:100AA000A2F2334202DC5242FFF7AEBEFFF79DBE18
:100AB00030B5041E71F1000404DB4FF000444042E5
:100AC00064EB0101141E73F1000405DB1C464FF0BA
:100AD0000043524263EB0403994208BF904230BD89
:100AE000064C074D06E0E06840F0010394E807007B
:100AF00098471034AC42F6D3FFF74AFBD8A9000858
:100B0000F8A9000800487047D4A9000810B50446A9
:100B1000FFF7F8FF0068005D00F0010010BD000065
:100B20002DE9FF4F087883B09946FF2805D0491C6E
:100B30002D2804D00024002008E000200BE0012430
:100B4000F9E700EB800003EB4000491C0B78FF2B1A
:100B5000F7D104B1404200230293147819461D4690
:100B60002D2C01D02B2C04D1521C2D2C13D0002461
:100B70000294AA461478FF2C0FD00A25A3FB05780F
:100B800001FB05814FF0000C03FB0C11521CE31913
:100B90004AEB0101EEE70124EAE7814453EA010050
:100BA00002D019F5C87F06DA03980021C0E90011C8
:100BB00007B0BDE8F08F0025AE4E2F46DFF8B882B3
:100BC000184600F0DAF9CDE90001B9F1000002DAC7
:100BD000C9F1000400E004460023A74A1AEB030B06
:100BE00042EB045A12E0E00707D02A463346384663
:100BF0004146FFF74DFC074688462A4633461046D5
:100C00001946FFF745FC05460E466410002CEAD154
:100C1000DDE90001B9F1000F5A46534606DAFFF745
:100C2000A9FC3A464346FFF7A5FC05E0FFF730FC78
:100C30003A464346FFF72CFC029A0AB181F0004184
:100C4000039AC2E90001B3E72DE9FF4F1F468DB0BB
:100C5000D7E901464FF0FF382E2045464FF00009F6
:100C60000B90B9696D1C0E988847396A824688478F
:100C70000028F6D1BAF1FF3F0AD024F4D064002E48
:100C800011DDBAF12B0F08D0BAF12D0F0BD102E014
:100C9000404611B08DE744F48064B9696D1C0E982C
:100CA00088478246761E6946600501D52D2000E002
:100CB0002B208DF8000001F1010B0DF1200809E057
:100CC000B9696D1C0E98884782460F9844F40074E9
:100CD000761E0560002E02DDBAF1300FF0D00B99C0
:100CE0008A453ED144F0800406E00F99681CA9F1C2
:100CF000010944F400740860B9696D1C761E0E98F1
:100D0000884782463028F0D02BE00B998A4505D1E0
:100D1000200603D444F08004761E18E0504606F006
:100D2000DDF908B30DF11301761E44F400748B4510
:100D300008D2AAF130000BF8010B200607D5A9F163
:100D4000010003E0200602D409F101008146A0055C
:100D500002D50F99681C0860B9696D1C0E98884708
:100D60008246002ED1DC53E0002E51DDBAF1650F32
:100D700002D0BAF1450F4BD1A00549D5B9696D1C18
:100D800024F44074761E0E9888478246002E0CDDAF
:100D90002B2804D0BAF12D0F07D144F48074B9691F
:100DA0006D1C0E9888478246761EE00501D52D21E0
:100DB00000E02B2108F8011BCDF82C8021E00DF17B
:100DC0002901761E44F4007488450CD2AAF1300043
:100DD00010F0FF0088F8000002D10B99884509D96E
:100DE00008F1010806E0E00501D5244801E042F2DF
:100DF0000F708146B9696D1C0E98884782460F981E
:100E00000560002E04DD504606F068F90028D6D1B2
:100E1000F9690E988847FF208BF8000088F80000D9
:100E20000020069007904B466A4608A906A8FFF7DF
:100E300077FEA00502D46FF001002AE714F0240F1A
:100E40000AD0E00714D1DDE906123868031D3B60C3
:100E50000068C0E900120BE0DDE90601FFF762FC63
:100E60000146E00704D13868021D3A60006801605D
:100E700028460EE7000014400000F03FF1D8FFFFC5
:100E8000426842B1016811F8013B23B1521EC0E92A
:100E90000012184670470121C160881E70474268E1
:100EA0005AB1C368016843B983688B4205D0491EB3
:100EB000521CC0E90012002070474FF0FF3070470D
:100EC0002DE9F05F82460078002715468B460AF12F
:100ED0000104B946302801D09DB113E014F8010B8C
:100EE0000127782803D0582801D045B10AE00DB178
:100EF000102D07D10027102514F8010B02E008255A
:100F000000E00A250026B0460EE005FB080005FBC0
:100F100006F1012701EB10461FFA80F8B6F5803F75
:100F200000D3B94614F8010B294600F018F8002840
:100F3000EBDABBF1000F05D00FB1641E00E05446A0
:100F4000CBF80040B9F1000F06D005F0C9FF02212F
:100F50000160C81EBDE8F09F48EA0640FAE73A285B
:100F600000D2303820F02002412A01D3A2F137000C
:100F7000884201D34FF0FF3070470EB540F2334244
:100F800002920022CDE900221346FFF72BFD03B0A9
:100F900000BD70B58C1810F8015B15F0070301D186
:100FA00010F8013B2A1106D110F8012B03E010F8CC
:100FB000016B01F8016B5B1EF9D12B0705D40023EF
:100FC000521E0DD401F8013BFAE710F8013BCB1A91
:100FD000921C03E013F8015B01F8015B521EF9D586
:100FE000A142D8D3002070BD21B1826842F0010235
:100FF000826003E0826822F0010282607047000094
:101000000021084A1168084A1140D0E900231A4318
:1010100083681A43C3681A431143044AC2F804138D
:101020007047000004230140E030FCFF0020014035
:101030000146C86C80B270470246002013680B401E
:101040000BB1012000E000207047000030B50246DF
:10105000002000235068104C20400D790C6844EAB1
:1010600005242043506090680C4C2040D1E9035483
:101070002C438D682C434D7944EA4504204390600D
:10108000D06A20F470000C7D641EE4B2234340EA71
:101090000350D06230BD0000FFFEFFFCFDF7FFC033
:1010A000F0B504460D4600200021092D11DDE06851
:1010B000A5F10A0606EB4607072606FA07F188435C
:1010C000A5F10A0606EB460603FA06F10843E060BE
:1010D0000CE0206905EB4507072606FA07F188436F
:1010E00005EB450603FA06F108432061072A0FDAEB
:1010F000606B561E06EB86071F2606FA07F188432B
:10110000561E06EB860605FA06F10843606322E0E8
:101110000D2A0FDA206BD61F06EB86071F2606FA6C
:1011200007F18843D61F06EB860605FA06F1084349
:10113000206310E0E06AA2F10D0606EB86071F2689
:1011400006FA07F18843A2F10D0606EB860605FABA
:1011500006F10843E062F0BD816841F080418160A2
:10116000704700001CB50121102004F065F9022031
:10117000009001208DF8040000208DF80600032067
:101180008DF8050001208DF807006946034802F03C
:1011900079FE0221014802F0E9FE1CBD0010024068
:1011A00000B58BB00121082004F046F90121480662
:1011B00004F052F90320099002208DF82800002045
:1011C0008DF82A0003208DF8290001208DF82B00CE
:1011D00009A92D4802F056FE092200212A4802F0F2
:1011E00099FE09220121284802F094FE00208DF882
:1011F0001A008DF81B008DF81C0001208DF81D00D1
:1012000000208DF81E008DF81F008DF816008DF857
:10121000170003208DF8180001208DF81900062012
:10122000ADF8140005A9194802F0C3FA00208DF8A2
:101230000E00ADF80400ADF80600ADF80800ADF8FA
:101240000A008DF80F0001208DF810000020ADF885
:101250000C0001208DF8110001A802F01DFA0122F6
:1012600002210A4802F09CFA14208DF82000012087
:101270008DF821008DF822008DF8230008A803F0D6
:1012800093FE0BB000BD0000000C02400064004063
:101290002DE9F04106460D4617460B480660002032
:1012A0000949087248728D72002405E0395D0648CC
:1012B0000B300155601CC4B2AC42F7D3024903485D
:1012C00002F079FBBDE8F081480500200064004091
:1012D00010B52E4802F0B8F8002855D02B480078F9
:1012E000312817D12948C07840B2A0EB80004000D7
:1012F0002749C8802548007940B200EB40004000F3
:1013000008812248407840B26FF0130110FB01F0D1
:101310001F4948811D480078322817D11B48C078E2
:1013200040B2A0EB800040001949C88017480079FE
:1013300040B200EB4000400008811448407840B2C1
:101340006FF0130110FB01F0114948810F4800783C
:1013500033280ED10D48007940B200EB4000400028
:101360000B49C8800948807840B2A0EB00104000CB
:10137000488106480078422806D10448407855281C
:1013800002D101200349087010BD0000260400208E
:10139000680100205500002010B5042004F0AAFCCC
:1013A0000E4800680E49B0FBF1F00E4908700B487A
:1013B00000680B49B0FBF1F44FF47A7044434FF0EE
:1013C000E020006940F002004FF0E021086108468B
:1013D0004461006940F00100086110BD2400002054
:1013E00040420F009C00002010B504464FF47A7173
:1013F00004FB01F000F002F810BD000070B50346D8
:1014000000224FF0E02675690D4E367803FB06F496
:101410004FF0E026B16910E04FF0E026B069884255
:101420000BD0884202D20E1A324402E02E1A0E4429
:1014300032440146A24200D300E0EDE700BF70BD98
:101440009C0000201CB50121102003F0F5FF0420B2
:10145000009001208DF8040000208DF80600032084
:101460008DF8050001208DF807006946094802F053
:1014700009FD0820009001208DF806006946054806
:1014800002F000FD0120044908600449C1F88C0203
:101490001CBD00000010024088024242000042428F
:1014A00070B50446002602F0CDFF2112A02202EB07
:1014B0004101C8B202F06EFF03F050F82546E11773
:1014C00004EB11610912A4EB0121C8B202F062FF22
:1014D00003F044F802F0B6FFA12002F05BFF03F036
:1014E0003DF8002002F0FAFE064602F0EBFF30461F
:1014F00070BD70B504460E4602F0A4FF2112A02272
:1015000002EB4101C8B202F045FF03F027F825467F
:10151000E11704EB11610912A4EB0121C8B202F03A
:1015200039FF03F01BF8304602F034FF03F016F8E1
:1015300002F0C8FF42F21070FFF760FF70BD4FF07D
:101540008040406A80B2704700B589B001210846EA
:1015500003F072FF0121022003F06EFF0121084613
:1015600003F07AFF01220F21294802F0D3FC012267
:101570000321284802F0CEFC4FF4004007900220DF
:101580008DF8200003208DF8210000208DF8220026
:1015900001208DF8230007A91D4802F073FC0820E4
:1015A000079007A91B4802F06DFC4FF0804004F043
:1015B000F1FC04A804F0F6FF0020ADF810004FF68F
:1015C000FF7005900020ADF81800ADF8120004A9D6
:1015D0004FF0804004F0A4FF00231A4603214FF08F
:1015E000804004F09FFD01A804F005FE0620ADF840
:1015F0000C0001A94FF0804004F0C6FD00204FF020
:10160000804148620121880704F0A9FC09B000BDAF
:1016100000000240000402404FF0804148627047E1
:101620000148006880B270472404004000B589B0CA
:101630000121022003F000FF0121022003F00CFF32
:1016400002220421244802F065FC022205212248DE
:1016500002F060FC3020079002208DF8200003206B
:101660008DF8210000208DF8220001208DF8230044
:1016700007A9194802F006FC184804F08BFC04A8DE
:1016800004F090FF0020ADF810004FF6FF700590B9
:101690000020ADF81800ADF8120004A90F4804F0BE
:1016A0003FFF00231A4603210C4804F03BFD01A82C
:1016B00004F0A1FD0620ADF80C0001A9074804F0D4
:1016C00063FD00200549243108600121034804F02E
:1016D00046FC09B000BD00000004024000040040C8
:1016E0000149086070470000240400400148006878
:1016F00080B27047240C004000B589B00121084633
:1017000003F09AFE0121082003F0A6FE0222002128
:10171000244802F0FFFB02220121224802F0FAFBDA
:101720000320079002208DF8200003208DF821006F
:1017300000208DF8220001208DF8230007A9194808
:1017400002F0A0FB184804F025FC04A804F02AFFCE
:101750000020ADF810004FF6FF7005900020ADF8A6
:101760001800ADF8120004A90F4804F0D9FE0023B8
:101770001A4603210C4804F0D5FC01A804F03BFDF7
:101780000620ADF80C0001A9074804F0FDFC00207C
:101790000549243108600121034804F0E0FB09B049
:1017A00000BD000000000240000C0040014908603C
:1017B00070470000240C00400148006880B2704768
:1017C0002408004000B589B00121082003F034FE50
:1017D0000121042003F040FE02220C21244802F0E3
:1017E00099FB02220D21224802F094FB4FF4405055
:1017F000079002208DF8200003208DF821000020A2
:101800008DF8220001208DF8230007A9184802F066
:1018100039FB184804F0BEFB04A804F0C3FE002006
:10182000ADF810004FF6FF7005900020ADF81800DD
:10183000ADF8120004A90F4804F072FE00231A4606
:1018400003210C4804F06EFC01A804F0D4FC06202F
:10185000ADF80C0001A9074804F096FC00200549EA
:10186000243108600121034804F079FB09B000BD70
:10187000000C024000080040014908607047000069
:10188000240800401CB50121102003F0D5FD0121E2
:10189000094802F06DFB0120009000208DF8040043
:1018A00003208DF8050001208DF8070069460248E5
:1018B00002F0E8FA1CBD0000001002400348006876
:1018C00008B9012070470020FCE7000000024242F6
:1018D0001CB50121082003F0AFFD08200090012075
:1018E0008DF8040000208DF8060003208DF8050017
:1018F00001208DF807006946084802F0C3FA082164
:10190000064802F035FB102000906946034802F0BB
:10191000B9FA1021014802F02BFB1CBD000C02405B
:1019200000B58BB00121102003F086FD012108468F
:1019300003F0B2FD01220921354802F0EBFA012241
:101940000B21334802F0E6FA01220D21304802F063
:10195000E1FA01220E212E4802F0DCFA4FF4D440C5
:10196000099002208DF8280003208DF8290000201E
:101970008DF82A0001208DF82B0009A9244802F0D7
:1019800081FA41F2670007900120ADF818000020AD
:10199000ADF81A00ADF8200006A91E4804F0C0FDFD
:1019A0006020ADF804000120ADF80600002003908F
:1019B000ADF8100001A9174804F030FC08211548C3
:1019C00004F06AFC01A9134804F070FC08211148D6
:1019D00004F0BEFC01A90F4804F0C8FC08210D4822
:1019E00004F014FD01A90B4804F01AFD0821094870
:1019F00004F052FD0121074804F0A2FA0121054834
:101A000004F0ADFA0121034804F0B5FA0BB000BDB3
:101A1000001002400000014070B505462C4641F21E
:101A20006800844200DD04460E48844200DA044621
:101A3000002C0BDD41F268010B4804F03AFD41F245
:101A40006800011B084804F036FD0AE041F2680115
:101A5000054804F030FD41F268002118024804F006
:101A600028FD70BD98EFFFFF0000014070B50546EE
:101A70002C4641F26800844200DD04460E48844250
:101A800000DA0446002C0BDD41F268010B4804F03B
:101A900014FD41F26800011B084804F010FD0AE043
:101AA00041F26801054804F00AFD41F2680021187E
:101AB000024804F002FD70BD98EFFFFF00000140F6
:101AC00000B58BB00121102003F0B6FC0121080401
:101AD00003F0E2FC03220521504802F01BFA032226
:101AE00006214E4802F016FA6020099002208DF877
:101AF000280003208DF8290000208DF82A000120FD
:101B00008DF82B0009A9454802F0BCF941F26700A5
:101B100007900120ADF818000020ADF81A00ADF8CC
:101B2000200006A93E4804F0FBFC6020ADF804004C
:101B30000120ADF8060000200390ADF8100001A9C7
:101B4000374804F06BFB0821354804F0A5FB01A9D8
:101B5000334804F0ABFB0821314804F0F9FB0121C4
:101B60002F4804F0EDF901212D4804F0F8F9012186
:101B7000022003F061FC0121402003F06DFC0922EA
:101B80000E21284802F0C6F909220F21254802F04B
:101B9000C1F94FF44040099002208DF8280003203D
:101BA0008DF8290000208DF82A0001208DF82B00E7
:101BB00009A91C4802F066F941F26700079000206D
:101BC000ADF81800ADF81A00ADF8200006A91648C7
:101BD00004F0A6FC6020ADF804000120ADF806007A
:101BE00000200390ADF8100001A90F4804F016FB87
:101BF00008210D4804F050FB01A90B4804F056FBE6
:101C00000821094804F0A4FB0121074804F098F9D1
:101C10000121054804F0A3F90BB000BD00100240FB
:101C200000400140000402400018004070B5054625
:101C30002C4641F26800844200DD04460E4884428E
:101C400000DA0446002C0BDD41F268010B4804F079
:101C500030FC41F26800011B084804F02CFC0AE04B
:101C600041F26801054804F026FC41F268002118A1
:101C7000024804F01EFC70BD98EFFFFF00400140D9
:101C800070B505462C4641F26800844200DD0446EA
:101C90000E48844200DA0446002C0BDD41F2680154
:101CA0000B4804F006FC41F26800011B084804F0F0
:101CB00002FC0AE041F26801054804F0FCFB41F235
:101CC00068002118024804F0F4FB70BD98EFFFFF94
:101CD000001800401CB50446062269463B2002F06D
:101CE0005BFD9DF801009DF8001040EA012000B264
:101CF00020809DF803009DF8021040EA012000B208
:101D000060809DF805009DF8041040EA012000B2B3
:101D1000A0801CBD1CB5044606226946432002F083
:101D20003BFD9DF801009DF8001040EA012000B243
:101D300020809DF803009DF8021040EA012000B2C7
:101D400060809DF805009DF8041040EA012000B273
:101D5000A0801CBD1CB50121022003F06DFB4020BA
:101D6000009001208DF8040000208DF8060003206B
:101D70008DF8050001208DF8070069461A4802F029
:101D800081F88020009000208DF8060069461648F2
:101D900002F078F80120154908601549C1F89C0245
:101DA00080216B2002F003FD1248FFF727FB002182
:101DB0006B2002F0FCFC18211B2002F0F8FC002133
:101DC0001C2002F0F4FC0021382002F0F0FC00217D
:101DD000232002F0ECFC01216B2002F0E8FC002142
:101DE0006C2002F0E4FC1CBD0004024098824042DA
:101DF00000804042A086010010B50446E006010EB6
:101E00001C2002F0D4FC10BD10B5044621461A2057
:101E100002F0CDFC10BD10B50446E006010E1B20FB
:101E200002F0C5FC10BD70B50446B4F57A7F01DD43
:101E30004FF47A740A2C00DA0A244FF47A7090FB7B
:101E4000F4F0401EC5B22946192002F0B0FC70BD66
:101E500070B5002415E004F1B001C8B203F0FEF83B
:101E6000002003F0FBF8102003F0F8F8002504E050
:101E7000002003F003F9681CC5B2802DF8DB601C5C
:101E8000C4B2082CE7DB70BD2DE9F04705460E46CD
:101E9000174698464FF000090024A7F1200000F0F3
:101EA000FF097B2D2BDA082E29DAB8F1000F14D0A8
:101EB0003146284603F0BEF800BF0BE009EB4901AC
:101EC00004EB41010F4A515CC943C8B203F0D6F894
:101ED000601CC4B2062CF1DB11E03146284603F049
:101EE000A9F8002409E009EB490104EB4101054A86
:101EF000505C03F0C3F8601CC4B2062CF3DBBDE8F1
:101F0000F087000028A700082DE9F04105460E469D
:101F100014461F460A2C07DA04F13000C2B23B46D1
:101F200031462846FFF7B0FFBDE8F0812DE9F05FAC
:101F300005460E4617469846DDE90A9B7F2D01DCD3
:101F4000072E01DDBDE8F09FE819802803DC06EBD1
:101F50000800082800DDF5E7BBF1000F18D0344673
:101F600013E02146284603F065F8AA4609E019F86F
:101F7000012BD143C8B203F081F80AF1010000F04F
:101F8000FF0ABA45F3DB601CC4B24445E9DB15E047
:101F9000344611E02146284603F04CF8AA4607E0F3
:101FA00019F8010B03F06AF80AF1010000F0FF0ACA
:101FB000BA45F5DB601CC4B24445EBDB00BFC1E7AA
:101FC0002DE9F04104460D461646984600277B2C25
:101FD00014DA082D12DA0EE0F25D43462946204657
:101FE000FFF752FFA01DC4B27A2C02DD0024681C4A
:101FF000C5B2781CC7B2F05D0028EDD1BDE8F08114
:102000002DE9FE4F80468A4691461D46DDE90C7B50
:10201000002D76DDE8190A2873DAB9F1000F02DA2B
:10202000C9F1000600E04E460A20B6FBF0F100FBC5
:1020300011608DF801006420B6FBF0F100FB116027
:102040000A21B0FBF1F08DF802004FF47A70B6FB74
:10205000F0F100FB11606421B0FBF1F0C0B28DF82B
:10206000030042F21070B6FBF0F100FB11604FF478
:102070007A71B0FBF1F0C0B28DF804005948B6FB9C
:10208000F0F100FB116042F21071B0FBF1F0C0B250
:102090008DF805005448B6FBF0F100FB1160514982
:1020A000B0FBF1F0C0B28DF806005048B6FBF0F17D
:1020B00000FB11604C49B0FBF1F0C0B28DF8070095
:1020C0004B48B6FBF0F100FB11604849B0FBF1F062
:1020D000C0B28DF808004748B6FBF0F100FB116074
:1020E0004349B0FBF1F0C0B28DF80900B9F1000F1F
:1020F00041DA00232D2251464046FFF7C5FE002459
:1021000012E037E0E919091B491E1DF8012004EB14
:10211000440308F1060101EB4301C8B25B46514696
:10212000FFF7F2FE601CC4B2681EA042EADC002F7A
:1021300056D005EB450108EB4101C8B25B462E22A3
:102140005146FFF7A1FE002412E005EB450108EB24
:102150004101891D04EB440301EB4301C8B2391B63
:102160001DF801205B465146FFF7CEFE601CC4B24D
:10217000BC42EADB34E000240EE0E919091B1DF83B
:10218000012004EB440108EB4101C8B25B46514613
:10219000FFF7BAFE601CC4B2AC42EEDB07B305EB3E
:1021A000450108EB4101C8B25B462E225146FFF7BC
:1021B0006BFE002412E005EB450108EB4101891D8F
:1021C00004EB440301EB4301C8B2391B1DF80120A5
:1021D0005B465146FFF798FE601CC4B2BC42EADB86
:1021E000BDE8FE8FA086010040420F008096980057
:1021F00000E1F50500CA9A3B00B587B00121084609
:1022000003F01AF90121080303F046F9A020009019
:1022100002208DF8040000208DF8060003208DF8C0
:10222000050001208DF807006946574801F02AFE95
:1022300005221146544801F06DFE0522072152483F
:1022400001F068FE5020009001208DF8040000206D
:102250008DF8060003208DF8050001208DF8070099
:102260006946494801F00EFE0020ADF808004FF421
:102270008270ADF80A000020ADF80C000220ADF825
:102280000E000120ADF810004002ADF81200002051
:10229000ADF81400ADF816000720ADF8180002A93B
:1022A0003A4803F0A5FA0121384803F087FAFF20E5
:1022B00003F068FA4021344801F05AFE6420FFF729
:1022C00093F84021304801F051FEC820FFF78CF808
:1022D00040212D4801F04CFEAE2002F0BFFE002050
:1022E00002F0BCFE102002F0B9FE402002F0B6FE63
:1022F000812002F0B3FEEF2002F0B0FEA12002F038
:10230000ADFEC82002F0AAFEA62002F0A7FEA8207B
:1023100002F0A4FE3F2002F0A1FED32002F09EFEB8
:10232000002002F09BFED52002F098FE802002F0F3
:1023300095FED92002F092FEF12002F08FFEDA2005
:1023400002F08CFE122002F089FEDB2002F086FEF5
:10235000402002F083FE202002F080FE022002F0E6
:102360007DFE8D2002F07AFE142002F077FEA4207C
:1023700002F074FEA62002F071FEAF2002F06EFEA5
:10238000FFF766FD07B000BD0000024000300140CD
:1023900070B52DED0E8BFFF7D2F805B22846FEF78B
:1023A00058F941EC1A0B9FEDFE0B53EC102BFEF786
:1023B0006FF841EC190B81F0004141EC180BFEF76E
:1023C000B1F90446FEF79BF9F74A03C20020FFF774
:1023D00023F9FFF725F905B22846FEF73AF941EC53
:1023E0001A0B9FEDEF0B53EC102BFEF751F841EC5D
:1023F000190B81F0004141EC180BFEF793F90446EC
:10240000FEF77DF9E94A03C20020FFF769F9FFF7FB
:102410006DF905B22846FEF71CF941EC190B9FED4A
:10242000E00B53EC102BFEF733F841EC180BFEF7E2
:1024300079F90446FEF763F9DD4A03C20020FFF78D
:10244000B5F9FFF7B9F905B22846FEF702F941ECF4
:10245000190B9FEDD30B53EC102BFEF719F841EC41
:10246000180BFEF75FF90446FEF749F9D14A03C29B
:102470000020FFF701FACD4890ED002BB0EE420AA4
:10248000F0EE620AC84890ED002BB0EE421AF0EE72
:10249000621A53EC102B51EC110BFDF752FF41EC7B
:1024A0001C0BC34890ED001BB0EE410AF0EE610A30
:1024B00053EC102B51EC1C0BFDF743FF41EC1B0BB5
:1024C000BC4890ED001BB0EE410AF0EE610A53ECFF
:1024D000102B51EC1B0BFDF734FF41EC1A0B9FED59
:1024E000B60B53EC102BFEF745F841EC190B9FEDA2
:1024F000B40B53EC102BFDF7CBFF41EC180BFEF7A0
:10250000C6F800B2B0490880A74890ED001BB0EEB5
:10251000410AF0EE610A51EC100B81F0004141ECF0
:102520001D0BA24890ED001BB0EE410AF0EE610ACF
:1025300053EC102B51EC1D0BFDF703FF41EC1C0B72
:102540009B4890ED001BB0EE410AF0EE610A53EC9F
:10255000102B51EC1C0BFDF7F4FE41EC1B0B9548C6
:1025600090ED001BB0EE410AF0EE610A53EC102B27
:1025700051EC1B0BFDF786FF41EC1A0B9FED8E0B08
:1025800053EC102BFDF7F6FF41EC190B9FED8C0B74
:1025900053EC102BFDF77CFF41EC180BFEF777F89E
:1025A00000B289494880804890ED001BB0EE410A96
:1025B000F0EE610A51EC100B81F0004141EC1E0B72
:1025C0007A4890ED001BB0EE410AF0EE610A53EC40
:1025D000102B51EC1E0BFDF7B4FE41EC1D0B7448A3
:1025E00090ED001BB0EE410AF0EE610A53EC102BA7
:1025F00051EC1D0BFDF746FF41EC1C0B6D4890EDB7
:10260000001BB0EE410AF0EE610A53EC102B51ECC6
:102610001C0BFDF796FE41EC1B0B9FED670B53EC7B
:10262000102BFDF7A7FF41EC1A0B9FED680B53EC45
:10263000102BFDF79FFF41EC190B9FED610B53EC45
:10264000102BFDF725FF41EC180BFEF720F800B228
:102650005D4988800846B0F9060040F2DC518842A6
:1026600002DD08465849C8805748B0F90600594964
:10267000884203DA4FF624205349C8805248B0F903
:102680000800B0F5966F03DD4FF496604E4908815F
:102690004D48B0F9080010F5966F03DA4FF6503048
:1026A000494908814848B0F90A0041F68801884242
:1026B00002DD0846444948814348B0F90A004649CA
:1026C000884203DA4EF278703F4948813E49B1F9B9
:1026D0000600FDF7BEFF41EC190B9FED390B53ECE3
:1026E000102BFDF747FF41EC180BFEF71BF836499E
:1026F0008861B1F90800FDF7ACFF41EC190B9FEDC3
:10270000300B53EC102BFDF735FF41EC180BFEF7A7
:1027100009F82D49C861B1F90A00FDF79AFF41ECAB
:10272000190B9FED270B53EC102BFDF723FF41EC0A
:10273000180BFDF7F7FF24490862084690ED080AD8
:1027400010EE101A0846FDF7DAFF41EC1B0B9FED67
:102750001F0B53EC102BFDF79BFE41EC190B1A4895
:1027600090ED060AD0ED070A30EE600A10EE101A5E
:102770000846FDF7C4FF41EC1A0B53EC192BFDF78B
:1027800081FE41EC180BFDF7CDFF074988600E482C
:1027900090ED080A10EE101A0846FDF7B0FF1DE094
:1027A00076111AE49735843F90010020A0010020A3
:1027B000B0010020C0010020000000000000104017
:1027C0000000000000408F4068010020621058396E
:1027D000B4C8C63F24FAFFFF78E7FFFF41EC1B0BAC
:1027E0001FED060B53EC102BFDF752FE41EC190BBD
:1027F000724890ED060AD0ED070A30EE200A10EE7E
:10280000101A0846FDF77BFF41EC1A0B53EC192B0D
:10281000FDF797FD41EC180BFDF784FF68498860D0
:10282000664890ED080A10EE101A0846FDF767FF9B
:1028300041EC1B0B1FED1B0B53EC102BFDF728FE7F
:1028400041EC190B5D4890ED060AD0ED070A30EE19
:10285000200A10EE101A0846FDF751FF41EC1A0B42
:1028600053EC192BFDF70EFE41EC180BFDF75AFF48
:1028700054498860514890ED080A10EE101A084635
:10288000FDF73DFF41EC1B0B1FED300B53EC102B04
:10289000FDF7FEFD41EC190B484890ED060AD0ED1E
:1028A000070A30EE600A10EE101A0846FDF727FFFF
:1028B00041EC1A0B53EC192BFDF743FD41EC180BBF
:1028C000FDF730FF40498860404890ED001BB0EEB6
:1028D000410AF0EE610A51EC100BFDF723FF08EE00
:1028E000100A3A48D0ED020AB0EE600AF0EE480A4B
:1028F00000F028FB35498881314890ED001BB0EE8F
:10290000410AF0EE610A51EC100BFDF70BFF08EEE7
:10291000100A2B48D0ED020AB0EE600AF0EE480A29
:1029200000F06CFB26498881264890ED001BB0EE34
:10293000410AF0EE610A51EC100BFDF7F3FE08EED0
:10294000100A2048D0ED020AB0EE600AF0EE480A04
:1029500000F0B0FB1B4988811B4890ED001BB0EED6
:10296000410AF0EE610A51EC100BFDF7DBFE08EEB8
:10297000100A1548D0ED020AB0EE600AF0EE480ADF
:1029800000F0F4FB1049888110498989494208B256
:10299000FFF742F80A498989494208B2FFF766F809
:1029A0000849B1F90C00FFF741F90749B1F90C00EA
:1029B000FFF766F9BDEC0E8B70BD000068010020CA
:1029C000A0010020B0010020C001002090010020E3
:1029D00010B50020FFF720F80020FFF747F800208F
:1029E000FFF724F90020FFF74BF910BD10B501F0F7
:1029F00015FF01F083F8144800F07EFA40F2DC5035
:102A000006F052F8114800F077FA4FF47A7006F0A9
:102A10004BF801F0B1FE0D48C83800F037F90C480A
:102A200000F0E0F90948643800F030F908486438EB
:102A300000F0D8F9054800F029F90348643000F0A7
:102A4000D1F902F0F3FE10BD7CFCFFFFD4FEFFFFC6
:102A5000A8FDFFFF10B502F0E9FE044800F04CFAB3
:102A60004FF4FA7006F020F810BD00007CFCFFFF68
:102A700010B501F0A7FE01F033F8134800F03CFA5E
:102A80004FF42F7006F010F801F076FE0F4800F0BA
:102A9000FDF80E48643800F0A5F90C48643000F0E9
:102AA000F5F80948C83000F09DF90848C83000F032
:102AB000EDF80548643000F095F902F0B7FE4FF4E8
:102AC0007A7005F0F1FF10BD7CFCFFFF0CFEFFFFEC
:102AD00000B58BB00121022002F0AEFC01214804B8
:102AE00002F0DAFC03220821214801F013FA022047
:102AF0008DF8280000208DF82A004FF4807009908E
:102B000001208DF82B0003208DF8290009A9184811
:102B100001F0B8F9A720ADF818000020ADF81A00B0
:102B20008DF8220044F61F6007900020ADF82000C9
:102B300006A9104803F0F4FC6020ADF80400012061
:102B4000ADF8060000200390ADF8100001A9094877
:102B500003F064FB0821074803F09EFB01210548B0
:102B600003F0EEF90121034803F0F9F90BB000BDC1
:102B7000000402400044014010B50021014803F068
:102B800098FC10BD0044014010B50446B4F5617FC7
:102B900001DD4FF4617414F5617F00DA094C00EE39
:102BA000104AF8EEC00A9FED080A9FED081A01EEE0
:102BB000200ABCEEC00A10EE101A054803F079FC9A
:102BC00010BD00007CFCFFFF0080BB443F358E3F02
:102BD0000044014000B58BB00121022002F02CFC22
:102BE0000121880402F058FC03220921214801F048
:102BF00091F902208DF8280000208DF82A004FF46A
:102C00000070099001208DF82B0003208DF8290019
:102C100009A9184801F036F9A720ADF818000020DE
:102C2000ADF81A008DF8220044F61F6007900020CE
:102C3000ADF8200006A9104803F072FC6020ADF842
:102C400004000120ADF8060000200390ADF810004C
:102C500001A9094803F0E2FA0821074803F01CFB28
:102C60000121054803F06CF90121034803F077F9CD
:102C70000BB000BD000402400048014010B5002127
:102C8000014803F016FC10BD0048014010B5044691
:102C9000B4F5617F01DD4FF4617414F5617F00DAF2
:102CA000094C00EE104AF8EEC00A9FED080A9FEDAD
:102CB000081A01EE200ABCEEC00A10EE101A0548F0
:102CC00003F0F7FB10BD00007CFCFFFF0080BB445D
:102CD0003F358E3F0048014000B58BB001210420F4
:102CE00002F0AAFB0121022002F0D6FB03220621FA
:102CF000364801F00FF903220721344801F00AF9A0
:102D000003220821314801F005F9032209212F4847
:102D100001F000F94FF47070099002208DF828003E
:102D200003208DF8290000208DF82A0001208DF85D
:102D30002B0009A9254801F0A5F8A720ADF8180037
:102D40000020ADF81A0044F61F6007900020ADF88F
:102D5000200006A91E4803F0E3FB6020ADF8040044
:102D60000120ADF8060000200390ADF8100001A985
:102D7000174803F053FA0821154803F08DFA01A90A
:102D8000134803F093FA0821114803F0E1FA01A96E
:102D90000F4803F0EBFA08210D4803F037FB01A9B7
:102DA0000B4803F03DFB0821094803F075FB0121A6
:102DB000074803F0C5F80121054803F0D0F80121C8
:102DC000034803F0D8F80BB000BD00000008024033
:102DD0000004014010B50021014803F06AFB10BD5A
:102DE0000004014010B50446B4F5617F01DD4FF4E5
:102DF000617414F5617F00DA094C00EE104AF8EEB8
:102E0000C00A9FED080A9FED081A01EE200ABCEEE9
:102E1000C00A10EE101A054803F04BFB10BD00006D
:102E20007CFCFFFF0080BB443F358E3F0004014027
:102E300010B50021014803F03EFB10BD0004014025
:102E400010B50446B4F5617F01DD4FF4617414F5EB
:102E5000617F00DA094C00EE104AF8EEC00A9FEDDF
:102E6000080A9FED081A01EE200ABCEEC00A10EE17
:102E7000101A054803F01FFB10BD00007CFCFFFF8B
:102E80000080BB443F358E3F0004014010B5002157
:102E9000014803F012FB10BD0004014010B50446C8
:102EA000B4F5617F01DD4FF4617414F5617F00DAE0
:102EB000094C00EE104AF8EEC00A9FED080A9FED9B
:102EC000081A01EE200ABCEEC00A10EE101A0548DE
:102ED00003F0F3FA10BD00007CFCFFFF0080BB4450
:102EE0003F358E3F0004014010B50021014803F03A
:102EF000E6FA10BD0004014010B50446B4F5617F48
:102F000001DD4FF4617414F5617F00DA094C00EEC5
:102F1000104AF8EEC00A9FED080A9FED081A01EE6C
:102F2000200ABCEEC00A10EE101A054803F0C7FADA
:102F300010BD00007CFCFFFF0080BB443F358E3F8E
:102F40000004014030EE601A264880ED001A264841
:102F5000B0F9000001EE100AB8EEC11A2148D0ED18
:102F6000001A21EE211AD0ED001A204890ED002A17
:102F700031EEC22A1E48B0F9000001EE900AF8EEC8
:102F8000E11A01EE821A1B48B0F9000001EE900A26
:102F9000F8EEE11A31EE211ABDEEC11A11EE100A57
:102FA00000B2144908800F4890ED001A0F4880EDD8
:102FB000001A0846B0F9000041F26801884202DDBB
:102FC00008460C4908800B48B0F900000A498842BD
:102FD00003DA4EF69870074908800648B0F90000F9
:102FE00070470000700000204E0000207400002098
:102FF000500000206C00002098EFFFFF30EE601AB8
:10300000264880ED001A2648B0F9000001EE100AAB
:10301000B8EEC11A2148D0ED001A21EE211AD0EDE8
:10302000001A204890ED002A31EEC22A1E48B0F95D
:10303000000001EE900AF8EEE11A01EE821A1B4838
:10304000B0F9000001EE900AF8EEE11A31EE211A13
:10305000BDEEC11A11EE100A00B2144908800F48E3
:1030600090ED001A0F4880ED001A0846B0F90000F4
:1030700041F26801884202DD08460C4908800B488D
:10308000B0F900000A49884203DA4EF69870074901
:1030900008800648B0F90000704700007C0000205E
:1030A0004E0000208000002050000020780000200A
:1030B00098EFFFFF30EE601A264880ED001A264890
:1030C000B0F9000001EE100AB8EEC11A2148D0EDA7
:1030D000001A21EE211AD0ED001A204890ED002AA6
:1030E00031EEC22A1E48B0F9000001EE900AF8EE57
:1030F000E11A01EE821A1B48B0F9000001EE900AB5
:10310000F8EEE11A31EE211ABDEEC11A11EE100AE5
:1031100000B2144908800F4890ED001A0F4880ED66
:10312000001A0846B0F9000041F26801884202DD49
:1031300008460C4908800B48B0F900000A4988424B
:1031400003DA4EF69870074908800648B0F9000087
:1031500070470000880000204E0000208C000020F6
:10316000500000208400002098EFFFFF30EE601A2E
:10317000264880ED001A2648B0F9000001EE100A3A
:10318000B8EEC11A2148D0ED001A21EE211AD0ED77
:10319000001A204890ED002A31EEC22A1E48B0F9EC
:1031A000000001EE900AF8EEE11A01EE821A1B48C7
:1031B000B0F9000001EE900AF8EEE11A31EE211AA2
:1031C000BDEEC11A11EE100A00B2144908800F4872
:1031D00090ED001A0F4880ED001A0846B0F9000083
:1031E00041F26801884202DD08460C4908800B481C
:1031F000B0F900000A49884203DA4EF69870074990
:1032000008800648B0F900007047000094000020D4
:103210004E00002098000020500000209000002068
:1032200098EFFFFF1CB50121022002F005F90121F2
:103230000E4800F09DFE0120009000208DF8040053
:1032400003208DF8050001208DF807006946074826
:1032500000F018FE0221054800F08AFE02200090CE
:103260006946024800F00EFE1CBD0000000402404A
:1032700010B586B004460121102002F00DF901219D
:10328000084602F0D9F84FF4C060009002208DF893
:1032900004008DF8050000208DF8060001208DF84F
:1032A00007006946134800F0EDFD07220921114887
:1032B00000F030FE07220A210E4800F02BFE029497
:1032C0000020ADF80C00ADF80E00ADF810000C2099
:1032D000ADF812000020ADF8140002A9064803F072
:1032E0004BFD0121044803F066FC04A003F0BAFD85
:1032F00006B010BD0000024000100140554152547C
:103300003120496E6974204F4B0A000010B588B017
:1033100004460121082002F08FF80121880402F000
:103320009BF807220821224800F0F4FD072209211A
:103330001F4800F0EFFD4FF44070069002208DF81A
:103340001C008DF81D0000208DF81E0001208DF856
:103350001F0006A9164800F095FD02940020ADF864
:103360000C00ADF80E00ADF81000ADF814000C2004
:10337000ADF8120002A90F4803F0FEFC01210D4830
:1033800003F019FC012240F225510A4803F0CFFC5A
:1033900027208DF8040001208DF805008DF8060027
:1033A0008DF8070001A801F0FFFD08B010BD000076
:1033B000000C0240004800402DE9F04707460D464A
:1033C00090464FF00009202D37DCAA201C490870D8
:1033D00055204870681D8870084680F803800024D6
:1033E00005E0395D201D164A1154601CC4B2AC4280
:1033F000F7DB281DC6B2002406E01148005D4844F2
:1034000000F0FF09601CC4B2B442F6DB0C4800F8BF
:103410000490681DC6B200240DE00948015D09480A
:1034200003F019FD00BF4021064803F049FC0128C4
:10343000F9D1601CC4B2B442EFDBBDE8F0870000F4
:10344000CE0400200010014010B503460B48007860
:1034500090B10B488078001FC2B2002105E0C81C63
:10346000074C205C5854481CC1B29142F7DB002045
:10347000024C2070104610BD0020FCE7BD0000206B
:10348000F604002010B588B004460121042001F0A4
:10349000D3FF0121C80401F0DFFF08220A212248DE
:1034A00000F038FD08220B211F4800F033FD4FF4D7
:1034B0004060069002208DF81C008DF81D00002051
:1034C0008DF81E0001208DF81F0006A9164800F097
:1034D000D9FC02940020ADF80C00ADF80E00ADF858
:1034E0001000ADF814000C20ADF8120002A90F482E
:1034F00003F042FC01210D4803F05DFB012240F284
:1035000025510A4803F013FC34208DF804000120F3
:103510008DF805008DF806008DF8070001A801F070
:1035200043FD08B010BD000000080240004C004000
:1035300070B52DED068B1548FDF70EFE00BF02217C
:103540001248FDF779FD0028F9D01048FDF770FD0D
:1035500005462846FDF78EF841EC1A0B9FED0C0B43
:1035600053EC102BFCF794FF41EC190B9FED0A0B69
:1035700053EC102BFCF7FEFF41EC180BFDF7A6F8FF
:1035800084B22046BDEC068B70BD000000210140D6
:10359000285C8FC2F53EAC400000000000FEAF404A
:1035A00000B58DB00121042001F046FF0121480241
:1035B00001F072FF01200B9003208DF830000020F5
:1035C0008DF833000BA9184800F05CFC012148027B
:1035D00001F072FF00214FF4007001F06DFF002038
:1035E00007900A9009904FF48030089007A8FDF7E3
:1035F00007FD002001908DF808008DF80900039068
:10360000059001208DF8180001A90848FDF71EFD5E
:1036100001210648FDF7E8FC072301220A2103489F
:10362000FDF73EFD0DB000BD000802400021014045
:1036300000BFFEE710B5144A0021144800F043F91A
:103640000020134908701048006840F28111884238
:1036500018D10D48007B0C49C97A40EA012000B21C
:103660000C49C8800848817B407B41EA002000B2B9
:10367000084908810448017CC07B41EA002000B26F
:103680000449488110BD00005C0500200064004032
:10369000570000206801002010B50021837A012224
:1036A00002FA03F13D4A126842F001023B4B1A60F4
:1036B0003A4A1C3212688A43384B1C331A60027B28
:1036C000CAB9364A0C3212688A43344B0C331A603A
:1036D0004288C38842EA0343304A4032847A42F83F
:1036E00034300288838842EA03432C4A4032847A89
:1036F00002EBC4025360027B012A19D1274A0C3223
:1037000012680A43254B0C331A604288038842EA48
:103710000343224A4032847A42F83430C288838894
:1037200042EA03431D4A4032847A02EBC4025360EA
:10373000C27A3AB9194A121D12688A43174B1B1DE7
:103740001A6006E0154A121D12680A43134B1B1D2E
:103750001A60028932B9114A143212688A430F4B37
:1037600014331A600289012A06D10C4A14321268F5
:103770000A430A4B14331A60427B012A06D1074AD6
:103780001C3212680A43054B1C331A60034A126844
:1037900022F00102014B1A6010BD000000660040DB
:1037A0001AB143690B43436102E043698B434361B0
:1037B000704730B5024600200023146824F002044C
:1037C0001460146844F00104146000E05B1C546849
:1037D00004F001041CB94FF6FF74A342F6D15468FB
:1037E00004F001040CB900206CE08C79012C04D1A8
:1037F000146844F08004146003E0146824F080042A
:103800001460CC79012C04D1146844F04004146095
:1038100003E0146824F0400414600C7A012C04D1F5
:10382000146844F02004146003E0146824F02004B9
:1038300014604C7A012C04D1146844F01004146014
:1038400003E0146824F0100414608C7A012C04D175
:10385000146844F00804146003E0146824F00804B9
:103860001460CC7A012C04D1146844F00404146070
:1038700003E0146824F0040414608C78A407CD7865
:1038800044EA05640D7944EA05444D7944EA055457
:103890000D886D1E2C43D461146824F0010414605B
:1038A000002300E05B1C546804F001041CB14FF6D7
:1038B000FF74A342F6D1546804F001040CB1002057
:1038C00000E0012030BD10B500F5D87303EB011303
:1038D0001B6803F004031372137A53B900F5D8730D
:1038E00003EB01131B6840F2FF7404EA53531360A7
:1038F00009E000F5D87303EB01131B686FF0604417
:1039000004EAD303536000F5D87303EB01131B687B
:1039100003F00203537200F5D87303EB01135B68E5
:1039200003F00F03937200F5D87303EB01135B6888
:103930001B0AD37400F5D87303EB01139B68D37291
:1039400000F5D87303EB01139B681C0A147300F590
:10395000D87303EB01139B681C0C547300F5D873E8
:1039600003EB01139B681B0E937300F5D87303EBF5
:103970000113DB68D37300F5D87303EB0113DB6825
:103980001C0A147400F5D87303EB0113DB681C0CDC
:10399000547400F5D87303EB0113DB681B0E9374AA
:1039A00021B9C36843F02003C36003E0036943F017
:1039B0002003036110BD10B502460020936803F098
:1039C0008063B3F1806F00D110E0936803F000636F
:1039D000B3F1006F01D1012008E0936803F0805338
:1039E000B3F1805F01D1022000E00420042874D0EC
:1039F00002F5C07303EB00131B6803F0010402F52A
:103A0000C07303EB00131C600B7A7BB94B7A0C88F4
:103A100043EA445302F5C07404EB001424682343C2
:103A200002F5C07404EB0014236010E00B7A4C68BC
:103A300043EAC4034C7A234302F5C07404EB001438
:103A40002468234302F5C07404EB001423608B7ACE
:103A500003F00F038B7202F5C07303EB00135B6876
:103A600023F00F0402F5C07303EB00135C6002F552
:103A7000C07303EB00135B688C7A234302F5C074B8
:103A800004EB001463608B7B1C064B7B44EA03440D
:103A90000B7B44EA0323CC7A234302F5C07404EB86
:103AA0000014A3608B7C1C064B7C44EA03440B7C13
:103AB00044EA0323CC7B234302F5C07404EB0014D7
:103AC000E36002F5C07303EB00131B6843F00104CD
:103AD00002F5C07303EB00131C6010BD70470000BB
:103AE00010B50548FFF7D2F80348FFF77BF94FF40C
:103AF0002F7004F0D9FF10BD76FDFFFF10B506480A
:103B0000FFF7C4F804486438FFF76CF94FF42F70DE
:103B100004F0CAFF10BD000076FDFFFF2DED048B01
:103B200082B0CDE0642004F0BFFF6648007800B3A7
:103B300064480078012806D1002363A202215A209C
:103B4000FEF73EFA1BE05F480078022806D100230A
:103B50005EA202215A20FEF733FA10E0594800789D
:103B600003280CD100235AA202215A20FEF728FA7A
:103B700005E0002357A202215A20FEF721FA5648F9
:103B80000088FCF777FD41EC190B9FED540B53ECCB
:103B9000102BFCF77DFC41EC180BFCF778FD04467C
:103BA0000020012102232246CDE9001003211E201E
:103BB000FEF726FA0020009001904A48B0F90A204A
:103BC000062303215A20FEF71BFA642004F06CFF41
:103BD000454890ED001BB0EE410AF0EE610A9FED02
:103BE000431B53EC112B51EC100BFCF751FC41EC37
:103BF000180BFCF74CFD0446002002210B46224620
:103C0000CDE9001006211E20FEF7FAF9394890EDA3
:103C1000001BB0EE410AF0EE610A9FED341B53EC3D
:103C2000112B51EC100BFCF733FC41EC180BFCF79B
:103C30002EFD0446002002210B462246CDE900104D
:103C400006215A20FEF7DCF92B4890ED001BB0EE60
:103C5000410AF0EE610A9FED251B53EC112B51EC4C
:103C6000100BFCF715FC41EC180BFCF710FD04469B
:103C7000002002210B462246CDE9001007211E201C
:103C8000FEF7BEF91D4890ED001BB0EE410AF0EEC4
:103C9000610A9FED161B53EC112B51EC100BFCF736
:103CA000F7FB41EC180BFCF7F2FC04460020022164
:103CB0000B462246CDE9001007215A20FEF7A0F955
:103CC00030E70000570000205053320041505000B0
:103CD000524D5300524F53003A0000209A9999993F
:103CE0009999B93FD0010020900100200000000008
:103CF00000005940A0010020B0010020C0010020B8
:103D00009AB023A002F04CFF0024002600BF3EE042
:103D100020212A4802F0D4FF012835D1274803F09A
:103D200095F8C4B2234626A232210DA803F0AAF8C2
:103D30000DA802F035FF05F0B5FD0546032C18DC93
:103D4000A81BB0F5FA7F10D32E46234622A23221BB
:103D5000684603F097F8684602F022FF204603F019
:103D60003BFE204604F06AFC0DE021A002F018FFA3
:103D700009E0234628A23221684603F083F868460A
:103D800002F00EFF00BF00BF0A2004F08DFEBFE767
:103D90000D0A5B455350383236365D20436F6D6DEA
:103DA000756E69636174696F6E205461736B205323
:103DB000746172746564210D0A00000000100140F6
:103DC0005B455350383236365D205261773A2030A9
:103DD00078253032580D0A0052656365697665644E
:103DE0002072657365743A2025640D0A0000000096
:103DF0005B5741524E5D20416374696F6E20746F52
:103E00006F206672657175656E74212049676E6FEB
:103E10007265642E0D0A00005B4552524F525D20C0
:103E2000496E76616C69642072657365743A202509
:103E3000640D0A001FB504460F48007EA04200D161
:103E40001FBD0D4804766CB172B6FEF795FEFEF705
:103E500015FFFEF7BFFFFEF7EBFFFFF717F8FFF7C1
:103E600043F862B6224605A1684603F025F8684685
:103E700002F060FD00BFE3E7A00000204553256489
:103E80000A000000F0B50A4600210023002400BF0C
:103E90003DE0012505FA01F3156805EA03049C429B
:103EA00034D105684F000326BE40B543056015793F
:103EB0004E00B5400668354305601579012D02D0E6
:103EC0001579022D16D185684F000326BE40B543F3
:103ED000856055794E00B5408668354385604568F4
:103EE00001268E40B5434560456896798E40B6B24E
:103EF00035434560C5684F000326BE40B543C560E5
:103F0000D5794E00B540C6683543C560491C1029B7
:103F1000BFD3F0BDF0B5002300244D07ED0E02FA2B
:103F200005F3CE1000F1200555F826504E07F70E88
:103F30000F26BE40B543CF1000F1200646F82750AB
:103F4000CE1000F1200555F8265045EA0304CE10A6
:103F500000F1200545F82640F0BD02460020136917
:103F60000B400BB1012000E00020704741837047F7
:103F7000018370470AB1018300E04183704770B547
:103F800004460D462946204600F0F6FE2946204606
:103F900000F070FC2946204600F020FD294620460E
:103FA00000F050FD2946204600F0A8FD2946204695
:103FB00000F0B6FE70BD00002DED068BB6B00027F8
:103FC00000BF62E03148008800F40040A8B12F48EB
:103FD0000088C0F30E06002405E02D48005D2D4941
:103FE0000855601C84B2B442F7DB002027490880E2
:103FF000284908552848FFF7C2FF05F053FC05463D
:10400000E81B40F6B83188423AD32F462249D1F80E
:104010008600FCF72FFB41EC1A0B9FED200B53ECB5
:10402000102BFCF7A7FA41EC180B1B49D1F88100C3
:10403000FCF720FB41EC1A0B9FED180B53EC102BF7
:10404000FCF798FA41EC190B8DED028B8DED009B7E
:1040500014A2C82104A802F015FF04A8FCF74EF929
:104060001FFA80F8414604A804F024FB13A002F0D4
:1040700097FD04A802F094FD19A002F091FD00BF85
:1040800040F6B83004F010FD00BF9BE7C0000020F0
:1040900000070020DC0100206C030020000000006D
:1040A00080842E417B226C6174223A252E36662C48
:1040B000226C6F6E223A252E36667D005B47505388
:1040C0005D204A534F4E2075706C6F6164656420AB
:1040D000746F20455350383236363A0D0A000000CE
:1040E0000D0A000000BFFEE710B500200E49086071
:1040F0000E48006820F440400C49086008460068FB
:1041000040F48040086000200949C1F89C02012069
:10411000FDF774F9012004490860FDF76FF90020EC
:104120000349C1F8980210BD988240420004024041
:104130000080404210B500200D4908600220FDF7C4
:104140005DF901200B49C1F888020220FDF756F9FC
:1041500000200749091F08600220FDF74FF90120E0
:104160000449C1F88C020220FDF748F910BD000097
:104170008C0242420000424210B500200E49086005
:104180000E48006820F440400C490860084600686A
:1041900040F48040086001200949C1F89C02FDF705
:1041A0002DF9012004490860FDF728F90020044991
:1041B000C1F8980210BD00009882404200040240FD
:1041C0000080404210B50120094908600220FDF737
:1041D00015F901200749C1F888020220FDF70EF900
:1041E00000200349091F08600220FDF707F910BDF0
:1041F0008C024242000042422DE9F04106460F4641
:1042000014461D4600F0EAF810B90120BDE8F0811F
:104210007106080E00F08CF800F06EF918B900F085
:104220002DF90120F2E7384600F082F800F064F939
:1042300000F0D4F8012101EB4601C8B200F078F893
:1042400000F05AF90DE0012C04D1002000F010F824
:10425000287003E0012000F00BF828706D1C601E30
:10426000C4B2002CEFD100F009F90020CEE7000025
:1042700070B5054600241648006820F440401449F3
:104280000860084600680860002616E06006040E14
:104290000020104908600220FDF7B0F801200E4907
:1042A000C1F898020B487C38006808B1601CC4B2A1
:1042B0000220FDF7A3F8701CC6B2082EE6DB15B18C
:1042C000FFF712FF01E0FFF757FF204670BD000027
:1042D00000040240988240420080404270B505468A
:1042E0000024002615E06006040E01200E49086037
:1042F0000220FDF783F80D48D0F80C0208B1601CCD
:10430000C4B20020084908600220FDF777F8701C4D
:10431000C6B2082EE7DB15B9FFF754FF01E0FFF73F
:1043200009FF204670BD0000880242420000424260
:1043300070B504461448006820F4404012490860F3
:104340000846006840F48040086000200F4908607B
:10435000002516E0E0090D49091D08600120FDF760
:104360004DF801200A49C1F89802FDF747F80020EE
:10437000064908600120FDF741F86006040E681C3C
:10438000C5B2082DE6DB70BD0004024098824042B1
:104390000080404270B50446002514E0E0090D4954
:1043A00008600220FDF72AF801200B49C1F88802B5
:1043B0000220FDF723F800200649091F0860600667
:1043C000040E681CC5B2082DE8DB01200149086015
:1043D00070BD00008C0242420000424210B51648F7
:1043E000006820F44040144908600846006840F422
:1043F000804008600120114908601148D0F81C0273
:1044000008B9002010BD01200C49091F0860FCF705
:10441000F5FF00200A49C1F89C020848803800686E
:1044200008B10020EEE70120FCF7E8FF0020034977
:10443000091F08600120E5E7000402409C82404219
:104440000080404210B501200A4908600A49C1F8BD
:1044500088020220FCF7D2FF0020064908600220F3
:10446000FCF7CCFF00200449C1F888020220FCF7C9
:10447000C5FF10BD8C0242420000424210B50E48FA
:10448000006820F440400C4908600846006840F489
:10449000804008600020094908600949C1F89C0271
:1044A0000120FCF7ABFF0120044908600449C1F872
:1044B0009C02FCF7A3FF10BD00040240988240421A
:1044C0000080404210B50020094908600220FCF736
:1044D00095FF01200749C1F888020220FCF78EFFF2
:1044E0000120034908600220FCF788FF10BD00008E
:1044F0008C0242420000424210B500241448006879
:1045000020F4404012490860084600680860012015
:1045100010490860FCF772FF01200F49C1F89802AA
:10452000FCF76CFF07E0601CC4B2FA2C03DDFFF758
:10453000A5FF002010BD0748803800680028F2D190
:104540000449091F08600120FCF758FF0120F1E72A
:10455000000402409C8240420080404210B500248A
:104560000120114908600220FCF748FF01200F4993
:10457000C1F888020220FCF741FF07E0601CC4B2CA
:10458000FA2C03DDFFF79EFF012010BD064880389E
:1045900000680028F2D10449091F08600220FCF7D6
:1045A0002DFF0020F1E700008C0242420000424251
:1045B0002DE9F04105460E4617469846FFF70EFFD7
:1045C00010B90120BDE8F0816906080EFFF7B0FEC2
:1045D000FFF792FF18B9FFF751FF0120F2E73046CD
:1045E000FFF7A6FEFFF788FF00240BE018F8040091
:1045F000FFF79EFEFFF780FF18B9FFF73FFF00208F
:10460000E0E7641CBC42F1DBFFF738FF0020D9E78C
:1046100093E0FDF753F900287ED0322004F044FAED
:10462000FDF74CF90028F7D0002415E0322004F003
:104630003BFAFDF743F900B910E03C2C0AD1022106
:104640003E48FFF795FCC82004F02EFA02213B48B3
:10465000FFF78CFC601CC4B2C82CE7DB00BF142C35
:104660001BDA00210846FCF744FF3548006804F0D7
:1046700071FC3448006804F06DFC0020FDF7CCF9B3
:104680000020FDF7F3F90020FDF7D0FA0020FDF738
:10469000F7FAFDF7DDFB00BFFEE7C82C4AD1002189
:1046A0000846FCF726FF2648006804F053FC25481E
:1046B000006804F04FFC02212048FFF759FC40F647
:1046C000B83004F0F1F902211C48FFF74FFC00203C
:1046D000FDF7A2F90020FDF7C9F90020FDF7A6FAC1
:1046E0000020FDF7CDFAFDF7B3FB22E0002316A270
:1046F00003211846FDF764FC002319A20521184682
:10470000FDF75EFC02210D48FFF732FC0A2004F0A1
:10471000CBF90221094800E00CE0FFF727FC40F24A
:10472000DC5004F0C1F9FDF793FB4FF4FA7004F08C
:10473000BBF9DBE7322004F0B7F96AE7001002406A
:1047400010000020180000202020526F626F74209B
:104750006861732073746F707065642020000000BE
:1047600020202020506C6561736520526573746150
:10477000727420202000000010B50648FEF786FA6B
:104780000448C838FEF72EFB4FF4487004F08CF94B
:1047900010BD00000CFEFFFF70B504460D46164626
:1047A000F2B22B4621466820FFF726FD70BD13B5F7
:1047B000044601AB012221466820FFF7F9FE1CBD2B
:1047C00000BFFEE710B54FF47A7004F06DF91148A0
:1047D000FEF75CFA1048FEF705FB0E486438FEF75A
:1047E00055FA0D486430FEF7FDFA0A48C838FEF75E
:1047F0004DFA0948C830FEF7F5FA0748DC30FEF7F5
:1048000045FA0448C838FEF7EDFA4FF4487004F052
:104810004BF910BDD4FEFFFFE0FCFFFF10B51348BD
:10482000FEF734FA1248FEF7DDFA10486438FEF756
:104830002DFA0F482830FEF7D5FA0C48C838FEF795
:1048400025FA0B484630FEF7CDFA0948C830FEF786
:104850001DFA07486430FEF7C5FAC820FEF7F0FAE3
:104860004FF4487004F020F910BD0000D4FEFFFFA3
:10487000AEFCFFFF2DE9FC5F07468A464FF00008BB
:10488000CDF804A046A10198FBF71CFD0646F0797F
:10489000303800F0FF0B0321304600F085F8054664
:1048A000FF2D04D07019694600F007FB78704FF0B7
:1048B000000970E03AA10198FBF704FD06460024C8
:1048C00060E0042000EB8400C1B2304600F06CF8D8
:1048D0000546FF2D0AD07019694600F0EEFAC1B204
:1048E00008EB880207F13E00815400E04CE005200F
:1048F00000EB8400C1B2304600F056F80546FF2DAB
:104900000BD07019694600F0D8FAC1B208EB8802E2
:1049100007F13E001044417000E035E0062000EB56
:104920008400C1B2304600F03FF80546FF2D0BD0A1
:104930007019694600F0C1FA81B208EB880207F1EC
:104940003E001044418000E01EE0072000EB8400A0
:10495000C1B2304600F028F80546FF2D0BD0701983
:10496000694600F0AAFAC1B208EB880207F13E00DE
:104970001044017100E007E008F1010000F0FF08B9
:10498000601CC4B2042C9CDB00BF701C019009F1B8
:10499000010000F0FF09D9458CDBBDE8FC9F000059
:1049A00024424447535600000246134610E0107854
:1049B0002A2805D01078202802DB10787A2801DD1B
:1049C000FF20704710782C2801D1481EC1B2521C1C
:1049D0000029ECD1D01AC0B2F3E70000F8B50546C3
:1049E0000F4616A13846FBF76DFC064606213046F9
:1049F000FFF7DAFF0446FF2C05D03019694600F0B6
:104A00005CFA85F88B0007213046FFF7CDFF04469E
:104A1000FF2C05D03019694600F04FFA85F88C005C
:104A200009213046FFF7C0FF0446FF2C05D030199E
:104A3000694600F042FAC5F8A000F8BD24474E4789
:104A4000474100002DE9F8430546884629A1404624
:104A5000FBF738FC064602213046FFF7A5FF044667
:104A6000FF2C05D03019694600F027FA85F8990027
:104A7000002713E0F81CC1B23046FFF795FF04464B
:104A8000FF2C08D03019694600F017FAC1B205F1C1
:104A90008D00C15500E003E0781CC7B20C2FE9DBA4
:104AA00000BF0F213046FFF77FFF0446FF2C05D0E3
:104AB0003019694600F001FAA5F89A001021304635
:104AC000FFF772FF0446FF2C05D03019694600F04D
:104AD000F4F9A5F89C0011213046FFF765FF044664
:104AE000FF2C05D03019694600F0E7F9A5F89E00C3
:104AF000BDE8F88324474E47534100002DE9F043B9
:104B00002DED028B81B00446884682A14046FBF71A
:104B1000D9FB074601213846FFF746FF0546FF2D22
:104B200023D07819694600F0C8F981469DF8001035
:104B30000A2000F0B7F9B9FBF0F642F21070B6FBAC
:104B4000F0F0C1B27E2001556420B6FBF0F0642184
:104B5000B0FBF1F201FB12017F2001556420B6FB8E
:104B6000F0F100FB11618020015503213846FFF769
:104B70001BFF0546FF2D42D07819694600F09DF9CC
:104B800006469DF80000801CC1B20A2000F08AF998
:104B9000B6FBF0F044F8810F9DF80000801CC1B214
:104BA0000A2000F07FF9B6FBF0F100FB116000EE87
:104BB000100AB8EE408A05210A2000F073F9216836
:104BC000484300EE100AF8EE400A9DF80000C0F1DC
:104BD0000500C1B20A2000F065F900EE100AB8EE37
:104BE000400A20EE080A9FED4D1AC0EE011A30EE81
:104BF000A10ABCEEC00A10EE100A44F88109042193
:104C00003846FFF7D1FE0546FF2D02D0785D84F8C7
:104C1000850005213846FFF7C7FE0546FF2D44D025
:104C20007819694600F049F906469DF80000801C95
:104C3000C1B20A2000F036F9B6FBF0F044F8860F56
:104C40009DF80000801CC1B20A2000F02BF9B6FBD1
:104C5000F0F100FB116000EE100AB8EE400AB0EE71
:104C6000408A05210A2000F01DF92168484300EE22
:104C7000100AF8EE400A9DF80000C0F10500C1B22C
:104C80000A2000F00FF900EE100AB8EE400A20EEFC
:104C9000080A9FED221AC0EE011A30EEA10ABCEEFE
:104CA000C00A10EE100A44F8860906213846FFF7BC
:104CB0007BFE0546FF2D02D0785D84F88A0009212D
:104CC0003846FFF771FE0546FF2D1ED0781969465C
:104CD00000F0F3F8064642F21070B6FBF0F0C1B2F5
:104CE0007D2001556420B6FBF0F06421B0FBF1F2A9
:104CF00001FB12017C2001556420B6FBF0F100FBA2
:104D0000116000F5FA60A4F87A0001B0BDEC028BE6
:104D1000BDE8F08324474E524D430000000070422E
:104D2000F8B504460D4612A12846FBF7CBFA064615
:104D300007213046FFF738FE0746FF2F16D0F0193F
:104D4000694600F0BAF8A4F8A4009DF80000032812
:104D50000CDA9DF80000C0F10300C1B20A2000F097
:104D6000A1F8B4F8A4104843A4F8A400F8BD0000CA
:104D700024474E56544700002DE9FC5F07468A46FB
:104D80004FF00008CDF804A044A10198FBF79AFA6F
:104D90000646F079303800F0FF0B03213046FFF76C
:104DA00003FE0546FF2D04D07019694600F085F812
:104DB00038704FF000096CE038A10198FBF782FAD7
:104DC000064600245CE0042000EB8400C1B23046BB
:104DD000FFF7EAFD0546FF2D09D07019694600F07E
:104DE0006CF8C1B208EB8802B81C815400E049E0BD
:104DF000052000EB8400C1B23046FFF7D5FD054623
:104E0000FF2D0AD07019694600F057F8C1B208EBBF
:104E10008802B81C1044417000E033E0062000EB2B
:104E20008400C1B23046FFF7BFFD0546FF2D0AD012
:104E30007019694600F041F881B208EB8802B81C8D
:104E40001044418000E01DE0072000EB8400C1B267
:104E50003046FFF7A9FD0546FF2D0AD070196946B7
:104E600000F02BF8C1B208EB8802B81C10440171A5
:104E700000E007E008F1010000F0FF08601CC4B288
:104E8000042CA0DB00BF701C019009F1010000F0B0
:104E9000FF09D94590DBBDE8FC9F0000244750473F
:104EA0005356000010B50246012000E050430B1E8F
:104EB000A1F10104E1B2F9D110BD2DE9F34F81B0A8
:104EC00007463C46002000908346814600268046E7
:104ED00028E020782D2802D148F00208641C2078B0
:104EE0002C2802D020782A2800D11CE020782E28F7
:104EF00003D148F00108641C09E02078392802DC5D
:104F00002078302803DA4FF0000900260BE008F083
:104F1000010010B1701CC6B203E009F1010000F0FD
:104F2000FF09641CD5E700BF08F0020000B17F1C38
:104F300000250EE0A9F10100401BC1B20A20FFF7D5
:104F4000B1FF795D3039009A00FB01200090681CA8
:104F5000C5B24D45EEDB052E00DD05260298067034
:104F600000250EE0701E401BC1B20A20FFF79AFF19
:104F700009F101012944795C303900FB01BB681C4F
:104F8000C5B2B542EEDB31460A20FFF78BFF009930
:104F900001FB00BA08F0020008B1CAF1000A50464D
:104FA000BDE8FE8F7047000070B5002100230F227E
:104FB000C4781CB3174C246804F4E064C4F5E064BE
:104FC000C4F30721C1F10404E3B20A4144789C40D0
:104FD000E1B28478144021430C07210E0E4C057871
:104FE0006155047804F01F050124AC4005786D116B
:104FF000AD0005F1E025C5F8004109E0047804F0B2
:105000001F050124AC40054D0678761145F8264071
:1050100070BD00000CED00E000E400E080E100E085
:1050200002490143024A1160704700000000FA057E
:105030000CED00E070B504460D4605F1B001C8B2B4
:1050400000F00CF8102141EA141000F007F804F009
:105050000F0141F0010000F001F870BD10B50446E9
:1050600010210548FEF782FF204600F08BFB10213F
:105070000148FEF77DFF10BD0000024010B5044658
:10508000204600F07FFB10BDB4B0002500BF35E026
:105090001B4803681B4802681B4801681BA001F0FD
:1050A000E1FE04F0FFFB0446601B40F6B831884285
:1050B0001FD325461248006812490968CDE900103F
:1050C00011481DA2C821036802A801F0DBFE02A856
:1050D000FBF714F986B2314602A803F0EBFA1EA0E2
:1050E00001F05EFD02A801F05BFD25A001F058FD76
:1050F00000BF40F6B83003F0D7FC00BFC8E700009F
:10510000D0000020CC000020C80000205B4F70655C
:105110006E4D565D2044697374616E63653A202557
:1051200064206D6D2C20583A2025642C20593A209B
:1051300025640D0A000000007B2264697374616EAF
:105140006365223A25642C2278223A25642C227940
:10515000223A25647D0000005B4F70656E4D565D00
:10516000204A534F4E2075706C6F616465642074E3
:105170006F20455350383236363A0D0A0000000091
:105180000D0A000030B50146524A127872B92C2936
:105190000CD101224F4B1A704F4A14781278521CCE
:1051A0004D4D2A704D4A22F8141092E0494A127867
:1051B000012A0ED112290CD10222464B1A70464AFE
:1051C00014781278521C444D2A70444A22F8141064
:1051D0007FE0404A1278022A4AD13F4A1478127876
:1051E000521C3D4D2A703D4A22F814102A4612786E
:1051F0000A2A01DA5B296CD10322364B1A70364A2F
:105200001278121F354B13F81220354B1A70324AA0
:105210001278D21E314B13F81220324B1A702E4ADC
:105220001278921E2D4B13F812202F4B1A702C4A15
:1052300012782E4B1A602B4A12782D4B1A602A4A8C
:1052400012782C4B1A602A4A1268502A05DD284A27
:105250001268A2F58072264B1A60264A1268282A24
:1052600037DD244A1268A2F58072224B1A6030E0C2
:10527000184A1278032A1DD1174A1278521E174B6A
:1052800033F812205B2A05D10022134B1A70114B00
:105290001A701EE000220F4B1A700F4B1A7000207C
:1052A00005E000220D4B23F81020421CD0B20A2842
:1052B000F7DB0EE00022074B1A70074B1A70002034
:1052C00005E00022054B23F81020421CD0B20A282A
:1052D000F7DB30BDD9000020D80000209008002066
:1052E000C4000020C5000020C6000020C800002027
:1052F000CC000020D0000020F0B52DED028B89B04D
:105300000446214631A001F0ADFD20784A2842D163
:1053100041212046FAF7E8FF0746002F3AD0601CEB
:10532000FBF702F80546781C01F0DEFDB0EE408A7E
:10533000F0EE608A51EC180BFBF7F4F906463046A4
:10534000FBF7DDF941EC180B53EC182B294624A090
:1053500001F088FD012D1CDB062D1ADC03F08AFA12
:10536000681E274941F8206003F0AEFA3046FBF78B
:10537000C6F941EC180B53EC182B22A101A801F03F
:105380009BFD01A801F0D6FA01A920A001F06AFD59
:1053900000BF00BF15E0022221A12046FAF7B5FFA9
:1053A00078B9A01CFAF7C0FFC5B229461DA001F0CC
:1053B00059FD03F05FFA2846FEF73CFD03F084FA3E
:1053C00000BF09B0BDEC028BF0BD00005265636503
:1053D0006976656420434D443A2025730A00000035
:1053E0005061727365643A204A6F696E743D25643A
:1053F0002C20416E676C653D252E31660A00000049
:10540000A00000204A41252E31660A0053656E74C3
:1054100020666565646261636B3A20257300000055
:1054200045530000456D657267656E63792053745E
:105430006F703A2025640A0029B1064A12680243B7
:10544000044B1A6004E0034A12688243014B1A605D
:10545000704700003038024029B1064A1268024302
:10546000044B1A6004E0034A12688243014B1A603D
:10547000704700004038024029B1064A12680243D2
:10548000044B1A6004E0034A12688243014B1A601D
:10549000704700002038024029B1064A12680243D2
:1054A000044B1A6004E0034A12688243014B1A60FD
:1054B000704700004438024029B1064A126802438E
:1054C000044B1A6004E0034A12688243014B1A60DD
:1054D0007047000024380240F0B50021002200246B
:1054E000022500260223324F3F6807F00C0121B14C
:1054F000042905D0082937D105E02E4F076036E092
:105500002D4F076033E02A4F3F1F3F68C7F3805697
:10551000274F3F1F3F6807F03F036EB1264FB7FB91
:10552000F3F7DFF88CC0ACF1040CDCF800C0CCF36E
:10553000881C07FB0CF40CE01E4FB7FBF3F7DFF8F9
:1055400070C0ACF1040CDCF800C0CCF3881C07FB85
:105550000CF4174F3F1F3F68C7F301477F1C7D00C6
:10556000B4FBF5F7076002E0124F076000BF00BF11
:105570000F4F3F6807F0F0010909104F7A5C076888
:10558000D74047600A4F3F6807F4E051890A0B4F44
:105590007A5C4768D7408760054F3F6807F46041F1
:1055A000490B064F7A5C4768D740C760F0BD0000E2
:1055B000083802400024F40000127A00DA000020CB
:1055C00010B51B48FCF786FB19484088194908802C
:1055D00017480088404200B248801548808888807B
:1055E0001548FCF797FB14480088144909880844BB
:1055F00000B211490880084640881049498808448B
:1056000000B20D494880084680880C4989880844C2
:1056100000B209498880084640880649C880064883
:105620000088404200B2088103488088488110BD4C
:105630003C000020D0010020420000204800002053
:1056400010B530480088000A2F4908702D480078AE
:1056500048702C484088000A88702A488078C870B2
:1056600028488088000A0871264800794871254832
:10567000C088000A887123488079C8712148008950
:10568000000A08721F48007A48721E484089000AC2
:1056900088721C48807AC8721C480088000A087307
:1056A0001A480078487319484088000A88731748D8
:1056B0008078C87315488088000A087413480079F8
:1056C0004874134800880012887411480078C87420
:1056D000102214210C48FDF76FFE0B4A062140F200
:1056E0002110FBF7D5FD084A921D06214FF4917059
:1056F000FBF7CEFD044A0C32082140F22310FBF7E1
:10570000C7FD10BDD0010020120400206801002058
:105710003A00002000BF04F0C5F80E49086018E008
:1057200014210C4803F0EEF90B48007828B10A4820
:105730000078022801D1FBF7CBFD0848007810B1B2
:10574000FCF726FE01E0FDF743F9FFF739FFFFF70D
:1057500077FFE5E75C0000205700002052000020A2
:105760000DE007480078012802D0022802D100E0AD
:1057700001E000E000BF00BF002001490870F0E731
:105780003800002010B5044600BF02210A4800F08E
:1057900021F80028F9D02146074800F027F800BF7B
:1057A0000121054800F016F80028F9D0024800F061
:1057B0001AF8C0B210BD00000030014021B10288CB
:1057C00042F04002028004E002884FF6BF731A40A4
:1057D000028070470246002013890B400BB1012064
:1057E00000E000207047014688897047818170473A
:1057F00010B50022028802F441520B884C882343E2
:105800008C882343CC8823430C8923434C8923432E
:105810008C892343CC8923431A430280838B4FF224
:10582000FF74234083830B8A038210BD10B540F2BE
:105830002620FDF7A9F96FF0C700FDF727FA084801
:10584000FDF7D0FA4FF4E170FDF7FAFA40F28A2042
:10585000FDF724FB4FF4487003F026F910BD00005B
:105860007CFCFFFF0CB500200190009034480068DC
:1058700040F480303249086000BF3148006800F4CD
:10588000003000900198401C0190009818B90198D0
:10589000B0F5A04FF1D12A48006800F4003010B1F3
:1058A0000120009001E0002000900098012846D1DE
:1058B00023484030006840F0805021494031086062
:1058C0002048006840F440401E4908601C480830E9
:1058D00000681B49083108600846006840F4004031
:1058E00008600846006840F4A05008601648091F88
:1058F0000860081F006840F08070091F086000BF42
:105900000F48006800F000700028F9D040F20570E0
:105910000E4908600A480830006820F00300084972
:10592000083108600846006840F00200086000BFC7
:1059300003480830006800F00C000828F8D10CBDBE
:10594000003802400070004008544007003C02400C
:105950002DE9FF41074655260020FBF7A1FD8828C9
:1059600005D0FDF777F888210020FBF7C2FD002560
:1059700029E010218B48FEF7F9FA1E2003F094F875
:1059800010218848FEF7F4FA142003F08DF802A8DD
:10599000FCF7C0F984480088BDF80810084400B23C
:1059A0008149088008464088BDF80A10084400B2C2
:1059B0007D49488008468088BDF80C10084400B234
:1059C000794988806D1C0A2DD3DB7748B0F9000037
:1059D00040420A2190FBF1F000B27349088008466A
:1059E000B0F9020040420A2190FBF1F000B26E498A
:1059F00048800846B0F9040040420A2190FBF1F0CB
:105A000000B269498880002520E000240AE0E00611
:105A1000060E10216348FEF7A9FA142003F044F89B
:105A2000601CC4B21E2CF2DB14240CE004EB440016
:105A30008006060E10215B48FEF79AFA142003F048
:105A400033F8601EC4B2002CF0DC6D1C032DDCDBCF
:105A500010215448FEF78AFA02215448FEF788FACA
:105A60006420FBF7C1FC02215048FEF77FFAFCF7E7
:105A7000EFF900234EA219461846FCF7A1FA0023BD
:105A800051A201211846FCF79BFA002354A20221DF
:105A90001846FCF795FA002357A202211E20FCF7B6
:105AA0008FFA002356A203211846FCF789FA002337
:105AB00045A204211846FCF783FA002342A20521DF
:105AC0001846FCF77DFA002353A206211846FCF77E
:105AD00077FA002356A207211846FCF771FA002333
