:020000040800F2
:10000000B83A012059020008E9570008C545000820
:1000100005500008813900081B7700080000000027
:10002000000000000000000000000000A101000826
:100030008540000800000000F501000899650008EF
:1000400073020008730200087302000873020008BC
:1000500073020008730200087302000873020008AC
:10006000730200087302000873020008730200089C
:10007000730200087302000873020008730200088C
:10008000730200087302000873020008730200087C
:100090008539000873020008730200087302000823
:1000A000730200087302000873020008730200085C
:1000B000730200087302000873020008730200084C
:1000C000730200087302000873020008730200083C
:1000D000730200087D730008F173000815740008AE
:1000E000730200087302000873020008730200081C
:1000F000730200087302000873020008730200080C
:1001000073020008730200087302000873020008FB
:100110001D7200080D73000873020008356700089F
:1001200073020008730200087302000873020008DB
:1001300073020008730200087302000873020008CB
:1001400073020008730200087302000873020008BB
:1001500073020008730200087302000873020008AB
:10016000730200087302000873020008730200089B
:10017000730200087302000873020008730200088B
:100180007302000873020008DFF810D000F0A2FC30
:1001900000480047F9800008AFF30080B83A01201A
:1001A0002A4B19680868B0E8F04F80F30988BFF35C
:1001B0006F8F4FF0000080F311887047000000003F
:1001C00006480068006880F3088862B661B6BFF32D
:1001D0004F8FBFF36F8F00DF00BF00BF08ED00E05F
:1001E000DFF80C00016841F470010160704700BF46
:1001F00088ED00E0EFF30980BFF36F8F134B1A68AF
:100200001EF0100F08BF20ED108A20E9F04F10609B
:1002100008B44FF0500080F31188BFF34F8FBFF345
:100220006F8F09F05BFB4FF0000080F3118808BC72
:1002300019680868B0E8F04F1EF0100F08BFB0EC66
:10024000108A80F30988BFF36F8F7047FC0000208D
:10025000EFF30580704700000648804706480047D6
:10026000FEE7FEE7FEE7FEE7FEE7FEE7FEE7FEE766
:10027000FEE7FEE7A96500088901000840EA0103DE
:100280009B0703D009E008C9121F08C0042AFAD24C
:1002900003E011F8013B00F8013B521EF9D2704710
:1002A000D2B201E000F8012B491EFBD270470022B8
:1002B000F6E710B513460A4604461946FFF7F0FF65
:1002C000204610BD30B505462A460B4612F8010BF4
:1002D00013F8014B08B1A042F8D01CB1002802D09D
:1002E0006D1CF1E7284630BDCAB2401E10F8011F50
:1002F0008A4202D00029F9D10020704730B5054666
:100300000020034600E05B1C934205D2EC5CC85C15
:10031000201A01D1002CF6D130BD70B5064607F089
:100320003DFA046805460A220021304600F0D6FA5C
:100330002C6070BD2DE9FE4F804681EA0300C00F9E
:100340000C46009021F0004123F00045B8EB02007C
:10035000A94105D24046214690461C460B4602461E
:1003600023F00040104347D0270DC7F30A00C3F322
:100370000A510290401A019040286BDAC3F313002F
:1003800040F4801B0098924620B10023D2EB030A70
:1003900063EB0B0B01985946C0F14002504600F048
:1003A0001DFA06460D4650465946019A00F035FAA8
:1003B00010EB08006141002487EA115284EAE773D8
:1003C0001A4340D0009A62B3019A012A4FEA0752B9
:1003D00015DC001B61EB02014FF0004202EA0752FC
:1003E000CDE90042001C41F5801132462B4600F059
:1003F000F3FA03B0BDE8F08F40462146F9E7001B51
:1004000061EB0201001C41F5801300185B412018CC
:10041000A2F5001747EB030140EAD570B6196D410C
:1004200011E06D084FEA360645EAC0754FEA0752FB
:10043000001B61EB0201001C41F5801149084FEAE5
:1004400030000019514132462B4603B0BDE8F04F51
:1004500000F0B3BA0098012240000023D0EB020262
:1004600063EBE073009821464FEAE074B8EB0000BC
:1004700061EB0401E9E783F000435BE781F00041B1
:1004800058E72DE9FE4F81EA030404F0004421F00F
:10049000004100944FF0000B23F0004350EA0104A8
:1004A0005ED052EA03045BD0C3F30A54C1F30A5589
:1004B0002C44A4F2F3340194A0FB0254C1F31301C1
:1004C00041F48011C3F3130343F4801301FB02448E
:1004D00000FB034E840A970A44EA815447EA835793
:1004E000A4FB076802958D0A05FB07854FEA932C4C
:1004F00004FB0C542705029D4FEA065847EA1637BD
:10050000B5EB08056EEB070C870E920E47EA8117D4
:1005100042EA8312A7FB0201B6EB0B0164EB000475
:100520002B0D43EA0C335E1844EB1C50DA4651465F
:10053000E7FB0201C5F313044FEA0B3343EA1453FC
:100540004FEA0432019C43EA0603A4F10C0402942E
:10055000009CCDE900B400F03FFA03B0BDE8F08F95
:1005600000200146F9E72DE9F04D81EA030404F08B
:10057000004B21F0004514464FF0000A23F00041E3
:1005800050EA050220D054EA01021DD0C5F30A57F3
:100590000246C5F31303C1F31300C1F30A5640F436
:1005A000801543F48013A7EB0608101BD64608F20B
:1005B000FD3873EB050002D308F1010801E0921841
:1005C0005B41B8F1000F03DA00200146BDE8F08D71
:1005D00000204FF48011064684460EE0171B73EB93
:1005E000050705D3121B63EB050306434CEA010C18
:1005F00049084FEA300092185B4150EA0107EDD1FB
:1006000052EA030012D082EA040083EA050108439B
:1006100005D0101BAB4106D20122002306E00022C8
:100620004FF0004302E06FF0010253101AEB060096
:100630004CEB085110EB0A0041EB0B01BDE8F04D0B
:1006400000F0BBB90EB5C10F80EAE0700844CA07DC
:10065000002140F233438DE80E000A460B4600F0BD
:10066000BBF903B000BD0EB540F233410291002149
:10067000CDE900110A460B4600F0AEF903B000BD0B
:1006800070B5C1F30A5201F000450024C1F3130113
:1006900040F2FF3341F480119A4201DA002070BD2C
:1006A00040F233439A42A2F2334203DC524200F05A
:1006B000A4F800E090402C43F1D0404270BDC1F35B
:1006C0000A5210B5C1F3130140F2FF3341F4801117
:1006D0009A4201DA002010BD40F233439A42A2F25E
:1006E000334203DC524200F088F810BD904010BD48
:1006F00000F0004230F000400AD0C10D01F56071F9
:10070000C0F3160042EA0151C20840071143704786
:1007100000200146704701F0004330B421F0004151
:1007200050EA010206D00A0DA2F56072C1F313016E
:10073000002A02DC30BC00207047440F44EAC104A8
:10074000C100E01830BC00EBC25000F0FFB830B57B
:100750000B46014600202022012409E021FA02F57F
:100760009D4205D303FA02F5491B04FA02F5284419
:10077000151EA2F10102F1DC30BD2DE9F05F054646
:10078000002092469B4688460646814640241BE050
:10079000284641464746224600F02FF853465A461F
:1007A000C01A914110D311461846224600F016F89F
:1007B0002D1A67EB01084F4622460120002100F068
:1007C0000DF817EB00094E41201EA4F10104DFDCF7
:1007D000484631462A464346BDE8F09F202A04DBBE
:1007E000203A00FA02F1002070479140C2F1200344
:1007F00020FA03F3194390407047202A04DB203A83
:1008000021FA02F00021704721FA02F3D040C2F130
:1008100020029140084319467047202A06DBCB1777
:10082000203A41FA02F043EAE07306E041FA02F3AB
:10083000D040C2F1200291400843194670470000A1
:100840000FB4002300B589B00CA900910B996FF08B
:100850000042CB601E4B06931E4B07930423CDE949
:1008600001321D4A089202466B46002000F0E6F96C
:1008700009B05DF814FB70B586B006464FF0FF3046
:100880000091CDE90101002015460C460490324646
:10089000694604A8FFF7D4FF02460498211825B141
:1008A00008B1084600E020462860049800280DD0D2
:1008B000002A02DD0098884208D0081B0094CDE988
:1008C00001043246694604A8FFF7BAFF06B070BDBE
:1008D000750E0008930E0008010B00082DE9F04783
:1008E00091460F4680460446002614F8015B2DB160
:1008F00000F002F90068405DC007F6D12B2D02D050
:100900002D2D18D0641E4A463946204600F0D2FAF2
:1009100027B13968A14201D1C7F8008071054FF0B5
:1009200002040BD54042002803DD06F037FF0460C7
:10093000A007BDE8F08746F48066E4E70028F8DA0F
:1009400006F02CFF04606FF00040F2E70029A8BF1A
:100950007047401C490008BF20F00100704710B4E8
:10096000B0FA80FC00FA0CF050EA010404BF10BC9D
:10097000704749B1CCF1200421FA04F411FA0CF1CA
:1009800018BF012121430843A3EB0C01CB1D4FEA03
:1009900000614FEA102042BF002010BC704700EBFE
:1009A000C35010440029A4BF10BC7047401C49002C
:1009B00008BF20F0010010BC704710B5141E73F181
:1009C000000408DA401C41F1000192185B411A430F
:1009D00001D120F0010010BD2DE9F04D92469B465B
:1009E00011B1B1FA81F202E0B0FA80F22032904601
:1009F000FFF7F4FE04460F4640EA0A0041EA0B0105
:100A000053465A46084313D0114653EA010019D001
:100A1000C8F140025046FFF7F0FE05460E4650462C
:100A200059464246FFF7DAFE084305D0012004E0AC
:100A300020463946BDE8F08D0020054346EAE076C1
:100A40002C4337430A986305E40AA0EB0800002210
:100A5000FD0A44EA47540A3002D500200146E9E77E
:100A6000010510196941DDE9084500196941BDE832
:100A7000F04DA2E7C1F30A52C1F3130140F2FF3374
:100A800041F480119A4202DA00200146704740F298
:100A900033439A42A2F2334202DC5242FFF7ADBE28
:100AA000FFF79CBE30B5041E71F1000404DB4FF06B
:100AB0000044404264EB0101141E73F1000405DBA5
:100AC0001C464FF00043524263EB0403994208BFB7
:100AD000904230BD064C074D06E0E06840F001034F
:100AE00094E8070098471034AC42F6D3FFF750FB68
:100AF000B4B20008D4B2000800487047B0B2000891
:100B000010B50446FFF7F8FF0068005D00F0010033
:100B100010BD00002DE9FF4F087883B09946FF28EB
:100B200005D0491C2D2804D00024002008E0002016
:100B30000BE00124F9E700EB800003EB4000491CC7
:100B40000B78FF2BF7D104B14042002302931478B5
:100B500019461D462D2C01D02B2C04D1521C2D2CB6
:100B600013D000240294AA461478FF2C0FD00A2533
:100B7000A3FB057801FB05814FF0000C03FB0C1172
:100B8000521CE3194AEB0101EEE70124EAE7814434
:100B900053EA010002D019F5C87F06DA0398002154
:100BA000C0E9001107B0BDE8F08F0025AE4E2F461A
:100BB000DFF8B882184600F0DAF9CDE90001B9F1A2
:100BC000000002DAC9F1000400E004460023A74A4D
:100BD0001AEB030B42EB045A12E0E00707D02A4657
:100BE000334638464146FFF74CFC074688462A46BE
:100BF000334610461946FFF744FC05460E4664107E
:100C0000002CEAD1DDE90001B9F1000F5A46534644
:100C100006DAFFF7A8FC3A464346FFF7A4FC05E0D6
:100C2000FFF72FFC3A464346FFF72BFC029A0AB126
:100C300081F00041039AC2E90001B3E72DE9FF4FBB
:100C40001F468DB0D7E901464FF0FF382E204546AC
:100C50004FF000090B90B9696D1C0E988847396AEE
:100C6000824688470028F6D1BAF1FF3F0AD024F423
:100C7000D064002E11DDBAF12B0F08D0BAF12D0F80
:100C80000BD102E0404611B08DE744F48064B969AD
:100C90006D1C0E9888478246761E6946600501D510
:100CA0002D2000E02B208DF8000001F1010B0DF14B
:100CB000200809E0B9696D1C0E98884782460F9894
:100CC00044F40074761E0560002E02DDBAF1300F88
:100CD000F0D00B998A453ED144F0800406E00F998C
:100CE000681CA9F1010944F400740860B9696D1C1D
:100CF000761E0E98884782463028F0D02BE00B995C
:100D00008A4505D1200603D444F08004761E18E0FD
:100D1000504606F043FE08B30DF11301761E44F46D
:100D200000748B4508D2AAF130000BF8010B2006A5
:100D300007D5A9F1010003E0200602D409F1010062
:100D40008146A00502D50F99681C0860B9696D1C21
:100D50000E9888478246002ED1DC53E0002E51DDEC
:100D6000BAF1650F02D0BAF1450F4BD1A00549D5B4
:100D7000B9696D1C24F44074761E0E98884782462B
:100D8000002E0CDD2B2804D0BAF12D0F07D144F42E
:100D90008074B9696D1C0E9888478246761EE005FE
:100DA00001D52D2100E02B2108F8011BCDF82C8066
:100DB00021E00DF12901761E44F4007488450CD21F
:100DC000AAF1300010F0FF0088F8000002D10B9962
:100DD000884509D908F1010806E0E00501D5244855
:100DE00001E042F20F708146B9696D1C0E98884788
:100DF00082460F980560002E04DD504606F0CEFDB9
:100E00000028D6D1F9690E988847FF208BF800009A
:100E100088F800000020069007904B466A4608A913
:100E200006A8FFF777FEA00502D46FF001002AE7BD
:100E300014F0240F0AD0E00714D1DDE90612386857
:100E4000031D3B600068C0E900120BE0DDE906010C
:100E5000FFF761FC0146E00704D13868021D3A60E3
:100E60000068016028460EE7000014400000F03FD3
:100E7000F1D8FFFF426842B1016811F8013B23B18C
:100E8000521EC0E90012184670470121C160881E39
:100E9000704742685AB1C368016843B983688B429E
:100EA00005D0491E521CC0E90012002070474FF0C7
:100EB000FF3070472DE9F05F824600780027154625
:100EC0008B460AF10104B946302801D09DB113E0E8
:100ED00014F8010B0127782803D0582801D045B118
:100EE0000AE00DB1102D07D10027102514F8010BD1
:100EF00002E0082500E00A250026B0460EE005FBCA
:100F0000080005FB06F1012701EB10461FFA80F8E7
:100F1000B6F5803F00D3B94614F8010B294600F01E
:100F200018F80028EBDABBF1000F05D00FB1641EF2
:100F300000E05446CBF80040B9F1000F06D006F0AF
:100F40002DFC02210160C81EBDE8F09F48EA064062
:100F5000FAE73A2800D2303820F02002412A01D3A3
:100F6000A2F13700884201D34FF0FF3070470EB531
:100F700040F2334202920022CDE900221346FFF7ED
:100F80002BFD03B000BD70B58C1810F8015B15F097
:100F9000070301D110F8013B2A1106D110F8012BEB
:100FA00003E010F8016B01F8016B5B1EF9D12B0710
:100FB00005D40023521E0DD401F8013BFAE710F8C6
:100FC000013BCB1A921C03E013F8015B01F8015BB3
:100FD000521EF9D5A142D8D3002070BD21B182683C
:100FE00042F00102826003E0826822F00102826026
:100FF000704700000021084A1168084A1140D0E9F2
:1010000000231A4383681A43C3681A431143044AEE
:10101000C2F804137047000004230140E030FCFFD5
:10102000002001400146C86C80B270470246002093
:1010300013680B400BB1012000E000207047000056
:1010400030B50246002000235068104C20400D7936
:101050000C6844EA05242043506090680C4C204002
:10106000D1E903542C438D682C434D7944EA45045F
:1010700020439060D06A20F470000C7D641EE4B2BE
:10108000234340EA0350D06230BD0000FFFEFFFC66
:10109000FDF7FFC0F0B504460D4600200021092DE4
:1010A00011DDE068A5F10A0606EB4607072606FAF9
:1010B00007F18843A5F10A0606EB460603FA06F196
:1010C0000843E0600CE0206905EB4507072606FAB7
:1010D00007F1884305EB450603FA06F10843206152
:1010E000072A0FDA606B561E06EB86071F2606FAE4
:1010F00007F18843561E06EB860605FA06F10843FB
:10110000606322E00D2A0FDA206BD61F06EB8607FC
:101110001F2606FA07F18843D61F06EB860605FA56
:1011200006F10843206310E0E06AA2F10D0606EB29
:1011300086071F2606FA07F18843A2F10D0606EB83
:10114000860605FA06F10843E062F0BD816841F0C9
:1011500080418160704700001CB50121102004F01F
:1011600009FD0220009001208DF8040000208DF878
:10117000060003208DF8050001208DF80700694660
:10118000034803F053F90221014803F0C3F91CBDE1
:101190000010024000B58BB00121082004F0EAFCE9
:1011A0000121480604F0F6FC0320099002208DF886
:1011B000280000208DF82A0003208DF82900012046
:1011C0008DF82B0009A92D4803F030F909220021E0
:1011D0002A4803F073F909220121284803F06EF927
:1011E00000208DF81A008DF81B008DF81C000120DE
:1011F0008DF81D0000208DF81E008DF81F008DF861
:1012000016008DF8170003208DF8180001208DF8C6
:1012100019000620ADF8140005A9194802F071FC68
:1012200000208DF80E00ADF80400ADF80600ADF812
:101230000800ADF80A008DF80F0001208DF81000AD
:101240000020ADF80C0001208DF8110001A802F07B
:10125000CBFB012202210A4802F04AFC14208DF83F
:10126000200001208DF821008DF822008DF8230048
:1012700008A804F0BBFA0BB000BD0000000C02404F
:10128000006400402DE9F04106460D4617460B4824
:10129000066000200949087248728D72002405E03A
:1012A000395D06480B300155601CC4B2AC42F7D31F
:1012B0000249034802F027FDBDE8F0813006002016
:1012C0000064004010B5394802F066FA00286CD07E
:1012D00036480078312817D13448C07840B2A0EBA6
:1012E000800040003249C8803048007940B200EBAD
:1012F0004000400008812D48407840B26FF0130153
:1013000010FB01F02A49488128480078322817D17B
:101310002648C07840B2A0EB800040002449C88035
:101320002248007940B200EB4000400008811F488D
:10133000407840B26FF0130110FB01F01C49488166
:101340001A48007833280ED11848007940B200EBD3
:10135000400040001649C8801448807840B2A0EB95
:1013600000104000488111480078412812D10F48F0
:101370004078104908700D48807848700B48C07854
:1013800088700A480079C870084840790871074891
:101390008079487105480078422806D10348407892
:1013A000552802D101200449087010BD4E040020C8
:1013B000780100203D0000205F00002010B50420CF
:1013C00005F0D6F80E4800680E49B0FBF1F00E4962
:1013D00008700B4800680B49B0FBF1F44FF47A70C9
:1013E00044434FF0E020006940F002004FF0E0215C
:1013F000086108464461006940F00100086110BDC1
:101400002800002040420F00AB00002010B5044629
:101410004FF47A7104FB01F000F002F810BD0000F7
:1014200070B5034600224FF0E02675690D4E367800
:1014300003FB06F44FF0E026B16910E04FF0E02620
:10144000B06988420BD0884202D20E1A324402E0C0
:101450002E1A0E4432440146A24200D300E0EDE7CA
:1014600000BF70BDAB0000201CB50121102004F0AE
:1014700081FB0420009001208DF8040000208DF8ED
:10148000060003208DF8050001208DF8070069464D
:10149000094802F0CBFF0820009001208DF80600DB
:1014A0006946054802F0C2FF01200449086004496A
:1014B000C1F88C021CBD00000010024088024242AC
:1014C0000000424270B50446002603F02BFA2112B8
:1014D000A02202EB4101C8B203F0CCF903F0AEFA4E
:1014E0002546E11704EB11610912A4EB0121C8B2F2
:1014F00003F0C0F903F0A2FA03F014FAA12003F0FC
:10150000B9F903F09BFA002003F058F9064603F0FE
:1015100049FA304670BD70B504460E4603F002FA33
:101520002112A02202EB4101C8B203F0A3F903F09B
:1015300085FA2546E11704EB11610912A4EB01219C
:10154000C8B203F097F903F079FA304603F092F944
:1015500003F074FA03F026FA42F21070FFF760FF0E
:1015600070BD4FF08040406A80B2704700B589B0CE
:101570000121084604F0FEFA0121022004F0FAFAE3
:101580000121084604F006FB01220F21294802F040
:1015900095FF01220321284802F090FF4FF40040FC
:1015A000079002208DF8200003208DF821000020F4
:1015B0008DF8220001208DF8230007A91D4802F0B4
:1015C00035FF0820079007A91B4802F02FFF4FF0B6
:1015D000804005F01DF904A805F022FC0020ADF8BC
:1015E00010004FF6FF7005900020ADF81800ADF820
:1015F000120004A94FF0804005F0D0FB00231A46EA
:1016000003214FF0804005F0CBF901A805F031FA35
:101610000620ADF80C0001A94FF0804005F0F2F96A
:1016200000204FF0804148620121880705F0D5F87D
:1016300009B000BD00000240000402404FF08041AC
:10164000486270470148006880B270472404004037
:1016500000B589B00121022004F08CFA012102209A
:1016600004F098FA02220421244802F027FF022203
:101670000521224802F022FF3020079002208DF839
:10168000200003208DF8210000208DF82200012089
:101690008DF8230007A9194802F0C8FE184805F084
:1016A000B7F804A805F0BCFB0020ADF810004FF619
:1016B000FF7005900020ADF81800ADF8120004A9E5
:1016C0000F4805F06BFB00231A4603210C4805F078
:1016D00067F901A805F0CDF90620ADF80C0001A9C5
:1016E000074805F08FF900200549243108600121E1
:1016F000034805F072F809B000BD00000004024084
:1017000000040040014908607047000024040040C4
:101710000148006880B27047240C004000B589B0D1
:101720000121084604F026FA0121082004F032FACB
:1017300002220021244802F0C1FE02220121224897
:1017400002F0BCFE0320079002208DF82000032049
:101750008DF8210000208DF8220001208DF8230053
:1017600007A9194802F062FE184805F051F804A8CC
:1017700005F056FB0020ADF810004FF6FF70059005
:101780000020ADF81800ADF8120004A90F4805F0CC
:1017900005FB00231A4603210C4805F001F901A8B6
:1017A00005F067F90620ADF80C0001A9074805F01F
:1017B00029F900200549243108600121034805F07A
:1017C0000CF809B000BD000000000240000C004011
:1017D0000149086070470000240C0040014800687F
:1017E00080B270472408004000B589B0012108206C
:1017F00004F0C0F90121042004F0CCF902220C21EC
:10180000244802F05BFE02220D21224802F056FE1F
:101810004FF44050079002208DF8200003208DF8EF
:10182000210000208DF8220001208DF8230007A957
:10183000184802F0FBFD184804F0EAFF04A805F080
:10184000EFFA0020ADF810004FF6FF700590002071
:10185000ADF81800ADF8120004A90F4805F09EFA83
:1018600000231A4603210C4805F09AF801A805F058
:1018700000F90620ADF80C0001A9074805F0C2F8F0
:1018800000200549243108600121034804F0A5FF28
:1018900009B000BD000C024000080040014908608A
:1018A00070470000240800401CB50121102004F0FE
:1018B00061F90121094802F02FFE0120009000206B
:1018C0008DF8040003208DF8050001208DF8070035
:1018D0006946024802F0AAFD1CBD0000001002404B
:1018E0000348006808B9012070470020FCE70000A9
:1018F000000242421CB50121082004F03BF90820F7
:10190000009001208DF8040000208DF806000320CF
:101910008DF8050001208DF807006946084802F09F
:1019200085FD0821064802F0F7FD10200090694669
:10193000034802F07BFD1021014802F0EDFD1CBDC3
:10194000000C024010B516480078012802D103F0BF
:1019500093F924E012480078022802D103F096F9A6
:101960001DE00F480078032802D103F005FA16E0C5
:101970000B480078042802D103F006FA0FE008486B
:101980000078052802D103F057FA08E004480078EF
:10199000062802D103F082FA01E003F06DF910BDD0
:1019A0003D00002000B58BB00121102004F0E2F8CA
:1019B0000121084604F00EF901220921354802F000
:1019C0007DFD01220B21334802F078FD01220D211B
:1019D000304802F073FD01220E212E4802F06EFD08
:1019E0004FF4D440099002208DF8280003208DF890
:1019F000290000208DF82A0001208DF82B0009A96C
:101A0000244802F013FD41F2670007900120ADF871
:101A100018000020ADF81A00ADF8200006A91E48F5
:101A200005F0BCF96020ADF804000120ADF8060017
:101A300000200390ADF8100001A9174805F02CF81C
:101A40000821154805F066F801A9134805F06CF85F
:101A50000821114805F0BAF801A90F4805F0C4F8AB
:101A600008210D4805F010F901A90B4805F016F9F9
:101A70000821094805F04EF90121074804F09EFEAF
:101A80000121054804F0A9FE0121034804F0B1FE3C
:101A90000BB000BD001002400000014070B50546CB
:101AA0002C4641F26800844200DD04460E48844220
:101AB00000DA0446002C0BDD41F268010B4805F00A
:101AC00036F941F26800011B084805F032F90AE0D6
:101AD00041F26801054805F02CF941F2680021182F
:101AE000024805F024F970BD98EFFFFF00000140A7
:101AF00070B505462C4641F26800844200DD04467C
:101B00000E48844200DA0446002C0BDD41F26801E5
:101B10000B4805F010F941F26800011B084805F078
:101B20000CF90AE041F26801054805F006F941F2B6
:101B300068002118024805F0FEF870BD98EFFFFF1D
:101B40000000014000B58BB00121102004F012F814
:101B50000121080404F03EF803220521504802F058
:101B6000ADFC032206214E4802F0A8FC602009903B
:101B700002208DF8280003208DF8290000208DF820
:101B80002A0001208DF82B0009A9454802F04EFCDF
:101B900041F2670007900120ADF818000020ADF871
:101BA0001A00ADF8200006A93E4805F0F7F86020BD
:101BB000ADF804000120ADF8060000200390ADF858
:101BC000100001A9374804F067FF0821354804F0E8
:101BD000A1FF01A9334804F0A7FF0821314804F010
:101BE000F5FF01212F4804F0E9FD01212D4804F003
:101BF000F4FD0121022003F0BDFF0121402003F08C
:101C0000C9FF09220E21284802F058FC09220F21A1
:101C1000254802F053FC4FF44040099002208DF813
:101C2000280003208DF8290000208DF82A000120CB
:101C30008DF82B0009A91C4802F0F8FB41F267005F
:101C400007900020ADF81800ADF81A00ADF820009C
:101C500006A9164805F0A2F86020ADF8040001209E
:101C6000ADF8060000200390ADF8100001A90F4860
:101C700004F012FF08210D4804F04CFF01A90B48A5
:101C800004F052FF0821094804F0A0FF0121074891
:101C900004F094FD0121054804F09FFD0BB000BD48
:101CA00000100240004001400004024000180040C3
:101CB00070B505462C4641F26800844200DD0446BA
:101CC0000E48844200DA0446002C0BDD41F2680124
:101CD0000B4805F02CF841F26800011B084805F09C
:101CE00028F80AE041F26801054805F022F841F2BF
:101CF00068002118024805F01AF870BD98EFFFFF40
:101D00000040014070B505462C4641F2680084420F
:101D100000DD04460E48844200DA0446002C0BDD48
:101D200041F268010B4805F002F841F26800011B1E
:101D3000084804F0FEFF0AE041F26801054804F09B
:101D4000F8FF41F268002118024804F0F0FF70BD6E
:101D500098EFFFFF001800401CB5044606226946B4
:101D60003B2003F03BF99DF801009DF8001040EA8C
:101D7000012000B220809DF803009DF8021040EA87
:101D8000012000B260809DF805009DF8041040EA33
:101D9000012000B2A0801CBD1CB504460622694685
:101DA000432003F01BF99DF801009DF8001040EA64
:101DB000012000B220809DF803009DF8021040EA47
:101DC000012000B260809DF805009DF8041040EAF3
:101DD000012000B2A0801CBD1CB50121022003F02F
:101DE000C9FE4020009001208DF8040000208DF8ED
:101DF000060003208DF8050001208DF807006946D4
:101E00001A4802F013FB8020009000208DF8060095
:101E10006946164802F00AFB012015490860154979
:101E2000C1F89C0280216B2003F0E3F81248FFF711
:101E3000F7FA00216B2003F0DCF818211B2003F0D7
:101E4000D8F800211C2003F0D4F80021382003F03A
:101E5000D0F80021232003F0CCF801216B2003F0FF
:101E6000C8F800216C2003F0C4F81CBD0004024037
:101E70009882404200804042A086010010B504468E
:101E8000E006010E1C2003F0B4F810BD10B50446A6
:101E900021461A2003F0ADF810BD10B50446E00647
:101EA000010E1B2003F0A5F810BD70B50446B4F573
:101EB0007A7F01DD4FF47A740A2C00DA0A244FF499
:101EC0007A7090FBF4F0401EC5B22946192003F049
:101ED00090F870BD70B5002415E004F1B001C8B2EF
:101EE00003F0DEFC002003F0DBFC102003F0D8FC44
:101EF000002504E0002003F0E3FC681CC5B2802D3F
:101F0000F8DB601CC4B2082CE7DB70BD2DE9F0479C
:101F100005460E46174698464FF000090024A7F1E3
:101F2000200000F0FF097B2D2BDA082E29DAB8F10A
:101F3000000F14D03146284603F09EFC00BF0BE092
:101F400009EB490104EB41010F4A515CC943C8B296
:101F500003F0B6FC601CC4B2062CF1DB11E0314684
:101F6000284603F089FC002409E009EB490104EB51
:101F70004101054A505C03F0A3FC601CC4B2062C6E
:101F8000F3DBBDE8F087000004B000082DE9F04164
:101F900005460E4614461F460A2C07DA04F13000A7
:101FA000C2B23B4631462846FFF7B0FFBDE8F0819C
:101FB0002DE9F05F05460E4617469846DDE90A9B77
:101FC0007F2D01DC072E01DDBDE8F09FE819802898
:101FD00003DC06EB0800082800DDF5E7BBF1000F85
:101FE00018D0344613E02146284603F045FCAA46A3
:101FF00009E019F8012BD143C8B203F061FC0AF1E2
:10200000010000F0FF0ABA45F3DB601CC4B244458E
:10201000E9DB15E0344611E02146284603F02CFCAC
:10202000AA4607E019F8010B03F04AFC0AF1010087
:1020300000F0FF0ABA45F5DB601CC4B24445EBDB97
:1020400000BFC1E72DE9F04104460D46164698460B
:1020500000277B2C14DA082D12DA0EE0F25D4346DD
:1020600029462046FFF752FFA01DC4B27A2C02DD9C
:102070000024681CC5B2781CC7B2F05D0028EDD101
:10208000BDE8F0812DE9FE4F80468A4691461D4607
:10209000DDE90C7B002D76DDE8190A2873DAB9F149
:1020A000000F02DAC9F1000600E04E460A20B6FB36
:1020B000F0F100FB11608DF801006420B6FBF0F137
:1020C00000FB11600A21B0FBF1F08DF802004FF423
:1020D0007A70B6FBF0F100FB11606421B0FBF1F007
:1020E000C0B28DF8030042F21070B6FBF0F100FBB5
:1020F00011604FF47A71B0FBF1F0C0B28DF80400BA
:102100005948B6FBF0F100FB116042F21071B0FBD0
:10211000F1F0C0B28DF805005448B6FBF0F100FBB9
:1021200011605149B0FBF1F0C0B28DF80600504883
:10213000B6FBF0F100FB11604C49B0FBF1F0C0B20E
:102140008DF807004B48B6FBF0F100FB11604849E1
:10215000B0FBF1F0C0B28DF808004748B6FBF0F1D3
:1021600000FB11604349B0FBF1F0C0B28DF80900EB
:10217000B9F1000F41DA00232D2251464046FFF706
:10218000C5FE002412E037E0E919091B491E1DF8BD
:10219000012004EB440308F1060101EB4301C8B23E
:1021A0005B465146FFF7F2FE601CC4B2681EA042B7
:1021B000EADC002F56D005EB450108EB4101C8B21F
:1021C0005B462E225146FFF7A1FE002412E005EBEC
:1021D000450108EB4101891D04EB440301EB430178
:1021E000C8B2391B1DF801205B465146FFF7CEFEF1
:1021F000601CC4B2BC42EADB34E000240EE0E91902
:10220000091B1DF8012004EB440108EB4101C8B291
:102210005B465146FFF7BAFE601CC4B2AC42EEDB2F
:1022200007B305EB450108EB4101C8B25B462E221E
:102230005146FFF76BFE002412E005EB450108EB69
:102240004101891D04EB440301EB4301C8B2391B72
:102250001DF801205B465146FFF798FE601CC4B292
:10226000BC42EADBBDE8FE8FA086010040420F00C1
:102270008096980000E1F50500CA9A3B00B587B04A
:102280000121084603F076FC0121080303F0A2FCBB
:10229000A020009002208DF8040000208DF8060098
:1022A00003208DF8050001208DF807006946574886
:1022B00002F0BCF805221146544802F0FFF805224E
:1022C0000721524802F0FAF85020009001208DF8C2
:1022D000040000208DF8060003208DF80500012081
:1022E0008DF807006946494802F0A0F80020ADF8D3
:1022F00008004FF48270ADF80A000020ADF80C0021
:102300000220ADF80E000120ADF810004002ADF83B
:1023100012000020ADF81400ADF816000720ADF84B
:10232000180002A93A4803F034FE0121384803F0AE
:102330000DFEFF2003F0E2FD4021344802F0ECF8EE
:102340006420FFF763F84021304802F0E3F8C8202A
:10235000FFF75CF840212D4802F0DEF8AE2003F0D4
:102360009FFA002003F09CFA102003F099FA402015
:1023700003F096FA812003F093FAEF2003F090FA2D
:10238000A12003F08DFAC82003F08AFAA62003F0FA
:1023900087FAA82003F084FA3F2003F081FAD320C3
:1023A00003F07EFA002003F07BFAD52003F078FAE0
:1023B000802003F075FAD92003F072FAF12003F0BF
:1023C0006FFADA2003F06CFA122003F069FADB20CE
:1023D00003F066FA402003F063FA202003F060FA6D
:1023E000022003F05DFA8D2003F05AFA142003F066
:1023F00057FAA42003F054FAA62003F051FAAF20B4
:1024000003F04EFAFFF766FD07B000BD0000024082
:102410000030014000B597B00121042003F0AAFB71
:102420000121C80303F0B6FB06220C21344802F058
:1024300045F84FF48050159002208DF858008DF823
:10244000590000208DF85A0001208DF85B0015A975
:102450002B4801F0EBFF4FF44040ADF840004FF443
:102460008270ADF842000020ADF84400ADF846009F
:102470000120ADF848004002ADF84A001020ADF848
:102480004C000020ADF84E000720ADF8500010A918
:102490001C4803F07EFD01211A4803F057FD00217E
:1024A000184803F047FD01220221164803F05AFDA7
:1024B0000121480503F05EFB134801F0DDFC00BF7D
:1024C000114801F085FD0028FAD101900D480C302B
:1024D00002900E4803904020049000200590069042
:1024E0004FF4806007900020089009900A904FF404
:1024F00000300B9001A9044801F096FD17B000BD13
:1025000000080240003C0040886002406E05002048
:102510002DE9F04106460F469046002021490870FB
:1025200081F8C100002424E007FA04F000F08000E4
:1025300008B1F82100E0C0211A4A601C115406FAC3
:1025400004F000F0800008B1F82100E0C021154A35
:1025500004F10900115408FA04F000F0800008B1F9
:10256000F82100E0C0210F4A04F111001154601C51
:1025700084B2082CD8DB01250EE0012408E00948CC
:10258000005D182101FB0541064A5054601C84B2CD
:10259000192CF4DB681C85B2082DEEDB03F0AEFBD2
:1025A000BDE8F0816E05002070B506460020244984
:1025B000087081F8C10000243CE0002536E004EBFF
:1025C000440030444078A84000F0800008B1F82171
:1025D00000E0C02104EB440005EBC000401C184A99
:1025E000115404EB4400305CA84000F0800008B1B6
:1025F000F82100E0C02104EB440005EBC0000930E5
:102600000F4A115404EB440030448078A84000F095
:10261000800008B1F82100E0C02104EB440005EB84
:10262000C0001130064A1154681CC5B2082DC6DB23
:10263000601CC4B2082CC0DB03F060FB70BD00005E
:102640006E05002070B5064600202449087081F808
:10265000C10000243CE0002536E004EB4400304497
:102660004078A84000F0800008B1F82100E0C021C7
:1026700004EB440005EBC000401C184A115404EB65
:102680004400305CA84000F0800008B1F82100E070
:10269000C02104EB440005EBC00009300F4A11547F
:1026A00004EB440030448078A84000F0800008B17A
:1026B000F82100E0C02104EB440005EBC00011301C
:1026C000064A1154681CC5B2082DC6DB601CC4B292
:1026D000082CC0DB03F012FB70BD00006E0500206B
:1026E00070B52DED0E8BFEF73CFF05B22846FDF7C9
:1026F000A9FF41EC1A0B9FEDFE0B53EC102BFDF7DD
:10270000C0FE41EC190B81F0004141EC180BFEF7C3
:1027100002F80446FDF7ECFFF74A03C20020FEF77B
:102720008DFFFEF78FFF05B22846FDF78BFF41ECCA
:102730001A0B9FEDEF0B53EC102BFDF7A2FE41ECB3
:10274000190B81F0004141EC180BFDF7E4FF044642
:10275000FDF7CEFFE94A03C20020FEF7D3FFFEF7E4
:10276000D7FF05B22846FDF76DFF41EC190B9FED31
:10277000E00B53EC102BFDF784FE41EC180BFDF73A
:10278000CAFF0446FDF7B4FFDD4A03C20020FFF78D
:102790001FF8FFF723F805B22846FDF753FF41EC79
:1027A000190B9FEDD30B53EC102BFDF76AFE41EC98
:1027B000180BFDF7B0FF0446FDF79AFFD14A03C29C
:1027C0000020FFF76BF8CD4890ED002BB0EE420AE9
:1027D000F0EE620AC84890ED002BB0EE421AF0EE1F
:1027E000621A53EC102B51EC110BFDF7A3FD41ECD9
:1027F0001C0BC34890ED001BB0EE410AF0EE610ADD
:1028000053EC102B51EC1C0BFDF794FD41EC1B0B12
:10281000BC4890ED001BB0EE410AF0EE610A53ECAB
:10282000102B51EC1B0BFDF785FD41EC1A0B9FEDB6
:10283000B60B53EC102BFDF796FE41EC190B9FEDF8
:10284000B40B53EC102BFDF71CFE41EC180BFDF7FD
:1028500017FF00B2B0490880A74890ED001BB0EE0A
:10286000410AF0EE610A51EC100B81F0004141EC9D
:102870001D0BA24890ED001BB0EE410AF0EE610A7C
:1028800053EC102B51EC1D0BFDF754FD41EC1C0BD0
:102890009B4890ED001BB0EE410AF0EE610A53EC4C
:1028A000102B51EC1C0BFDF745FD41EC1B0B954823
:1028B00090ED001BB0EE410AF0EE610A53EC102BD4
:1028C00051EC1B0BFDF7D7FD41EC1A0B9FED8E0B66
:1028D00053EC102BFDF747FE41EC190B9FED8C0BD1
:1028E00053EC102BFDF7CDFD41EC180BFDF7C8FEA6
:1028F00000B289494880804890ED001BB0EE410A43
:10290000F0EE610A51EC100B81F0004141EC1E0B1E
:102910007A4890ED001BB0EE410AF0EE610A53ECEC
:10292000102B51EC1E0BFDF705FD41EC1D0B7448FF
:1029300090ED001BB0EE410AF0EE610A53EC102B53
:1029400051EC1D0BFDF797FD41EC1C0B6D4890ED14
:10295000001BB0EE410AF0EE610A53EC102B51EC73
:102960001C0BFDF7E7FC41EC1B0B9FED670B53ECD9
:10297000102BFDF7F8FD41EC1A0B9FED680B53ECA3
:10298000102BFDF7F0FD41EC190B9FED610B53ECA3
:10299000102BFDF776FD41EC180BFDF771FE00B230
:1029A0005D4988800846B0F9060040F2DC51884253
:1029B00002DD08465849C8805748B0F90600594911
:1029C000884203DA4FF624205349C8805248B0F9B0
:1029D0000800B0F5966F03DD4FF496604E4908810C
:1029E0004D48B0F9080010F5966F03DA4FF65030F5
:1029F000494908814848B0F90A0041F688018842EF
:102A000002DD0846444948814348B0F90A00464976
:102A1000884203DA4EF278703F4948813E49B1F965
:102A20000600FDF70FFE41EC190B9FED390B53EC3F
:102A3000102BFDF798FD41EC180BFDF76CFE3649A5
:102A40008861B1F90800FDF7FDFD41EC190B9FED20
:102A5000300B53EC102BFDF786FD41EC180BFDF706
:102A60005AFE2D49C861B1F90A00FDF7EBFD41ECB2
:102A7000190B9FED270B53EC102BFDF774FD41EC68
:102A8000180BFDF748FE24490862084690ED080A35
:102A900010EE101A0846FDF72BFE41EC1B0B9FEDC4
:102AA0001F0B53EC102BFDF7ECFC41EC190B1A48F3
:102AB00090ED060AD0ED070A30EE600A10EE101A0B
:102AC0000846FDF715FE41EC1A0B53EC192BFDF7E8
:102AD000D2FC41EC180BFDF71EFE074988600E483A
:102AE00090ED080A10EE101A0846FDF701FE1DE0F1
:102AF00076111AE49735843FA0010020B001002030
:102B0000C0010020D00100200000000000001040A3
:102B10000000000000408F4078010020621058390A
:102B2000B4C8C63F24FAFFFF78E7FFFF41EC1B0B58
:102B30001FED060B53EC102BFDF7A3FC41EC190B1A
:102B4000724890ED060AD0ED070A30EE200A10EE2A
:102B5000101A0846FDF7CCFD41EC1A0B53EC192B6B
:102B6000FDF7E8FB41EC180BFDF7D5FD68498860DF
:102B7000664890ED080A10EE101A0846FDF7B8FDF9
:102B800041EC1B0B1FED1B0B53EC102BFDF779FCDD
:102B900041EC190B5D4890ED060AD0ED070A30EEC6
:102BA000200A10EE101A0846FDF7A2FD41EC1A0BA0
:102BB00053EC192BFDF75FFC41EC180BFDF7ABFD57
:102BC00054498860514890ED080A10EE101A0846E2
:102BD000FDF78EFD41EC1B0B1FED300B53EC102B62
:102BE000FDF74FFC41EC190B484890ED060AD0ED7B
:102BF000070A30EE600A10EE101A0846FDF778FD5D
:102C000041EC1A0B53EC192BFDF794FB41EC180B1C
:102C1000FDF781FD40498860404890ED001BB0EE13
:102C2000410AF0EE610A51EC100BFDF774FD08EE5D
:102C3000100A3A48D0ED020AB0EE600AF0EE480AF7
:102C400000F028FB35498881314890ED001BB0EE3B
:102C5000410AF0EE610A51EC100BFDF75CFD08EE45
:102C6000100A2B48D0ED020AB0EE600AF0EE480AD6
:102C700000F06CFB26498881264890ED001BB0EEE1
:102C8000410AF0EE610A51EC100BFDF744FD08EE2D
:102C9000100A2048D0ED020AB0EE600AF0EE480AB1
:102CA00000F0B0FB1B4988811B4890ED001BB0EE83
:102CB000410AF0EE610A51EC100BFDF72CFD08EE15
:102CC000100A1548D0ED020AB0EE600AF0EE480A8C
:102CD00000F0F4FB1049888110498989494208B203
:102CE000FEF7DCFE0A498989494208B2FEF700FF77
:102CF0000849B1F90C00FEF7DBFF0749B1F90C00F8
:102D0000FFF700F8BDEC0E8B70BD000078010020CD
:102D1000B0010020C0010020D0010020A00100204F
:102D200010B50020FEF7BAFE0020FEF7E1FE0020FD
:102D3000FEF7BEFF0020FEF7E5FF10BD10B502F064
:102D40008FF901F0AFF9144800F07EFA40F2DC5040
:102D500006F0F4FA114800F077FA4FF47A7006F0B2
:102D6000EDFA01F079FF0D48C83800F037F90C484A
:102D700000F0E0F90948643800F030F90848643898
:102D800000F0D8F9054800F029F90348643000F054
:102D9000D1F903F01DF910BD7CFCFFFFD4FEFFFF4D
:102DA000A8FDFFFF10B503F013F9044800F04CFA3A
:102DB0004FF4FA7006F0C2FA10BD00007CFCFFFF71
:102DC00010B502F021F901F05FF9134800F03CFA68
:102DD0004FF42F7006F0B2FA01F03EFF0F4800F0FA
:102DE000FDF80E48643800F0A5F90C48643000F096
:102DF000F5F80948C83000F09DF90848C83000F0DF
:102E0000EDF80548643000F095F903F0E1F84FF46F
:102E10007A7006F093FA10BD7CFCFFFF0CFEFFFFFA
:102E200000B58BB00121022002F0A4FE012148046C
:102E300002F0D0FE03220821214801F03FFB0220CE
:102E40008DF8280000208DF82A004FF4807009903A
:102E500001208DF82B0003208DF8290009A91848BE
:102E600001F0E4FAA720ADF818000020ADF81A0030
:102E70008DF8220044F61F6007900020ADF8200076
:102E800006A9104803F08AFF6020ADF80400012075
:102E9000ADF8060000200390ADF8100001A9094824
:102EA00003F0FAFD0821074803F034FE012105482C
:102EB00003F084FC0121034803F08FFC0BB000BD3C
:102EC000000402400044014010B50021014803F015
:102ED0002EFF10BD0044014010B50446B4F5617FDB
:102EE00001DD4FF4617414F5617F00DA094C00EEE6
:102EF000104AF8EEC00A9FED080A9FED081A01EE8D
:102F0000200ABCEEC00A10EE101A054803F00FFFAD
:102F100010BD00007CFCFFFF0080BB443F358E3FAE
:102F20000044014000B58BB00121022002F022FED6
:102F30000121880402F04EFE03220921214801F0FC
:102F4000BDFA02208DF8280000208DF82A004FF4E9
:102F50000070099001208DF82B0003208DF82900C6
:102F600009A9184801F062FAA720ADF8180000205E
:102F7000ADF81A008DF8220044F61F60079000207B
:102F8000ADF8200006A9104803F008FF6020ADF856
:102F900004000120ADF8060000200390ADF81000F9
:102FA00001A9094803F078FD0821074803F0B2FDA4
:102FB0000121054803F002FC0121034803F00DFC48
:102FC0000BB000BD000402400048014010B50021D4
:102FD000014803F0ACFE10BD0048014010B50446A6
:102FE000B4F5617F01DD4FF4617414F5617F00DA9F
:102FF000094C00EE104AF8EEC00A9FED080A9FED5A
:10300000081A01EE200ABCEEC00A10EE101A05489C
:1030100003F08DFE10BD00007CFCFFFF0080BB4470
:103020003F358E3F0048014000B58BB001210420A0
:1030300002F0A0FD0121022002F0CCFD03220621B6
:10304000364801F03BFA03220721344801F036FAF2
:1030500003220821314801F031FA032209212F48C7
:1030600001F02CFA4FF47070099002208DF82800BE
:1030700003208DF8290000208DF82A0001208DF80A
:103080002B0009A9254801F0D1F9A720ADF81800B7
:103090000020ADF81A0044F61F6007900020ADF83C
:1030A000200006A91E4803F079FE6020ADF8040058
:1030B0000120ADF8060000200390ADF8100001A932
:1030C000174803F0E9FC0821154803F023FD01A986
:1030D000134803F029FD0821114803F077FD01A9E9
:1030E0000F4803F081FD08210D4803F0CDFD01A933
:1030F0000B4803F0D3FD0821094803F00BFE012122
:10310000074803F05BFB0121054803F066FB012142
:10311000034803F06EFB0BB000BD00000008024046
:103120000004014010B50021014803F000FE10BD6D
:103130000004014010B50446B4F5617F01DD4FF491
:10314000617414F5617F00DA094C00EE104AF8EE64
:10315000C00A9FED080A9FED081A01EE200ABCEE96
:10316000C00A10EE101A054803F0E1FD10BD000082
:103170007CFCFFFF0080BB443F358E3F00040140D4
:1031800010B50021014803F0D4FD10BD000401403A
:1031900010B50446B4F5617F01DD4FF4617414F598
:1031A000617F00DA094C00EE104AF8EEC00A9FED8C
:1031B000080A9FED081A01EE200ABCEEC00A10EEC4
:1031C000101A054803F0B5FD10BD00007CFCFFFFA0
:1031D0000080BB443F358E3F0004014010B5002104
:1031E000014803F0A8FD10BD0004014010B50446DD
:1031F000B4F5617F01DD4FF4617414F5617F00DA8D
:10320000094C00EE104AF8EEC00A9FED080A9FED47
:10321000081A01EE200ABCEEC00A10EE101A05488A
:1032200003F089FD10BD00007CFCFFFF0080BB4463
:103230003F358E3F0004014010B50021014803F0E6
:103240007CFD10BD0004014010B50446B4F5617F5B
:1032500001DD4FF4617414F5617F00DA094C00EE72
:10326000104AF8EEC00A9FED080A9FED081A01EE19
:10327000200ABCEEC00A10EE101A054803F05DFDEE
:1032800010BD00007CFCFFFF0080BB443F358E3F3B
:103290000004014030EE601A264880ED001A2648EE
:1032A000B0F9000001EE100AB8EEC11A2148D0EDC5
:1032B000001A21EE211AD0ED001A204890ED002AC4
:1032C00031EEC22A1E48B0F9000001EE900AF8EE75
:1032D000E11A01EE821A1B48B0F9000001EE900AD3
:1032E000F8EEE11A31EE211ABDEEC11A11EE100A04
:1032F00000B2144908800F4890ED001A0F4880ED85
:10330000001A0846B0F9000041F26801884202DD67
:1033100008460C4908800B48B0F900000A49884269
:1033200003DA4EF69870074908800648B0F90000A5
:10333000704700007C000020580000208000002022
:103340005A0000207800002098EFFFFF30EE601A4E
:10335000264880ED001A2648B0F9000001EE100A58
:10336000B8EEC11A2148D0ED001A21EE211AD0ED95
:10337000001A204890ED002A31EEC22A1E48B0F90A
:10338000000001EE900AF8EEE11A01EE821A1B48E5
:10339000B0F9000001EE900AF8EEE11A31EE211AC0
:1033A000BDEEC11A11EE100A00B2144908800F4890
:1033B00090ED001A0F4880ED001A0846B0F90000A1
:1033C00041F26801884202DD08460C4908800B483A
:1033D000B0F900000A49884203DA4EF698700749AE
:1033E00008800648B0F900007047000088000020FF
:1033F000580000208C0000205A000020840000208B
:1034000098EFFFFF30EE601A264880ED001A26483C
:10341000B0F9000001EE100AB8EEC11A2148D0ED53
:10342000001A21EE211AD0ED001A204890ED002A52
:1034300031EEC22A1E48B0F9000001EE900AF8EE03
:10344000E11A01EE821A1B48B0F9000001EE900A61
:10345000F8EEE11A31EE211ABDEEC11A11EE100A92
:1034600000B2144908800F4890ED001A0F4880ED13
:10347000001A0846B0F9000041F26801884202DDF6
:1034800008460C4908800B48B0F900000A498842F8
:1034900003DA4EF69870074908800648B0F9000034
:1034A0007047000094000020580000209800002081
:1034B0005A0000209000002098EFFFFF30EE601AC5
:1034C000264880ED001A2648B0F9000001EE100AE7
:1034D000B8EEC11A2148D0ED001A21EE211AD0ED24
:1034E000001A204890ED002A31EEC22A1E48B0F999
:1034F000000001EE900AF8EEE11A01EE821A1B4874
:10350000B0F9000001EE900AF8EEE11A31EE211A4E
:10351000BDEEC11A11EE100A00B2144908800F481E
:1035200090ED001A0F4880ED001A0846B0F900002F
:1035300041F26801884202DD08460C4908800B48C8
:10354000B0F900000A49884203DA4EF6987007493C
:1035500008800648B0F9000070470000A000002075
:1035600058000020A40000205A0000209C000020E9
:1035700098EFFFFF1CB50121022002F0FBFA0121A8
:103580000E4800F0C9FF0120009000208DF80400D3
:1035900003208DF8050001208DF8070069460748D3
:1035A00000F044FF0221054800F0B6FF0220009021
:1035B0006946024800F03AFF1CBD000000040240CA
:1035C00010B586B004460121102002F003FB012152
:1035D000084602F0CFFA4FF4C060009002208DF848
:1035E00004008DF8050000208DF8060001208DF8FC
:1035F00007006946134800F019FF07220921114806
:1036000000F05CFF07220A210E4800F057FF0294E9
:103610000020ADF80C00ADF80E00ADF810000C2045
:10362000ADF812000020ADF8140002A9064804F01D
:1036300001F80121044803F01CFF04A004F070F815
:1036400006B010BD00000240001001405541525428
:103650003120496E6974204F4B0A000010B588B0C4
:1036600004460121082002F085FA0121880402F0B5
:1036700091FA07220821224800F020FF07220921A1
:103680001F4800F01BFF4FF44070069002208DF899
:103690001C008DF81D0000208DF81E0001208DF803
:1036A0001F0006A9164800F0C1FE02940020ADF8E4
:1036B0000C00ADF80E00ADF81000ADF814000C20B1
:1036C000ADF8120002A90F4803F0B4FF01210D4824
:1036D00003F0CFFE012240F225510A4803F085FF96
:1036E00027208DF8040001208DF805008DF80600D4
:1036F0008DF8070001A802F079F808B010BD0000AD
:10370000000C0240004800402DE9F04707460D46F6
:1037100090464FF00009202D37DCAA201C49087084
:1037200055204870681D8870084680F80380002482
:1037300005E0395D201D164A1154601CC4B2AC422C
:10374000F7DB281DC6B2002406E01148005D48449E
:1037500000F0FF09601CC4B2B442F6DB0C4800F86C
:103760000490681DC6B200240DE00948015D0948B7
:1037700003F0CFFF00BF4021064803F0FFFE012801
:10378000F9D1601CC4B2B442EFDBBDE8F0870000A1
:10379000F60400200010014010B503460B480078E5
:1037A00090B10B488078001FC2B2002105E0C81C10
:1037B000074C205C5854481CC1B29142F7DB0020F2
:1037C000024C2070104610BD0020FCE7CD00002008
:1037D0001E05002010B588B004460121042002F027
:1037E000C9F90121C80402F0D5F908220A212248AA
:1037F00000F064FE08220B211F4800F05FFE4FF42A
:103800004060069002208DF81C008DF81D000020FD
:103810008DF81E0001208DF81F0006A9164800F043
:1038200005FE02940020ADF80C00ADF80E00ADF8D6
:103830001000ADF814000C20ADF8120002A90F48DA
:1038400003F0F8FE01210D4803F013FE012240F2BF
:1038500025510A4803F0C9FE34208DF804000120E8
:103860008DF805008DF806008DF8070001A801F01D
:10387000BDFF08B010BD000000080240004C004031
:1038800070B52DED068B1548FDF760FC00BF0221D9
:103890001248FDF7CBFB0028F9D01048FDF7C2FB1A
:1038A00005462846FCF7DFFE41EC1A0B9FED0C0B9A
:1038B00053EC102BFCF7E5FD41EC190B9FED0A0BC7
:1038C00053EC102BFCF74FFE41EC180BFCF7F7FE06
:1038D00084B22046BDEC068B70BD00000021014083
:1038E000285C8FC2F53EAC400000000000FEAF40F7
:1038F00000B58DB00121042002F03CF901214802FD
:1039000002F068F901200B9003208DF830000020B0
:103910008DF833000BA9184800F088FD01214802FA
:1039200002F068F900214FF4007002F063F9002002
:1039300007900A9009904FF48030089007A8FDF78F
:1039400059FB002001908DF808008DF809000390C4
:10395000059001208DF8180001A90848FDF770FBBB
:1039600001210648FDF73AFB072301220A210348FB
:10397000FDF790FB0DB000BD0008024000210140A2
:1039800000BFFEE710B5144A0021144800F043F9C7
:103990000020134908701048006840F281118842E5
:1039A00018D10D48007B0C49C97A40EA012000B2C9
:1039B0000C49C8800848817B407B41EA002000B266
:1039C000084908810448017CC07B41EA002000B21C
:1039D0000449488110BD00004406002000640040F6
:1039E000610000207801002010B50021837A0122B7
:1039F00002FA03F13D4A126842F001023B4B1A60A1
:103A00003A4A1C3212688A43384B1C331A60027BD4
:103A1000CAB9364A0C3212688A43344B0C331A60E6
:103A20004288C38842EA0343304A4032847A42F8EB
:103A300034300288838842EA03432C4A4032847A35
:103A400002EBC4025360027B012A19D1274A0C32CF
:103A500012680A43254B0C331A604288038842EAF5
:103A60000343224A4032847A42F83430C288838841
:103A700042EA03431D4A4032847A02EBC402536097
:103A8000C27A3AB9194A121D12688A43174B1B1D94
:103A90001A6006E0154A121D12680A43134B1B1DDB
:103AA0001A60028932B9114A143212688A430F4BE4
:103AB00014331A600289012A06D10C4A14321268A2
:103AC0000A430A4B14331A60427B012A06D1074A83
:103AD0001C3212680A43054B1C331A60034A1268F1
:103AE00022F00102014B1A6010BD00000066004088
:103AF0001AB143690B43436102E043698B4343615D
:103B0000704730B5024600200023146824F00204F8
:103B10001460146844F00104146000E05B1C5468F5
:103B200004F001041CB94FF6FF74A342F6D15468A7
:103B300004F001040CB900206CE08C79012C04D154
:103B4000146844F08004146003E0146824F08004D6
:103B50001460CC79012C04D1146844F04004146042
:103B600003E0146824F0400414600C7A012C04D1A2
:103B7000146844F02004146003E0146824F0200466
:103B800014604C7A012C04D1146844F010041460C1
:103B900003E0146824F0100414608C7A012C04D122
:103BA000146844F00804146003E0146824F0080466
:103BB0001460CC7A012C04D1146844F0040414601D
:103BC00003E0146824F0040414608C78A407CD7812
:103BD00044EA05640D7944EA05444D7944EA055404
:103BE0000D886D1E2C43D461146824F00104146008
:103BF000002300E05B1C546804F001041CB14FF684
:103C0000FF74A342F6D1546804F001040CB1002003
:103C100000E0012030BD10B500F5D87303EB0113AF
:103C20001B6803F004031372137A53B900F5D873B9
:103C300003EB01131B6840F2FF7404EA5353136053
:103C400009E000F5D87303EB01131B686FF06044C3
:103C500004EAD303536000F5D87303EB01131B6828
:103C600003F00203537200F5D87303EB01135B6892
:103C700003F00F03937200F5D87303EB01135B6835
:103C80001B0AD37400F5D87303EB01139B68D3723E
:103C900000F5D87303EB01139B681C0A147300F53D
:103CA000D87303EB01139B681C0C547300F5D87395
:103CB00003EB01139B681B0E937300F5D87303EBA2
:103CC0000113DB68D37300F5D87303EB0113DB68D2
:103CD0001C0A147400F5D87303EB0113DB681C0C89
:103CE000547400F5D87303EB0113DB681B0E937457
:103CF00021B9C36843F02003C36003E0036943F0C4
:103D00002003036110BD10B502460020936803F044
:103D10008063B3F1806F00D110E0936803F000631B
:103D2000B3F1006F01D1012008E0936803F08053E4
:103D3000B3F1805F01D1022000E00420042874D098
:103D400002F5C07303EB00131B6803F0010402F5D6
:103D5000C07303EB00131C600B7A7BB94B7A0C88A1
:103D600043EA445302F5C07404EB0014246823436F
:103D700002F5C07404EB0014236010E00B7A4C6869
:103D800043EAC4034C7A234302F5C07404EB0014E5
:103D90002468234302F5C07404EB001423608B7A7B
:103DA00003F00F038B7202F5C07303EB00135B6823
:103DB00023F00F0402F5C07303EB00135C6002F5FF
:103DC000C07303EB00135B688C7A234302F5C07465
:103DD00004EB001463608B7B1C064B7B44EA0344BA
:103DE0000B7B44EA0323CC7A234302F5C07404EB33
:103DF0000014A3608B7C1C064B7C44EA03440B7CC0
:103E000044EA0323CC7B234302F5C07404EB001483
:103E1000E36002F5C07303EB00131B6843F0010479
:103E200002F5C07303EB00131C6010BD0246094B82
:103E30009A4201D2084801E00648103801F00053C8
:103E40001BB1064B0B40C36002E0044B0B40836088
:103E50007047000010640240006002407D0F7D0F3B
:103E600021B1026842F00102026003E0026822F020
:103E70000102026070470000016821F00101016049
:103E80000021016041608160C160016121214161C7
:103E90004A49884204D13D21484A103A91608CE059
:103EA00046491831884205D14FF47461434A103AAB
:103EB000916082E041493031884205D14FF474115C
:103EC0003E4A103A916078E03C494831884205D139
:103ED0004FF07461394A103A91606EE037496031B1
:103EE000884204D13649354A103AD16065E03349F9
:103EF0007831884204D13349304A103AD1605CE0CD
:103F00002E499031884204D12F492C4A103AD16071
:103F100053E02A49A831884205D14FF03D51274A44
:103F2000103AD16049E02949884204D13D21274A0D
:103F3000083A116041E025491831884205D14FF413
:103F40007461224A083A116037E0204930318842D2
:103F500005D14FF474111D4A083A11602DE01B4938
:103F60004831884205D14FF07461184A083A11600F
:103F700023E016496031884204D11149134A121FC7
:103F800011601AE011497831884204D10D490F4A75
:103F9000121F116011E00D499031884204D10A4985
:103FA0000A4A121F116008E00849A831884204D16A
:103FB0004FF03D51054A121F1160704710600240DA
:103FC0003D000020400F002000003D201064024012
:103FD000014600200A6802F001020AB1012000E057
:103FE0000020704730B503460A46002000240B4DE0
:103FF000AB4201D20A4901E00849103902F00055EC
:104000000DB14C6800E00C68064D2C4004EA020536
:104010000DB1012000E0002030BD0000106402401E
:10402000006002407D0F7D0F10B500220268134B27
:104030001A40CC680B6823434C6923438C692343A3
:10404000CC6923430C6A23434C6A23438C6A234381
:104050004C6B23438C6B23431A430260426922F06A
:104060000702D1E90B3423431A4342610B694360D1
:104070004B6883608B68C36010BD00003F801CF0FC
:10408000416070477047000010B50548FEF7A6FF75
:104090000348FFF74FF84FF42F7005F04FF910BDAC
:1040A00076FDFFFF10B50648FEF798FF0448643818
:1040B000FFF740F84FF42F7005F040F910BD0000F5
:1040C00076FDFFFF2DED048B82B0CDE0642005F07E
:1040D00035F96648007800B364480078012806D1B5
:1040E000002363A202215A20FDF7ACFF1BE05F48CA
:1040F0000078022806D100235EA202215A20FDF793
:10410000A1FF10E05948007803280CD100235AA2DF
:1041100002215A20FDF796FF05E0002357A2022155
:104120005A20FDF78FFF56480088FCF79CFA41ECB7
:10413000190B9FED540B53EC102BFCF7A2F941EC3B
:10414000180BFCF79DFA04460020012102232246A9
:10415000CDE9001003211E20FDF794FF0020009000
:1041600001904A48B0F90A20062303215A20FDF79E
:1041700089FF642005F0E2F8454890ED001BB0EEA1
:10418000410AF0EE610A9FED431B53EC112B51ECF9
:10419000100BFCF776F941EC180BFCF771FA0446AA
:1041A000002002210B462246CDE9001006211E20E8
:1041B000FDF768FF394890ED001BB0EE410AF0EEC4
:1041C000610A9FED341B53EC112B51EC100BFCF7E3
:1041D00058F941EC180BFCF753FA04460020022171
:1041E0000B462246CDE9001006215A20FDF74AFF72
:1041F0002B4890ED001BB0EE410AF0EE610A9FEDF6
:10420000251B53EC112B51EC100BFCF73AF941EC48
:10421000180BFCF735FA0446002002210B46224613
:10422000CDE9001007211E20FDF72CFF1D4890ED61
:10423000001BB0EE410AF0EE610A9FED161B53EC35
:10424000112B51EC100BFCF71CF941EC180BFCF78F
:1042500017FA0446002002210B462246CDE9001041
:1042600007215A20FDF70EFF30E700006100002013
:104270005053320041505000524D5300524F5300A2
:10428000440000209A9999999999B93FE00100203A
:10429000A00100200000000000005940B0010020F3
:1042A000C0010020D00100209AB023A003F0D6F86E
:1042B0000024002600BF3EE020212A4803F05EF9DA
:1042C000012835D1274803F01FFAC4B2234626A29D
:1042D00032210DA803F034FA0DA803F0BFF805F061
:1042E0002BFF0546032C18DCA81BB0F5FA7F10D372
:1042F0002E46234622A23221684603F021FA684660
:1043000003F0ACF8204603F0D3FF204604F002FE91
:104310000DE021A003F0A2F809E0234628A23221F3
:10432000684603F00DFA684603F098F800BF00BF36
:104330000A2005F003F8BFE70D0A5B4553503832F9
:1043400036365D20436F6D6D756E69636174696F9C
:104350006E205461736B2053746172746564210D17
:104360000A000000001001405B45535038323636D9
:104370005D205261773A203078253032580D0A009E
:1043800052656365697665642072657365743A2069
:1043900025640D0A000000005B5741524E5D20412C
:1043A0006374696F6E20746F6F20667265717565D6
:1043B0006E74212049676E6F7265642E0D0A0000CD
:1043C0005B4552524F525D20496E76616C696420A4
:1043D00072657365743A2025640D0A001FB50446A2
:1043E0000F48007EA04200D11FBD0D4804766CB17D
:1043F00072B6FEF769FDFEF7E9FDFEF793FEFEF7E4
:10440000BFFEFEF7EBFEFEF717FF62B6224605A1E0
:10441000684603F0AFF9684602F0EAFE00BFE3E742
:10442000B0000020455325640A000000F0B50A469C
:1044300000210023002400BF3DE0012505FA01F31F
:10444000156805EA03049C4234D105684F00032631
:10445000BE40B543056015794E00B540066835434A
:1044600005601579012D02D01579022D16D18568C8
:104470004F000326BE40B543856055794E00B540D8
:10448000866835438560456801268E40B5434560A2
:10449000456896798E40B6B235434560C5684F0091
:1044A0000326BE40B543C560D5794E00B540C66809
:1044B0003543C560491C1029BFD3F0BDF0B50023BA
:1044C00000244D07ED0E02FA05F3CE1000F1200591
:1044D00055F826504E07F70E0F26BE40B543CF10B5
:1044E00000F1200646F82750CE1000F1200555F8BF
:1044F000265045EA0304CE1000F1200545F8264079
:10450000F0BD0246002013690B400BB1012000E012
:104510000020704741837047018370470AB10183CF
:1045200000E04183704770B504460D462946204699
:1045300001F044F82946204600F0BEFD29462046F9
:1045400000F06EFE2946204600F09EFE29462046D9
:1045500000F0F6FE2946204601F004F870BD000088
:10456000012622E01148008800F40040D0B10F4835
:104570000088C0F30E05002405E00D48005D0D49DC
:104580000855601C84B2AC42F7DB00200749088064
:10459000084908550848FFF7C6FF1EB1054907A09E
:1045A00003F0BEF8C82004F0C9FEDBE7D00000200D
:1045B000E8070020EC0100207C0300200D0A257391
:1045C0000D0A000000BFFEE710B500200E4908608C
:1045D0000E48006820F440400C4908600846006816
:1045E00040F48040086000200949C1F89C02012085
:1045F000FCF716FF012004490860FCF711FF0020BA
:104600000349C1F8980210BD98824042000402405C
:104610000080404210B500200D4908600220FCF7E0
:10462000FFFE01200B49C1F888020220FCF7F8FECA
:1046300000200749091F08600220FCF7F1FE012055
:104640000449C1F88C020220FCF7EAFE10BD00000C
:104650008C0242420000424210B500200E49086020
:104660000E48006820F440400C4908600846006885
:1046700040F48040086001200949C1F89C02FCF721
:10468000CFFE012004490860FCF7CAFE002004495F
:10469000C1F8980210BD0000988240420004024018
:1046A0000080404210B50120094908600220FCF753
:1046B000B7FE01200749C1F888020220FCF7B0FECE
:1046C00000200349091F08600220FCF7A9FE10BD65
:1046D0008C024242000042422DE9F04106460F465C
:1046E00014461D4600F0EAF810B90120BDE8F0813B
:1046F0007106080E00F08CF800F06EF918B900F0A1
:104700002DF90120F2E7384600F082F800F064F954
:1047100000F0D4F8012101EB4601C8B200F078F8AE
:1047200000F05AF90DE0012C04D1002000F010F83F
:10473000287003E0012000F00BF828706D1C601E4B
:10474000C4B2002CEFD100F009F90020CEE7000040
:1047500070B5054600241648006820F4404014490E
:104760000860084600680860002616E06006040E2F
:104770000020104908600220FCF752FE01200E497B
:10478000C1F898020B487C38006808B1601CC4B2BC
:104790000220FCF745FE701CC6B2082EE6DB15B100
:1047A000FFF712FF01E0FFF757FF204670BD000042
:1047B00000040240988240420080404270B50546A5
:1047C0000024002615E06006040E01200E49086052
:1047D0000220FCF725FE0D48D0F80C0208B1601C41
:1047E000C4B20020084908600220FCF719FE701CC2
:1047F000C6B2082EE7DB15B9FFF754FF01E0FFF75B
:1048000009FF204670BD000088024242000042427B
:1048100070B504461448006820F44040124908600E
:104820000846006840F48040086000200F49086096
:10483000002516E0E0090D49091D08600120FCF77C
:10484000EFFD01200A49C1F89802FCF7E9FD0020BC
:10485000064908600120FCF7E3FD6006040E681CB1
:10486000C5B2082DE6DB70BD0004024098824042CC
:104870000080404270B50446002514E0E0090D496F
:1048800008600220FCF7CCFD01200B49C1F888022A
:104890000220FCF7C5FD00200649091F08606006DC
:1048A000040E681CC5B2082DE8DB01200149086030
:1048B00070BD00008C0242420000424210B5164812
:1048C000006820F44040144908600846006840F43D
:1048D000804008600120114908601148D0F81C028E
:1048E00008B9002010BD01200C49091F0860FCF721
:1048F00097FD00200A49C1F89C02084880380068EA
:1049000008B10020EEE70120FCF78AFD00200349F2
:10491000091F08600120E5E7000402409C82404234
:104920000080404210B501200A4908600A49C1F8D8
:1049300088020220FCF774FD00200649086002206E
:10494000FCF76EFD00200449C1F888020220FCF744
:1049500067FD10BD8C0242420000424210B50E4875
:10496000006820F440400C4908600846006840F4A4
:10497000804008600020094908600949C1F89C028C
:104980000120FCF74DFD0120044908600449C1F8ED
:104990009C02FCF745FD10BD000402409882404295
:1049A0000080404210B50020094908600220FCF751
:1049B00037FD01200749C1F888020220FCF730FDCD
:1049C0000120034908600220FCF72AFD10BD000009
:1049D0008C0242420000424210B500241448006894
:1049E00020F4404012490860084600680860012031
:1049F00010490860FCF714FD01200F49C1F8980226
:104A0000FCF70EFD07E0601CC4B2FA2C03DDFFF7D3
:104A1000A5FF002010BD0748803800680028F2D1AB
:104A20000449091F08600120FCF7FAFC0120F1E7A6
:104A3000000402409C8240420080404210B50024A5
:104A40000120114908600220FCF7EAFC01200F490F
:104A5000C1F888020220FCF7E3FC07E0601CC4B246
:104A6000FA2C03DDFFF79EFF012010BD06488038B9
:104A700000680028F2D10449091F08600220FCF7F1
:104A8000CFFC0020F1E700008C02424200004242CD
:104A90002DE9F04105460E4617469846FFF70EFFF2
:104AA00010B90120BDE8F0816906080EFFF7B0FEDD
:104AB000FFF792FF18B9FFF751FF0120F2E73046E8
:104AC000FFF7A6FEFFF788FF00240BE018F80400AC
:104AD000FFF79EFEFFF780FF18B9FFF73FFF0020AA
:104AE000E0E7641CBC42F1DBFFF738FF0020D9E7A8
:104AF00093E0FCF7F5FE00287ED0322004F01EFC87
:104B0000FCF7EEFE0028F7D0002415E0322004F078
:104B100015FCFCF7E5FE00B910E03C2C0AD102219F
:104B20003E48FFF7F9FCC82004F008FC02213B488E
:104B3000FFF7F0FC601CC4B2C82CE7DB00BF142CEC
:104B40001BDA00210846FCF7E6FC3548006804F053
:104B50004BFE3448006804F047FE0020FCF79EFF3F
:104B60000020FCF7C5FF0020FDF7A2F80020FDF7AC
:104B7000C9F8FDF7AFF900BFFEE7C82C4AD1002104
:104B80000846FCF7C8FC2648006804F02DFE2548BE
:104B9000006804F029FE02212048FFF7BDFC40F622
:104BA000B83004F0CBFB02211C48FFF7B3FC002017
:104BB000FCF774FF0020FCF79BFF0020FDF778F85E
:104BC0000020FDF79FF8FDF785F922E0002316A2EB
:104BD00003211846FDF736FA002319A205211846CD
:104BE000FDF730FA02210D48FFF796FC0A2004F089
:104BF000A5FB0221094800E00CE0FFF78BFC40F226
:104C0000DC5004F09BFBFDF765F94FF4FA7004F0FB
:104C100095FBDBE7322004F091FB6AE700100240CD
:104C2000100000201C0000202020526F626F7420B2
:104C30006861732073746F707065642020000000D9
:104C400020202020506C656173652052657374616B
:104C5000727420202000000010B50648FEF7BEF94F
:104C60000448C838FEF766FA4FF4487004F066FB53
:104C700010BD00000CFEFFFF10B5034B5A791979E7
:104C8000D878FDF745FC10BD3D0000202DE9F0412E
:104C90003748C078802801DB012000E0002005466D
:104CA00033480079802801DB012000E0002006461F
:104CB0002F484079802801DB012000E000200746D2
:104CC0002C480078292811DA2A48007800EB4000A7
:104CD0004006040E07FB04F3DAB206FB04F3D9B274
:104CE00005FB04F3D8B2FDF713FC3AE02148007845
:104CF0003D280CDAF02407FB04F3DAB206FB04F3D8
:104D0000D9B205FB04F3D8B2FDF702FC29E019483B
:104D100000784F2811DA17480078C0F15000C0061B
:104D2000040E07FB04F3DAB206FB04F3D9B205FB69
:104D300004F3D8B2FDF7ECFB13E00E4800785B28D3
:104D40000CDA0C2407FB04F3DAB206FB04F3D9B245
:104D500005FB04F3D8B2FDF7DBFB02E002200549B6
:104D6000087004480078401C02490870BDE8F081D2
:104D70003D000020A800002010B50248FDF762FCAD
:104D800010BD0000CCA9000810B528480078032801
:104D900003DA2748FDF756FC42E02448007806284D
:104DA00005DA002211461046FDF7B2FB38E01F4835
:104DB00000780A2803DA1E48FDF744FC30E01B485F
:104DC0000078142805DA002211461046FDF7A0FBF2
:104DD00026E016480078172803DA1648FDF732FC5B
:104DE0001EE0124800781A2805DA00221146104603
:104DF000FDF78EFB14E00D4800781E2803DA0D48FD
:104E0000FDF720FC0CE009480078282805DA00228C
:104E100011461046FDF77CFB02E0002003490870B4
:104E200002480078401C0149087010BDA90000200C
:104E3000E4A90008FCA9000810B51648C078164976
:104E400008701448007948701248407988701148F9
:104E5000C07848750F4801790F4881750D48417930
:104E60000D48C17501240EE0002004EB44010A4AFC
:104E7000505404EB44011144487004EB44011144C4
:104E80008870601CC4B2072CEEDB0348FDF78CFB76
:104E900010BD00003D0000203604002010B543483E
:104EA0000078082836DA41480078A8B100213F4848
:104EB0000078401E00EB40003D4A11543B4800780A
:104EC000401E00EB40001044417038480078401EFE
:104ED00000EB4000104481703648C07833490978AF
:104EE00001EB4101324A5054324800792F49097888
:104EF00001EB4101114448702E4840792B49097853
:104F000001EB41011144887028480078401C274972
:104F1000087047E025480078102840DA23480078D8
:104F2000082818D0002121480078C0F1100000EBBB
:104F300040001F4A11541D480078C0F1100000EBDA
:104F400040001044417019480078C0F1100000EB97
:104F50004000104481701748C07814490978C1F1A5
:104F60000F0101EB4101124A5054124800790F49D8
:104F70000978C1F10F0101EB4101114448700D485E
:104F800040790A490978C1F10F0101EB410111444F
:104F9000887006480078401C0449087002E0002030
:104FA000024908700248FDF7FFFA10BDAA00002070
:104FB000360400203D0000200DE01E2004F0BEF964
:104FC0000548007810B1FCF7BDFC04E00022114652
:104FD0001046FDF79DFAF0E75E00002070B504462C
:104FE0000D461646F2B22B4621466820FFF774FBA9
:104FF00070BD13B5044601AB012221466820FFF7BE
:1050000047FD1CBD00BFFEE710B54FF47A7004F0F9
:1050100095F91148FDF7E2FF1048FEF78BF80E48AE
:105020006438FDF7DBFF0D486430FEF783F80A486B
:10503000C838FDF7D3FF0948C830FEF77BF80748AA
:10504000DC30FDF7CBFF0448C838FEF773F84FF4A7
:10505000487004F073F910BDD4FEFFFFE0FCFFFFC1
:1050600010B51348FDF7BAFF1248FEF763F8104871
:105070006438FDF7B3FF0F482830FEF75BF80C48A3
:10508000C838FDF7ABFF0B484630FEF753F8094828
:10509000C830FDF7A3FF07486430FEF74BF8C8207F
:1050A000FEF776F84FF4487004F048F910BD0000A0
:1050B000D4FEFFFFAEFCFFFF2DE9FC5F07468A46EA
:1050C0004FF00008CDF804A046A10198FBF7FAF8CC
:1050D0000646F079303800F0FF0B0321304600F02F
:1050E00085F80546FF2D04D07019694600F007FBCE
:1050F00078704FF0000970E03AA10198FBF7E2F8F0
:105100000646002460E0042000EB8400C1B2304673
:1051100000F06CF80546FF2D0AD07019694600F0C2
:10512000EEFAC1B208EB880207F13E00815400E0BC
:105130004CE0052000EB8400C1B2304600F056F888
:105140000546FF2D0BD07019694600F0D8FAC1B2A0
:1051500008EB880207F13E001044417000E035E0A2
:10516000062000EB8400C1B2304600F03FF805464F
:10517000FF2D0BD07019694600F0C1FA81B208EB1F
:10518000880207F13E001044418000E01EE0072045
:1051900000EB8400C1B2304600F028F80546FF2D30
:1051A0000BD07019694600F0AAFAC1B208EB880268
:1051B00007F13E001044017100E007E008F1010032
:1051C00000F0FF08601CC4B2042C9CDB00BF701C04
:1051D000019009F1010000F0FF09D9458CDBBDE821
:1051E000FC9F0000244244475356000002461346E9
:1051F00010E010782A2805D01078202802DB1078DB
:105200007A2801DDFF20704710782C2801D1481E34
:10521000C1B2521C0029ECD1D01AC0B2F3E7000091
:10522000F8B505460F4616A13846FBF74BF806467B
:1052300006213046FFF7DAFF0446FF2C05D030196F
:10524000694600F05CFA85F88B0007213046FFF7CD
:10525000CDFF0446FF2C05D03019694600F04FFA07
:1052600085F88C0009213046FFF7C0FF0446FF2C6B
:1052700005D03019694600F042FAC5F8A000F8BD23
:1052800024474E47474100002DE9F843054688462C
:1052900029A14046FBF716F8064602213046FFF7E3
:1052A000A5FF0446FF2C05D03019694600F027FA07
:1052B00085F89900002713E0F81CC1B23046FFF7CB
:1052C00095FF0446FF2C08D03019694600F017FA04
:1052D000C1B205F18D00C15500E003E0781CC7B2F2
:1052E0000C2FE9DB00BF0F213046FFF77FFF04469C
:1052F000FF2C05D03019694600F001FAA5F89A0094
:1053000010213046FFF772FF0446FF2C05D03019FC
:10531000694600F0F4F9A5F89C0011213046FFF72A
:1053200065FF0446FF2C05D03019694600F0E7F907
:10533000A5F89E00BDE8F88324474E47534100007E
:105340002DE9F0432DED028B81B00446884682A101
:105350004046FAF7B7FF074601213846FFF746FFF8
:105360000546FF2D23D07819694600F0C8F981461B
:105370009DF800100A2000F0B7F9B9FBF0F642F2F0
:105380001070B6FBF0F0C1B27E2001556420B6FB70
:10539000F0F06421B0FBF1F201FB12017F20015516
:1053A0006420B6FBF0F100FB116180200155032160
:1053B0003846FFF71BFF0546FF2D42D07819694696
:1053C00000F09DF906469DF80000801CC1B20A203D
:1053D00000F08AF9B6FBF0F044F8810F9DF8000068
:1053E000801CC1B20A2000F07FF9B6FBF0F100FB8F
:1053F000116000EE100AB8EE408A05210A2000F084
:1054000073F92168484300EE100AF8EE400A9DF84F
:105410000000C0F10500C1B20A2000F065F900EEFD
:10542000100AB8EE400A20EE080A9FED4D1AC0EEB1
:10543000011A30EEA10ABCEEC00A10EE100A44F8C0
:10544000810904213846FFF7D1FE0546FF2D02D021
:10545000785D84F8850005213846FFF7C7FE0546CC
:10546000FF2D44D07819694600F049F906469DF8A9
:105470000000801CC1B20A2000F036F9B6FBF0F043
:1054800044F8860F9DF80000801CC1B20A2000F08D
:105490002BF9B6FBF0F100FB116000EE100AB8EE3C
:1054A000400AB0EE408A05210A2000F01DF921686B
:1054B000484300EE100AF8EE400A9DF80000C0F1E3
:1054C0000500C1B20A2000F00FF900EE100AB8EE94
:1054D000400A20EE080A9FED221AC0EE011A30EEB3
:1054E000A10ABCEEC00A10EE100A44F88609062193
:1054F0003846FFF77BFE0546FF2D02D0785D84F825
:105500008A0009213846FFF771FE0546FF2D1ED09F
:105510007819694600F0F3F8064642F21070B6FBBF
:10552000F0F0C1B27D2001556420B6FBF0F064219B
:10553000B0FBF1F201FB12017C2001556420B6FBA7
:10554000F0F100FB116000F5FA60A4F87A0001B0F8
:10555000BDEC028BBDE8F08324474E524D43000062
:1055600000007042F8B504460D4612A12846FAF72D
:10557000A9FE064607213046FFF738FE0746FF2FF3
:1055800016D0F019694600F0BAF8A4F8A4009DF806
:10559000000003280CDA9DF80000C0F10300C1B23E
:1055A0000A2000F0A1F8B4F8A4104843A4F8A4001D
:1055B000F8BD000024474E56544700002DE9FC5F1B
:1055C00007468A464FF00008CDF804A044A1019890
:1055D000FAF778FE0646F079303800F0FF0B032129
:1055E0003046FFF703FE0546FF2D04D070196946CB
:1055F00000F085F838704FF000096CE038A1019890
:10560000FAF760FE064600245CE0042000EB84000C
:10561000C1B23046FFF7EAFD0546FF2D09D07019EB
:10562000694600F06CF8C1B208EB8802B81C8154DE
:1056300000E049E0052000EB8400C1B23046FFF7EE
:10564000D5FD0546FF2D0AD07019694600F057F8C0
:10565000C1B208EB8802B81C1044417000E033E08E
:10566000062000EB8400C1B23046FFF7BFFD0546BF
:10567000FF2D0AD07019694600F041F881B208EB9D
:105680008802B81C1044418000E01DE0072000EBB8
:105690008400C1B23046FFF7A9FD0546FF2D0AD0B0
:1056A0007019694600F02BF8C1B208EB8802B81CEB
:1056B0001044017100E007E008F1010000F0FF086C
:1056C000601CC4B2042CA0DB00BF701C019009F167
:1056D000010000F0FF09D94590DBBDE8FC9F000008
:1056E000244750475356000010B50246012000E001
:1056F00050430B1EA1F10104E1B2F9D110BD2DE917
:10570000F34F81B007463C46002000908346814617
:105710000026804628E020782D2802D148F0020893
:10572000641C20782C2802D020782A2800D11CE084
:1057300020782E2803D148F00108641C09E0207865
:10574000392802DC2078302803DA4FF000090026DF
:105750000BE008F0010010B1701CC6B203E009F1C3
:10576000010000F0FF09641CD5E700BF08F002004B
:1057700000B17F1C00250EE0A9F10100401BC1B261
:105780000A20FFF7B1FF795D3039009A00FB012054
:105790000090681CC5B24D45EEDB052E00DD0526E8
:1057A0000298067000250EE0701E401BC1B20A2050
:1057B000FFF79AFF09F101012944795C303900FBB8
:1057C00001BB681CC5B2B542EEDB31460A20FFF7CB
:1057D0008BFF009901FB00BA08F0020008B1CAF182
:1057E000000A5046BDE8FE8F7047000070B50021EA
:1057F00000230F22C4781CB3174C246804F4E0641F
:10580000C4F5E064C4F30721C1F10404E3B20A4122
:1058100044789C40E1B28478144021430C07210E67
:105820000E4C05786155047804F01F050124AC4046
:1058300005786D11AD0005F1E025C5F8004109E0DE
:10584000047804F01F050124AC40054D067876115C
:1058500045F8264070BD00000CED00E000E400E0DB
:1058600080E100E002490143024A116070470000F4
:105870000000FA050CED00E070B504460D4605F198
:10588000B001C8B200F00CF8102141EA141000F089
:1058900007F804F00F0141F0010000F001F870BDBD
:1058A00010B5044610210548FEF734FE204600F0EE
:1058B00025FB10210148FEF72FFE10BD000002401D
:1058C00010B50446204600F019FB10BD03E04FF46C
:1058D000967003F033FDFAE730B501464C4A127872
:1058E00072B92C290CD10122494B1A70494A1478FB
:1058F0001278521C474D2A70474A22F8141086E04D
:10590000434A1278012A0ED112290CD10222404BAF
:105910001A70404A13781278521C3E4D2A703E4A43
:1059200022F8131073E03A4A1278022A3ED1394A1B
:1059300014781278521C374D2A70374A22F8141006
:105940002A461278062A01DA5B2960D10322304BFD
:105950001A70314A1279314B1A702F4A9279304BB2
:105960001A702D4A127A2F4B1A702C4A12782E4B2D
:105970001A602B4A12782D4B1A602A4A12782C4B47
:105980001A602A4A1268502A05DD284A1268A2F5D0
:105990008072264B1A60264A1268282A37DD244A6C
:1059A0001268A2F58072224B1A6030E0184A127811
:1059B000032A1DD1174A1278521E174B33F81220B2
:1059C0005B2A05D10022134B1A70114B1A701EE08E
:1059D00000220F4B1A700F4B1A70002005E00022B6
:1059E0000D4B23F81020421CD0B20A28F7DB0EE042
:1059F0000022074B1A70074B1A70002005E00022A6
:105A0000054B23F81020421CD0B20A28F7DB30BD2A
:105A1000E9000020E800002078090020D4000020E0
:105A2000D5000020D6000020D8000020DC00002097
:105A3000E0000020F0B52DED028B89B00446214630
:105A400031A001F06DFE20784A2842D14121204644
:105A5000FAF74AFC0746002F3AD0601CFAF75DFCC3
:105A60000546781C01F0A0FEB0EE408AF0EE608A98
:105A700051EC180BFAF74FFE06463046FAF738FE9F
:105A800041EC180B53EC182B294624A001F048FEDA
:105A9000012D1CDB062D1ADC03F036FB681E27499E
:105AA00041F8206003F05AFB3046FAF721FE41EC42
:105AB000180B53EC182B22A101A801F05BFE01A8E2
:105AC00001F096FB01A920A001F02AFE00BF00BF53
:105AD00015E0022221A12046FAF710FC78B9A01C9B
